{"abi":[{"type":"function","name":"UPGRADE_INTERFACE_VERSION","inputs":[],"outputs":[{"name":"","type":"string","internalType":"string"}],"stateMutability":"view"},{"type":"function","name":"elementRegistry","inputs":[],"outputs":[{"name":"","type":"address","internalType":"address"}],"stateMutability":"view"},{"type":"function","name":"initialize","inputs":[{"name":"owner","type":"address","internalType":"address"},{"name":"setr","type":"address","internalType":"address"},{"name":"omnir","type":"address","internalType":"address"},{"name":"kindr","type":"address","internalType":"address"},{"name":"data","type":"bytes32","internalType":"bytes32"},{"name":"decimals","type":"uint8","internalType":"uint8"},{"name":"symbol","type":"string","internalType":"string"}],"outputs":[],"stateMutability":"nonpayable"},{"type":"function","name":"kindRegistry","inputs":[],"outputs":[{"name":"","type":"address","internalType":"address"}],"stateMutability":"view"},{"type":"function","name":"omniRegistry","inputs":[],"outputs":[{"name":"","type":"address","internalType":"address"}],"stateMutability":"view"},{"type":"function","name":"owner","inputs":[],"outputs":[{"name":"","type":"address","internalType":"address"}],"stateMutability":"view"},{"type":"function","name":"proxiableUUID","inputs":[],"outputs":[{"name":"","type":"bytes32","internalType":"bytes32"}],"stateMutability":"view"},{"type":"function","name":"renounceOwnership","inputs":[],"outputs":[],"stateMutability":"nonpayable"},{"type":"function","name":"semver","inputs":[],"outputs":[{"name":"version","type":"uint32","internalType":"uint32"}],"stateMutability":"pure"},{"type":"function","name":"setRegistry","inputs":[],"outputs":[{"name":"","type":"address","internalType":"address"}],"stateMutability":"view"},{"type":"function","name":"transferOwnership","inputs":[{"name":"newOwner","type":"address","internalType":"address"}],"outputs":[],"stateMutability":"nonpayable"},{"type":"function","name":"uniqueDescriptor","inputs":[{"name":"id","type":"uint64","internalType":"uint64"},{"name":"rev0","type":"uint32","internalType":"uint32"}],"outputs":[{"name":"desc","type":"tuple","internalType":"struct Descriptor","components":[{"name":"traits","type":"uint32","internalType":"uint32"},{"name":"rev","type":"uint32","internalType":"uint32"},{"name":"kindRev","type":"uint32","internalType":"uint32"},{"name":"setRev","type":"uint32","internalType":"uint32"},{"name":"kindId","type":"uint64","internalType":"uint64"},{"name":"setId","type":"uint64","internalType":"uint64"}]}],"stateMutability":"view"},{"type":"function","name":"uniqueOwner","inputs":[{"name":"id","type":"uint64","internalType":"uint64"}],"outputs":[{"name":"owner","type":"address","internalType":"address"}],"stateMutability":"view"},{"type":"function","name":"uniqueRegister","inputs":[{"name":"code","type":"address","internalType":"address"},{"name":"data","type":"bytes32","internalType":"bytes32"},{"name":"std","type":"uint8","internalType":"enum TokenStandard"},{"name":"decimals","type":"uint8","internalType":"uint8"},{"name":"symbol","type":"string","internalType":"string"}],"outputs":[{"name":"id","type":"uint64","internalType":"uint64"},{"name":"meta","type":"tuple","internalType":"struct Descriptor","components":[{"name":"traits","type":"uint32","internalType":"uint32"},{"name":"rev","type":"uint32","internalType":"uint32"},{"name":"kindRev","type":"uint32","internalType":"uint32"},{"name":"setRev","type":"uint32","internalType":"uint32"},{"name":"kindId","type":"uint64","internalType":"uint64"},{"name":"setId","type":"uint64","internalType":"uint64"}]}],"stateMutability":"nonpayable"},{"type":"function","name":"uniqueRevision","inputs":[{"name":"id","type":"uint64","internalType":"uint64"},{"name":"rev0","type":"uint32","internalType":"uint32"}],"outputs":[{"name":"rev","type":"uint32","internalType":"uint32"}],"stateMutability":"view"},{"type":"function","name":"uniqueSnapshot","inputs":[{"name":"id","type":"uint64","internalType":"uint64"},{"name":"rev0","type":"uint32","internalType":"uint32"}],"outputs":[{"name":"desc","type":"tuple","internalType":"struct Descriptor","components":[{"name":"traits","type":"uint32","internalType":"uint32"},{"name":"rev","type":"uint32","internalType":"uint32"},{"name":"kindRev","type":"uint32","internalType":"uint32"},{"name":"setRev","type":"uint32","internalType":"uint32"},{"name":"kindId","type":"uint64","internalType":"uint64"},{"name":"setId","type":"uint64","internalType":"uint64"}]},{"name":"elems","type":"bytes32[]","internalType":"bytes32[]"}],"stateMutability":"view"},{"type":"function","name":"uniqueSota","inputs":[{"name":"id","type":"uint64","internalType":"uint64"}],"outputs":[{"name":"desc","type":"tuple","internalType":"struct Descriptor","components":[{"name":"traits","type":"uint32","internalType":"uint32"},{"name":"rev","type":"uint32","internalType":"uint32"},{"name":"kindRev","type":"uint32","internalType":"uint32"},{"name":"setRev","type":"uint32","internalType":"uint32"},{"name":"kindId","type":"uint64","internalType":"uint64"},{"name":"setId","type":"uint64","internalType":"uint64"}]},{"name":"owner","type":"address","internalType":"address"}],"stateMutability":"view"},{"type":"function","name":"uniqueStatus","inputs":[{"name":"ids","type":"uint64[]","internalType":"uint64[]"}],"outputs":[{"name":"active","type":"bool","internalType":"bool"}],"stateMutability":"view"},{"type":"function","name":"uniqueTouch","inputs":[{"name":"id","type":"uint64","internalType":"uint64"}],"outputs":[{"name":"meta","type":"tuple","internalType":"struct Descriptor","components":[{"name":"traits","type":"uint32","internalType":"uint32"},{"name":"rev","type":"uint32","internalType":"uint32"},{"name":"kindRev","type":"uint32","internalType":"uint32"},{"name":"setRev","type":"uint32","internalType":"uint32"},{"name":"kindId","type":"uint64","internalType":"uint64"},{"name":"setId","type":"uint64","internalType":"uint64"}]}],"stateMutability":"nonpayable"},{"type":"function","name":"uniqueTransfer","inputs":[{"name":"id","type":"uint64","internalType":"uint64"},{"name":"to","type":"address","internalType":"address"}],"outputs":[{"name":"from","type":"address","internalType":"address"}],"stateMutability":"nonpayable"},{"type":"function","name":"uniqueUpdate","inputs":[{"name":"id","type":"uint64","internalType":"uint64"},{"name":"data","type":"bytes32","internalType":"bytes32"}],"outputs":[{"name":"meta","type":"tuple","internalType":"struct Descriptor","components":[{"name":"traits","type":"uint32","internalType":"uint32"},{"name":"rev","type":"uint32","internalType":"uint32"},{"name":"kindRev","type":"uint32","internalType":"uint32"},{"name":"setRev","type":"uint32","internalType":"uint32"},{"name":"kindId","type":"uint64","internalType":"uint64"},{"name":"setId","type":"uint64","internalType":"uint64"}]}],"stateMutability":"nonpayable"},{"type":"function","name":"uniqueUpdate","inputs":[{"name":"id","type":"uint64","internalType":"uint64"},{"name":"data","type":"bytes32","internalType":"bytes32"},{"name":"symbol","type":"string","internalType":"string"}],"outputs":[{"name":"meta","type":"tuple","internalType":"struct Descriptor","components":[{"name":"traits","type":"uint32","internalType":"uint32"},{"name":"rev","type":"uint32","internalType":"uint32"},{"name":"kindRev","type":"uint32","internalType":"uint32"},{"name":"setRev","type":"uint32","internalType":"uint32"},{"name":"kindId","type":"uint64","internalType":"uint64"},{"name":"setId","type":"uint64","internalType":"uint64"}]}],"stateMutability":"nonpayable"},{"type":"function","name":"uniqueUpgrade","inputs":[{"name":"id","type":"uint64","internalType":"uint64"},{"name":"kindRev0","type":"uint32","internalType":"uint32"},{"name":"setRev0","type":"uint32","internalType":"uint32"}],"outputs":[{"name":"meta","type":"tuple","internalType":"struct Descriptor","components":[{"name":"traits","type":"uint32","internalType":"uint32"},{"name":"rev","type":"uint32","internalType":"uint32"},{"name":"kindRev","type":"uint32","internalType":"uint32"},{"name":"setRev","type":"uint32","internalType":"uint32"},{"name":"kindId","type":"uint64","internalType":"uint64"},{"name":"setId","type":"uint64","internalType":"uint64"}]}],"stateMutability":"nonpayable"},{"type":"function","name":"upgradeToAndCall","inputs":[{"name":"newImplementation","type":"address","internalType":"address"},{"name":"data","type":"bytes","internalType":"bytes"}],"outputs":[],"stateMutability":"payable"},{"type":"function","name":"valueDescriptor","inputs":[{"name":"id","type":"uint64","internalType":"uint64"},{"name":"rev0","type":"uint32","internalType":"uint32"}],"outputs":[{"name":"desc","type":"tuple","internalType":"struct Descriptor","components":[{"name":"traits","type":"uint32","internalType":"uint32"},{"name":"rev","type":"uint32","internalType":"uint32"},{"name":"kindRev","type":"uint32","internalType":"uint32"},{"name":"setRev","type":"uint32","internalType":"uint32"},{"name":"kindId","type":"uint64","internalType":"uint64"},{"name":"setId","type":"uint64","internalType":"uint64"}]}],"stateMutability":"view"},{"type":"function","name":"valueOwner","inputs":[{"name":"id","type":"uint64","internalType":"uint64"}],"outputs":[{"name":"owner","type":"address","internalType":"address"}],"stateMutability":"view"},{"type":"function","name":"valueRegister","inputs":[{"name":"code","type":"address","internalType":"address"},{"name":"data","type":"bytes32","internalType":"bytes32"},{"name":"std","type":"uint8","internalType":"enum TokenStandard"},{"name":"decimals","type":"uint8","internalType":"uint8"},{"name":"symbol","type":"string","internalType":"string"}],"outputs":[{"name":"id","type":"uint64","internalType":"uint64"},{"name":"meta","type":"tuple","internalType":"struct Descriptor","components":[{"name":"traits","type":"uint32","internalType":"uint32"},{"name":"rev","type":"uint32","internalType":"uint32"},{"name":"kindRev","type":"uint32","internalType":"uint32"},{"name":"setRev","type":"uint32","internalType":"uint32"},{"name":"kindId","type":"uint64","internalType":"uint64"},{"name":"setId","type":"uint64","internalType":"uint64"}]}],"stateMutability":"nonpayable"},{"type":"function","name":"valueRevision","inputs":[{"name":"id","type":"uint64","internalType":"uint64"},{"name":"rev0","type":"uint32","internalType":"uint32"}],"outputs":[{"name":"rev","type":"uint32","internalType":"uint32"}],"stateMutability":"view"},{"type":"function","name":"valueSnapshot","inputs":[{"name":"id","type":"uint64","internalType":"uint64"},{"name":"rev0","type":"uint32","internalType":"uint32"}],"outputs":[{"name":"desc","type":"tuple","internalType":"struct Descriptor","components":[{"name":"traits","type":"uint32","internalType":"uint32"},{"name":"rev","type":"uint32","internalType":"uint32"},{"name":"kindRev","type":"uint32","internalType":"uint32"},{"name":"setRev","type":"uint32","internalType":"uint32"},{"name":"kindId","type":"uint64","internalType":"uint64"},{"name":"setId","type":"uint64","internalType":"uint64"}]},{"name":"elems","type":"bytes32[]","internalType":"bytes32[]"}],"stateMutability":"view"},{"type":"function","name":"valueSota","inputs":[{"name":"id","type":"uint64","internalType":"uint64"}],"outputs":[{"name":"desc","type":"tuple","internalType":"struct Descriptor","components":[{"name":"traits","type":"uint32","internalType":"uint32"},{"name":"rev","type":"uint32","internalType":"uint32"},{"name":"kindRev","type":"uint32","internalType":"uint32"},{"name":"setRev","type":"uint32","internalType":"uint32"},{"name":"kindId","type":"uint64","internalType":"uint64"},{"name":"setId","type":"uint64","internalType":"uint64"}]},{"name":"owner","type":"address","internalType":"address"}],"stateMutability":"view"},{"type":"function","name":"valueStatus","inputs":[{"name":"ids","type":"uint64[]","internalType":"uint64[]"}],"outputs":[{"name":"active","type":"bool","internalType":"bool"}],"stateMutability":"view"},{"type":"function","name":"valueTouch","inputs":[{"name":"id","type":"uint64","internalType":"uint64"}],"outputs":[{"name":"meta","type":"tuple","internalType":"struct Descriptor","components":[{"name":"traits","type":"uint32","internalType":"uint32"},{"name":"rev","type":"uint32","internalType":"uint32"},{"name":"kindRev","type":"uint32","internalType":"uint32"},{"name":"setRev","type":"uint32","internalType":"uint32"},{"name":"kindId","type":"uint64","internalType":"uint64"},{"name":"setId","type":"uint64","internalType":"uint64"}]}],"stateMutability":"nonpayable"},{"type":"function","name":"valueTransfer","inputs":[{"name":"id","type":"uint64","internalType":"uint64"},{"name":"to","type":"address","internalType":"address"}],"outputs":[{"name":"from","type":"address","internalType":"address"}],"stateMutability":"nonpayable"},{"type":"function","name":"valueUpdate","inputs":[{"name":"id","type":"uint64","internalType":"uint64"},{"name":"data","type":"bytes32","internalType":"bytes32"}],"outputs":[{"name":"meta","type":"tuple","internalType":"struct Descriptor","components":[{"name":"traits","type":"uint32","internalType":"uint32"},{"name":"rev","type":"uint32","internalType":"uint32"},{"name":"kindRev","type":"uint32","internalType":"uint32"},{"name":"setRev","type":"uint32","internalType":"uint32"},{"name":"kindId","type":"uint64","internalType":"uint64"},{"name":"setId","type":"uint64","internalType":"uint64"}]}],"stateMutability":"nonpayable"},{"type":"function","name":"valueUpdate","inputs":[{"name":"id","type":"uint64","internalType":"uint64"},{"name":"data","type":"bytes32","internalType":"bytes32"},{"name":"symbol","type":"string","internalType":"string"}],"outputs":[{"name":"meta","type":"tuple","internalType":"struct Descriptor","components":[{"name":"traits","type":"uint32","internalType":"uint32"},{"name":"rev","type":"uint32","internalType":"uint32"},{"name":"kindRev","type":"uint32","internalType":"uint32"},{"name":"setRev","type":"uint32","internalType":"uint32"},{"name":"kindId","type":"uint64","internalType":"uint64"},{"name":"setId","type":"uint64","internalType":"uint64"}]}],"stateMutability":"nonpayable"},{"type":"function","name":"valueUpgrade","inputs":[{"name":"id","type":"uint64","internalType":"uint64"},{"name":"kindRev0","type":"uint32","internalType":"uint32"},{"name":"setRev0","type":"uint32","internalType":"uint32"}],"outputs":[{"name":"meta","type":"tuple","internalType":"struct Descriptor","components":[{"name":"traits","type":"uint32","internalType":"uint32"},{"name":"rev","type":"uint32","internalType":"uint32"},{"name":"kindRev","type":"uint32","internalType":"uint32"},{"name":"setRev","type":"uint32","internalType":"uint32"},{"name":"kindId","type":"uint64","internalType":"uint64"},{"name":"setId","type":"uint64","internalType":"uint64"}]}],"stateMutability":"nonpayable"},{"type":"event","name":"Initialized","inputs":[{"name":"version","type":"uint64","indexed":false,"internalType":"uint64"}],"anonymous":false},{"type":"event","name":"OwnershipTransferred","inputs":[{"name":"previousOwner","type":"address","indexed":true,"internalType":"address"},{"name":"newOwner","type":"address","indexed":true,"internalType":"address"}],"anonymous":false},{"type":"event","name":"UniqueRegistered","inputs":[{"name":"id","type":"uint64","indexed":false,"internalType":"uint64"},{"name":"desc","type":"tuple","indexed":false,"internalType":"struct Descriptor","components":[{"name":"traits","type":"uint32","internalType":"uint32"},{"name":"rev","type":"uint32","internalType":"uint32"},{"name":"kindRev","type":"uint32","internalType":"uint32"},{"name":"setRev","type":"uint32","internalType":"uint32"},{"name":"kindId","type":"uint64","internalType":"uint64"},{"name":"setId","type":"uint64","internalType":"uint64"}]},{"name":"code","type":"address","indexed":false,"internalType":"address"},{"name":"data","type":"bytes32","indexed":false,"internalType":"bytes32"},{"name":"spec","type":"tuple","indexed":false,"internalType":"struct TokenSpec","components":[{"name":"std","type":"uint8","internalType":"enum TokenStandard"},{"name":"decimals","type":"uint8","internalType":"uint8"},{"name":"symbol","type":"bytes30","internalType":"bytes30"}]},{"name":"owner","type":"address","indexed":false,"internalType":"address"}],"anonymous":false},{"type":"event","name":"UniqueTouched","inputs":[{"name":"id","type":"uint64","indexed":false,"internalType":"uint64"},{"name":"desc","type":"tuple","indexed":false,"internalType":"struct Descriptor","components":[{"name":"traits","type":"uint32","internalType":"uint32"},{"name":"rev","type":"uint32","internalType":"uint32"},{"name":"kindRev","type":"uint32","internalType":"uint32"},{"name":"setRev","type":"uint32","internalType":"uint32"},{"name":"kindId","type":"uint64","internalType":"uint64"},{"name":"setId","type":"uint64","internalType":"uint64"}]}],"anonymous":false},{"type":"event","name":"UniqueTransferred","inputs":[{"name":"id","type":"uint64","indexed":false,"internalType":"uint64"},{"name":"from","type":"address","indexed":false,"internalType":"address"},{"name":"to","type":"address","indexed":false,"internalType":"address"}],"anonymous":false},{"type":"event","name":"UniqueUpdated","inputs":[{"name":"id","type":"uint64","indexed":false,"internalType":"uint64"},{"name":"desc","type":"tuple","indexed":false,"internalType":"struct Descriptor","components":[{"name":"traits","type":"uint32","internalType":"uint32"},{"name":"rev","type":"uint32","internalType":"uint32"},{"name":"kindRev","type":"uint32","internalType":"uint32"},{"name":"setRev","type":"uint32","internalType":"uint32"},{"name":"kindId","type":"uint64","internalType":"uint64"},{"name":"setId","type":"uint64","internalType":"uint64"}]},{"name":"data","type":"bytes32","indexed":false,"internalType":"bytes32"},{"name":"spec","type":"tuple","indexed":false,"internalType":"struct TokenSpec","components":[{"name":"std","type":"uint8","internalType":"enum TokenStandard"},{"name":"decimals","type":"uint8","internalType":"uint8"},{"name":"symbol","type":"bytes30","internalType":"bytes30"}]}],"anonymous":false},{"type":"event","name":"UniqueUpgraded","inputs":[{"name":"id","type":"uint64","indexed":false,"internalType":"uint64"},{"name":"desc","type":"tuple","indexed":false,"internalType":"struct Descriptor","components":[{"name":"traits","type":"uint32","internalType":"uint32"},{"name":"rev","type":"uint32","internalType":"uint32"},{"name":"kindRev","type":"uint32","internalType":"uint32"},{"name":"setRev","type":"uint32","internalType":"uint32"},{"name":"kindId","type":"uint64","internalType":"uint64"},{"name":"setId","type":"uint64","internalType":"uint64"}]}],"anonymous":false},{"type":"event","name":"Upgraded","inputs":[{"name":"implementation","type":"address","indexed":true,"internalType":"address"}],"anonymous":false},{"type":"event","name":"ValueRegistered","inputs":[{"name":"id","type":"uint64","indexed":false,"internalType":"uint64"},{"name":"desc","type":"tuple","indexed":false,"internalType":"struct Descriptor","components":[{"name":"traits","type":"uint32","internalType":"uint32"},{"name":"rev","type":"uint32","internalType":"uint32"},{"name":"kindRev","type":"uint32","internalType":"uint32"},{"name":"setRev","type":"uint32","internalType":"uint32"},{"name":"kindId","type":"uint64","internalType":"uint64"},{"name":"setId","type":"uint64","internalType":"uint64"}]},{"name":"code","type":"address","indexed":false,"internalType":"address"},{"name":"data","type":"bytes32","indexed":false,"internalType":"bytes32"},{"name":"spec","type":"tuple","indexed":false,"internalType":"struct TokenSpec","components":[{"name":"std","type":"uint8","internalType":"enum TokenStandard"},{"name":"decimals","type":"uint8","internalType":"uint8"},{"name":"symbol","type":"bytes30","internalType":"bytes30"}]},{"name":"owner","type":"address","indexed":false,"internalType":"address"}],"anonymous":false},{"type":"event","name":"ValueTouched","inputs":[{"name":"id","type":"uint64","indexed":false,"internalType":"uint64"},{"name":"desc","type":"tuple","indexed":false,"internalType":"struct Descriptor","components":[{"name":"traits","type":"uint32","internalType":"uint32"},{"name":"rev","type":"uint32","internalType":"uint32"},{"name":"kindRev","type":"uint32","internalType":"uint32"},{"name":"setRev","type":"uint32","internalType":"uint32"},{"name":"kindId","type":"uint64","internalType":"uint64"},{"name":"setId","type":"uint64","internalType":"uint64"}]}],"anonymous":false},{"type":"event","name":"ValueTransferred","inputs":[{"name":"id","type":"uint64","indexed":false,"internalType":"uint64"},{"name":"from","type":"address","indexed":false,"internalType":"address"},{"name":"to","type":"address","indexed":false,"internalType":"address"}],"anonymous":false},{"type":"event","name":"ValueUpdated","inputs":[{"name":"id","type":"uint64","indexed":false,"internalType":"uint64"},{"name":"desc","type":"tuple","indexed":false,"internalType":"struct Descriptor","components":[{"name":"traits","type":"uint32","internalType":"uint32"},{"name":"rev","type":"uint32","internalType":"uint32"},{"name":"kindRev","type":"uint32","internalType":"uint32"},{"name":"setRev","type":"uint32","internalType":"uint32"},{"name":"kindId","type":"uint64","internalType":"uint64"},{"name":"setId","type":"uint64","internalType":"uint64"}]},{"name":"data","type":"bytes32","indexed":false,"internalType":"bytes32"},{"name":"spec","type":"tuple","indexed":false,"internalType":"struct TokenSpec","components":[{"name":"std","type":"uint8","internalType":"enum TokenStandard"},{"name":"decimals","type":"uint8","internalType":"uint8"},{"name":"symbol","type":"bytes30","internalType":"bytes30"}]}],"anonymous":false},{"type":"event","name":"ValueUpgraded","inputs":[{"name":"id","type":"uint64","indexed":false,"internalType":"uint64"},{"name":"desc","type":"tuple","indexed":false,"internalType":"struct Descriptor","components":[{"name":"traits","type":"uint32","internalType":"uint32"},{"name":"rev","type":"uint32","internalType":"uint32"},{"name":"kindRev","type":"uint32","internalType":"uint32"},{"name":"setRev","type":"uint32","internalType":"uint32"},{"name":"kindId","type":"uint64","internalType":"uint64"},{"name":"setId","type":"uint64","internalType":"uint64"}]}],"anonymous":false},{"type":"error","name":"AddressEmptyCode","inputs":[{"name":"target","type":"address","internalType":"address"}]},{"type":"error","name":"ERC1967InvalidImplementation","inputs":[{"name":"implementation","type":"address","internalType":"address"}]},{"type":"error","name":"ERC1967NonPayable","inputs":[]},{"type":"error","name":"FailedCall","inputs":[]},{"type":"error","name":"InvalidInitial","inputs":[]},{"type":"error","name":"InvalidInitialization","inputs":[]},{"type":"error","name":"InvalidTokenAddress","inputs":[]},{"type":"error","name":"InvalidTokenContract","inputs":[{"name":"addr","type":"address","internalType":"address"}]},{"type":"error","name":"InvalidTokenData","inputs":[]},{"type":"error","name":"InvalidTokenRange","inputs":[{"name":"begin","type":"uint64","internalType":"uint64"},{"name":"end","type":"uint64","internalType":"uint64"}]},{"type":"error","name":"NotInitializing","inputs":[]},{"type":"error","name":"Overflow","inputs":[]},{"type":"error","name":"OwnableInvalidOwner","inputs":[{"name":"owner","type":"address","internalType":"address"}]},{"type":"error","name":"OwnableUnauthorizedAccount","inputs":[{"name":"account","type":"address","internalType":"address"}]},{"type":"error","name":"TokenNotExist","inputs":[{"name":"token","type":"uint64","internalType":"uint64"}]},{"type":"error","name":"UUPSUnauthorizedCallContext","inputs":[]},{"type":"error","name":"UUPSUnsupportedProxiableUUID","inputs":[{"name":"slot","type":"bytes32","internalType":"bytes32"}]},{"type":"error","name":"UnsupportedTokenStandard","inputs":[{"name":"std","type":"uint8","internalType":"uint8"}]}],"bytecode":{"object":"0x60a0806040523460295730608052612b50908161002e8239608051818181610bea0152610e2e0152f35b5f80fdfe60806040526004361015610011575f80fd5b5f3560e01c80630b321d861461024f5780630d21b8871461024a5780631587f444146102455780631c91d26e146102405780632c636a111461023b5780633488c7a4146102365780634825a5a5146102315780634b76d3091461022c5780634f1ef2861461022757806350277e2614610222578063527f3e1f1461021d57806352d1902d146102185780635cf7e8301461021357806369f3c5201461020e57806370a38c8414610209578063715018a61461020457806385becce4146101ff5780638accf316146101fa5780638c3d3e1a146101c35780638da5cb5b146101f5578063ab1151c1146101f0578063ac8b956b146101eb578063ad3cb1cc146101e6578063b19c3791146101e1578063b66f16a4146101dc578063b824f439146101d7578063cda493c8146101d2578063d4659a12146101cd578063d4abef91146101c8578063d5e3b000146101c3578063e1147495146101be578063e6cc3bcb146101b9578063ef8ac57a146101b4578063f1e3d37d146101af578063f2fde38b146101aa5763f47d74e7146101a5575f80fd5b611a3d565b611a10565b6119aa565b6118cb565b61189c565b611808565b611334565b611769565b6116d3565b6116b6565b611621565b61158b565b611544565b6114e6565b6114b2565b6113e1565b61138b565b6111a4565b611146565b6110df565b61102b565b610f20565b610e73565b610e1c565b610de8565b610d25565b610b97565b6109f1565b61088f565b6107e1565b61079a565b610711565b6105d5565b6104c8565b61030b565b6001600160401b0381160361026557565b5f80fd5b63ffffffff81160361026557565b60409060031901126102655760043561028f81610254565b9060243561029c81610269565b90565b6001600160401b0360a0809263ffffffff815116855263ffffffff602082015116602086015263ffffffff604082015116604086015263ffffffff6060820151166060860152826080820151166080860152015116910152565b60c081019291610309919061029f565b565b346102655761034360c061031e36610277565b90610327611ad3565b50604051632866ef3160e21b8152938492839260048401611ba6565b038173__$bfd2951eaa3e5aabb9283af4830755d90c$__5af49081156103b1575f91610382575b50604051809161037e8260c081019261029f565b0390f35b6103a4915060c03d60c0116103aa575b61039c81836103ea565b810190611b92565b5f61036a565b503d610392565b611c0c565b634e487b7160e01b5f52604160045260245ffd5b60c081019081106001600160401b038211176103e557604052565b6103b6565b90601f801991011681019081106001600160401b038211176103e557604052565b604051906103096060836103ea565b6040519061030960c0836103ea565b6001600160401b0381116103e55760051b60200190565b602060031982011261026557600435906001600160401b038211610265578060238301121561026557816004013561047781610429565b9261048560405194856103ea565b8184526024602085019260051b82010192831161026557602401905b8282106104ae5750505090565b6020809183356104bd81610254565b8152019101906104a1565b34610265576104d636610440565b6040518091631cff580560e11b8252600482016020606060408301925f516020612a9b5f395f51905f5281526040838201528451809452019201905f5b81811061058157846020818087038173__$bfd2951eaa3e5aabb9283af4830755d90c$__5af480156103b1576020915f91610554575b506040519015158152f35b6105749150823d841161057a575b61056c81836103ea565b810190611c17565b82610549565b503d610562565b82516001600160401b0316845285945060209384019390920191600101610513565b6060906003190112610265576004356105bb81610254565b906024356105c881610269565b9060443561029c81610269565b346102655763ffffffff60c06105ea366105a3565b9093916105f5611ad3565b5060405163d995904360e01b81525f516020612afb5f395f51905f5260048201526001600160401b039190911660248201529382166044850152166064830152600360848301528160a48173__$bfd2951eaa3e5aabb9283af4830755d90c$__5af480156103b15761037e915f91610675575b50604051918291826102f9565b61068e915060c03d60c0116103aa5761039c81836103ea565b5f610668565b6001600160a01b0381160361026557565b6001600160401b0381116103e557601f01601f191660200190565b9291926106cc826106a5565b916106da60405193846103ea565b829481845281830111610265578281602093845f960137010152565b9080601f830112156102655781602061029c933591016106c0565b346102655760e03660031901126102655760043561072e81610694565b6024359061073b82610694565b60443561074781610694565b60643561075381610694565b6084359060a4359260ff841684036102655760c435956001600160401b0387116102655761078861078e9736906004016106f6565b95611c2f565b005b5f91031261026557565b34610265575f366003190112610265577f389a4784c2c3e8284bc1418c5b9cf4b556f52088a652459a6e23aae4f7902701546040516001600160a01b039091168152602090f35b346102655761034360c06107f436610277565b906107fd611ad3565b50604051632866ef3160e21b8152938492839260048401611bd9565b60a06003198201126102655760043561083181610694565b91602435916044356005811015610265579160643560ff811681036102655791608435906001600160401b0382116102655761029c916004016106f6565b9160206103099294936001600160401b0360e0820196168152019061029f565b346102655761089d36610819565b9290936108a8611ad3565b506001600160a01b038116156109e25781156109d357803b156109b8576108ce83611ea4565b6003831415806109a4575b61097f579061096d7fcc5a755d33add6946234329c3255cdf23f0a595ea2b54ea5272cc6b693aed090939261095d602061091f6109146121e4565b65ffffffffffff1690565b97015161095161093433838c8a8a898f61237e565b9961094761094061040b565b9889611ec2565b60ff166020880152565b61ffff19166040860152565b6040519384933392898987611efa565b0390a161037e6040519283928361086f565b6109a18361098c81611ea4565b63069d934d60e41b5f5260ff16600452602490565b5ffd5b506109ae83611ea4565b60048314156108d9565b63265b0f7b60e01b5f526001600160a01b031660045260245ffd5b63afb5d0c360e01b5f5260045ffd5b630f58058360e11b5f5260045ffd5b3461026557604036600319011261026557600435610a0e81610254565b602435610a19611ad3565b5080156109d35760405163340100c160e01b81525f516020612a9b5f395f51905f5260048201526001600160401b03831660248201525f604482018190526003606483015290929073__$bfd2951eaa3e5aabb9283af4830755d90c$__9084608481845af49384156103b157610ace9460c0915f91610b73575b5084610a9e82611fce565b52610ab1610aab82611ff2565b5161247f565b9260405180809881946314447f4f60e11b83528860048401612042565b03915af49283156103b15761037e945f94610b28575b5091610b1984927f3ab0a4ec720ea9b8f0270c45354236220228e86de5708aafb67606580529669f94604051948594856120a8565b0390a1604051918291826102f9565b7f3ab0a4ec720ea9b8f0270c45354236220228e86de5708aafb67606580529669f9391929450610b69610b199160c03d60c0116103aa5761039c81836103ea565b9492919350610ae4565b610b8f91503d805f833e610b8781836103ea565b810190611f45565b90505f610a93565b604036600319011261026557600435610baf81610694565b6024356001600160401b038111610265573660238201121561026557610bdf9036906024816004013591016106c0565b906001600160a01b037f000000000000000000000000000000000000000000000000000000000000000016308114908115610cde575b50610ccf57610c22612503565b6040516352d1902d60e01b8152916020836004816001600160a01b0386165afa5f9381610c9e575b50610c6b57634c9c8ce360e01b5f526001600160a01b03821660045260245ffd5b905f516020612a3b5f395f51905f528303610c8a5761078e925061281c565b632a87526960e21b5f52600483905260245ffd5b610cc191945060203d602011610cc8575b610cb981836103ea565b8101906124f4565b925f610c4a565b503d610caf565b63703e46dd60e11b5f5260045ffd5b5f516020612a3b5f395f51905f52546001600160a01b0316141590505f610c15565b604090600319011261026557600435610d1881610254565b9060243561029c81610694565b34610265576020610d3536610d00565b604051635640151160e11b81525f516020612a9b5f395f51905f526004808301919091526001600160401b03909316818501909301929092526001600160a01b03166044820152908160648173__$bfd2951eaa3e5aabb9283af4830755d90c$__5af480156103b1576020915f91610dbb575b506040516001600160a01b039091168152f35b610ddb9150823d8411610de1575b610dd381836103ea565b8101906120dd565b5f610da8565b503d610dc9565b34610265575f366003190112610265575f516020612adb5f395f51905f52546040516001600160a01b039091168152602090f35b34610265575f366003190112610265577f00000000000000000000000000000000000000000000000000000000000000006001600160a01b03163003610ccf5760206040515f516020612a3b5f395f51905f528152f35b3461026557610e8136610440565b6040518091631cff580560e11b8252600482016020606060408301925f516020612afb5f395f51905f5281526040838201528451809452019201905f5b818110610efe57846020818087038173__$bfd2951eaa3e5aabb9283af4830755d90c$__5af480156103b1576020915f9161055457506040519015158152f35b82516001600160401b0316845285945060209384019390920191600101610ebe565b3461026557602036600319011261026557610f7e6020600435610f4281610254565b604051639101c02760e01b81525f516020612afb5f395f51905f5260048201526001600160401b03909116602482015291829081906044820190565b038173__$bfd2951eaa3e5aabb9283af4830755d90c$__5af480156103b15761037e915f91610fc3575b506040516001600160a01b0390911681529081906020820190565b610fdc915060203d602011610de157610dd381836103ea565b5f610fa8565b610100602091610ff68160e081019561029f565b60e060c08201528451809452019201905f5b8181106110155750505090565b8251845260209384019390920191600101611008565b346102655763ffffffff61103e36610277565b611049929192611ad3565b506001600160401b036040519363340100c160e01b85525f516020612a9b5f395f51905f526004860152166024840152166044820152600360648201525f8160848173__$bfd2951eaa3e5aabb9283af4830755d90c$__5af49081156103b1575f905f926110c2575b5061037e60405192839283610fe2565b90506110d891503d805f833e610b8781836103ea565b905f6110b2565b34610265575f366003190112610265576110f7612503565b5f516020612a1b5f395f51905f5280546001600160a01b031981169091555f906001600160a01b03167f8be0079c531659141344cd1fd0a4f28419497f9722a3daafe3b4186f6b6457e08280a3005b3461026557602036600319011261026557610f7e602060043561116881610254565b604051639101c02760e01b81525f516020612a9b5f395f51905f5260048201526001600160401b03909116602482015291829081906044820190565b34610265576040366003190112610265576004356111c181610254565b6024356111cc611ad3565b5080156109d35760405163340100c160e01b81525f516020612afb5f395f51905f5260048201526001600160401b03831660248201525f604482018190526003606483015273__$bfd2951eaa3e5aabb9283af4830755d90c$__9391929083608481875af49283156103b1575f93611316575b508061124a84611fce565b5260c060405180956314447f4f60e11b8252818061126c888860048401612075565b03915af49283156103b15761037e945f946112c3575b5091610b1984926112b6610aab7f79132fd9cd0bb02beea1aae65ca4fa391d077a5c540ced2c83fc6b4b28b2b83b96611ff2565b90604051948594856120a8565b610aab94507f79132fd9cd0bb02beea1aae65ca4fa391d077a5c540ced2c83fc6b4b28b2b83b9391926112b661130a610b199360c03d60c0116103aa5761039c81836103ea565b96505092919350611282565b61132b9193503d805f833e610b8781836103ea565b9050915f61123f565b346102655760603660031901126102655760043561135181610254565b506044356001600160401b038111610265576113719036906004016106f6565b5060c061137c611ad3565b611389604051809261029f565bf35b34610265575f366003190112610265575f516020612a1b5f395f51905f52546040516001600160a01b039091168152602090f35b90929160c0906113d38360e081019661029f565b6001600160a01b0316910152565b346102655760203660031901126102655761144760e060043561140381610254565b61140b611ad3565b5060405163154c1b43831b81525f516020612a9b5f395f51905f5260048201526001600160401b03909116602482015291829081906044820190565b038173__$bfd2951eaa3e5aabb9283af4830755d90c$__5af49081156103b1575f905f92611480575b5061037e604051928392836113bf565b90506114a4915060e03d60e0116114ab575b61149c81836103ea565b8101906120f2565b905f611470565b503d611492565b34610265575f366003190112610265575f516020612a7b5f395f51905f52546040516001600160a01b039091168152602090f35b34610265575f36600319011261026557604080519061150581836103ea565b600582526020820191640352e302e360dc1b83528151928391602083525180918160208501528484015e5f828201840152601f01601f19168101030190f35b34610265575f366003190112610265577f389a4784c2c3e8284bc1418c5b9cf4b556f52088a652459a6e23aae4f7902703546040516001600160a01b039091168152602090f35b346102655763ffffffff61159e36610277565b6115a9929192611ad3565b506001600160401b036040519363340100c160e01b85525f516020612afb5f395f51905f526004860152166024840152166044820152600360648201525f8160848173__$bfd2951eaa3e5aabb9283af4830755d90c$__5af49081156103b1575f905f926110c2575061037e60405192839283610fe2565b3461026557602061163136610d00565b604051635640151160e11b81525f516020612afb5f395f51905f526004808301919091526001600160401b03909316818501909301929092526001600160a01b03166044820152908160648173__$bfd2951eaa3e5aabb9283af4830755d90c$__5af480156103b1576020915f91610dbb57506040516001600160a01b039091168152f35b34610265575f366003190112610265576020610100604051908152f35b34610265576020366003190112610265576004356116f081610254565b6116f8611ad3565b506001600160401b0360405191637ce36e2360e11b83525f516020612afb5f395f51905f5260048401521660248201526003604482015260c08160648173__$bfd2951eaa3e5aabb9283af4830755d90c$__5af480156103b15761037e915f916106755750604051918291826102f9565b346102655763ffffffff60c061177e366105a3565b909391611789611ad3565b5060405163d995904360e01b81525f516020612a9b5f395f51905f5260048201526001600160401b039190911660248201529382166044850152166064830152600360848301528160a48173__$bfd2951eaa3e5aabb9283af4830755d90c$__5af480156103b15761037e915f916106755750604051918291826102f9565b3461026557611837602061181b36610277565b60405163310ace3360e11b815293849283929060048401611ba6565b038173__$bfd2951eaa3e5aabb9283af4830755d90c$__5af480156103b1576020915f9161186f575b5063ffffffff60405191168152f35b61188f9150823d8411611895575b61188781836103ea565b810190612116565b5f611860565b503d61187d565b346102655761183760206118af36610277565b60405163310ace3360e11b815293849283929060048401611bd9565b34610265576118d936610819565b915f936118e4611ad3565b956001600160a01b038116156109e25781156109d357803b156109b85761190a83611ea4565b60028314801561199d5761191d84611ea4565b611931575b6040518061037e89898361086f565b7fdb11cec15983614a958b743765d13c79a7c8d15847f5f635ddab2dc688d91ceb949650611990919293955061095d61196b610914612261565b9661095160206119818a8c858b8b8a339561262e565b9a01519161094761094061040b565b0390a15f80808080611922565b6109a18461098c81611ea4565b346102655760203660031901126102655761144760e06004356119cc81610254565b6119d4611ad3565b5060405163154c1b43831b81525f516020612afb5f395f51905f5260048201526001600160401b03909116602482015291829081906044820190565b346102655760203660031901126102655761078e600435611a3081610694565b611a38612503565b61212b565b3461026557602036600319011261026557600435611a5a81610254565b611a62611ad3565b506001600160401b0360405191637ce36e2360e11b83525f516020612a9b5f395f51905f5260048401521660248201526003604482015260c08160648173__$bfd2951eaa3e5aabb9283af4830755d90c$__5af480156103b15761037e915f916106755750604051918291826102f9565b60405190611ae0826103ca565b5f60a0838281528260208201528260408201528260608201528260808201520152565b519061030982610254565b91908260c091031261026557604051611b26816103ca565b60a0611b8d8183958051611b3981610269565b85526020810151611b4981610269565b60208601526040810151611b5c81610269565b60408601526060810151611b6f81610269565b60608601526080810151611b8281610254565b608086015201611b03565b910152565b9060c0828203126102655761029c91611b0e565b5f516020612afb5f395f51905f5281526001600160401b03909116602082015263ffffffff909116604082015260600190565b5f516020612a9b5f395f51905f5281526001600160401b03909116602082015263ffffffff909116604082015260600190565b6040513d5f823e3d90fd5b90816020910312610265575180151581036102655790565b9492909593915f516020612abb5f395f51905f5254966001600160401b03611c6d611c6060ff8b60401c1615151590565b996001600160401b031690565b1680159081611d87575b6001149081611d7d575b159081611d74575b50611d6557611ccc9688611cc360016001600160401b03195f516020612abb5f395f51905f525416175f516020612abb5f395f51905f5255565b611d2b57611d8f565b611cd257565b611cfc60ff60401b195f516020612abb5f395f51905f5254165f516020612abb5f395f51905f5255565b604051600181527fc7f505b2f371ae2175ee4913f4499e1f2633a7b5936321eed1cdaeb6115181d290602090a1565b611d606801000000000000000060ff60401b195f516020612abb5f395f51905f525416175f516020612abb5f395f51905f5255565b611d8f565b63f92ee8a960e01b5f5260045ffd5b9050155f611c89565b303b159150611c81565b899150611c77565b90611dac611e9b979596949392611da461270d565b611a3861270d565b611db461270d565b611dbc61270d565b5f516020612a7b5f395f51905f5280546001600160a01b03199081166001600160a01b03938416179091557f389a4784c2c3e8284bc1418c5b9cf4b556f52088a652459a6e23aae4f790270180548216938316939093179092555f516020612adb5f395f51905f528054831693909116929092179091557f389a4784c2c3e8284bc1418c5b9cf4b556f52088a652459a6e23aae4f7902703805490911630179055611e6561270d565b611e94601165ffffffffffff195f516020612a5b5f395f51905f525416175f516020612a5b5f395f51905f5255565b3392612536565b5061030961219c565b60051115611eae57565b634e487b7160e01b5f52602160045260245ffd5b6005821015611eae5752565b8051906005821015611eae57604091835260ff60208201511660208401528161ffff1991015116910152565b94909695929361018094611f266113d3946001600160401b036101a08a019b168952602089019061029f565b6001600160a01b031660e0870152610100860152610120850190611ece565b919060e08382031261026557611f5b8184611b0e565b9260c0810151906001600160401b03821161026557019080601f83011215610265578151611f8881610429565b92611f9660405194856103ea565b81845260208085019260051b82010192831161026557602001905b828210611fbe5750505090565b8151815260209182019101611fb1565b805160011015611fde5760400190565b634e487b7160e01b5f52603260045260245ffd5b805160021015611fde5760600190565b805115611fde5760200190565b90602080835192838152019201905f5b81811061202c5750505090565b825184526020938401939092019160010161201f565b6060906001600160401b0361029c94935f516020612a9b5f395f51905f528352166020820152816040820152019061200f565b6060906001600160401b0361029c94935f516020612afb5f395f51905f528352166020820152816040820152019061200f565b610309936120d1610100939796946001600160401b03610160850199168452602084019061029f565b60e08201520190611ece565b90816020910312610265575161029c81610694565b919060e0838203126102655761210a60c09184611b0e565b92015161029c81610694565b90816020910312610265575161029c81610269565b6001600160a01b03168015612189575f516020612a1b5f395f51905f5280546001600160a01b0319811683179091556001600160a01b03167f8be0079c531659141344cd1fd0a4f28419497f9722a3daafe3b4186f6b6457e05f80a3565b631e4fbdf760e01b5f525f60045260245ffd5b6121a461270d565b601165ffffffffffff195f5160206129fb5f395f51905f525416175f5160206129fb5f395f51905f5255565b634e487b7160e01b5f52601160045260245ffd5b65ffffffffffff5f5160206129fb5f395f51905f52541665fffffffffffe8110156122525765ffffffffffff811461224d5765ffffffffffff600182011665ffffffffffff195f5160206129fb5f395f51905f525416175f5160206129fb5f395f51905f525590565b6121d0565b631a93c68960e11b5f5260045ffd5b65ffffffffffff5f516020612a5b5f395f51905f52541665fffffffffffe8110156122525765ffffffffffff811461224d5765ffffffffffff600182011665ffffffffffff195f516020612a5b5f395f51905f525416175f516020612a5b5f395f51905f525590565b604051608091906122db83826103ea565b6003815291601f1901366020840137565b92612323610120936001600160401b03612337949897985f516020612a9b5f395f51905f528852166020870152604086019061029f565b61014061010085015261014084019061200f565b6001600160a01b03909416910152565b92612323610120936001600160401b03612337949897985f516020612afb5f395f51905f528852166020870152604086019061029f565b9394612411919392979695612391611ad3565b5061239a612738565b936123d66123a66127a1565b6123c96123b161041a565b5f8152600160208201529763ffffffff166040890152565b63ffffffff166060870152565b60056080860152600560a086015284996123ee6122ca565b966001600160a01b031661240188612002565b5261240b87611fce565b526127f1565b61241a83611ff2565b5273__$bfd2951eaa3e5aabb9283af4830755d90c$__90813b15610265575f9361245a60405196879586948594634881a43960e01b8652600486016122ec565b03915af480156103b15761246b5750565b806124795f610309936103ea565b80610790565b604051606081018181106001600160401b038211176103e5575f91604091825282815282602082015201528060f81c906005821015611eae5761029c906124e86124cc8260f01c60ff1690565b6124de6124d761040b565b9586611ec2565b60ff166020850152565b61ffff19166040830152565b90816020910312610265575190565b5f516020612a1b5f395f51905f52546001600160a01b0316330361252357565b63118cdaa760e01b5f523360045260245ffd5b906125c290939293612546611ad3565b5060206125516128be565b9561258c61255d61290d565b61257f61256861041a565b5f81526001868201529963ffffffff1660408b0152565b63ffffffff166060890152565b60046080880152600460a08801526125a26122ca565b945f6125ad87612002565b526125b786611fce565b5201519060016127f1565b6125cb82611ff2565b5273__$bfd2951eaa3e5aabb9283af4830755d90c$__91823b1561026557604051634881a43960e01b8152925f9284928391829161260e91898860048601612347565b03915af480156103b157612620575090565b806124795f61029c936103ea565b936020604097966126c494959395612644611ad3565b506126886126506128be565b61267b61265b61290d565b9161266461041a565b5f81526001888201529d8e019063ffffffff169052565b63ffffffff1660608c0152565b600460808b0152600460a08b015261269e6122ca565b966001600160a01b03166126b188612002565b526126bb87611fce565b520151916127f1565b6126cd82611ff2565b5273__$bfd2951eaa3e5aabb9283af4830755d90c$__803b1561026557845f9361260e60405196879586948594634881a43960e01b865260048601612347565b60ff5f516020612abb5f395f51905f525460401c161561272957565b631afcd79f60e31b5f5260045ffd5b5f516020612adb5f395f51905f5254604051638399ebdd60e01b8152600560048201525f602482015290602090829060449082906001600160a01b03165afa9081156103b1575f91612788575090565b61029c915060203d6020116118955761188781836103ea565b5f516020612a7b5f395f51905f525460405163386956c760e01b8152600560048201525f602482015290602090829060449082906001600160a01b03165afa9081156103b1575f91612788575090565b90916005821015611eae5761ffff19169160ff60f01b9060f01b169060ff60f81b9060f81b16171790565b90813b1561289d575f516020612a3b5f395f51905f5280546001600160a01b0319166001600160a01b0384169081179091557fbc7cd75a20ee27fd9adebab32041f755214dbc6bffa90cc0225b39da2e5c2d3b5f80a2805115612885576128829161295c565b50565b50503461288e57565b63b398979f60e01b5f5260045ffd5b50634c9c8ce360e01b5f9081526001600160a01b0391909116600452602490fd5b5f516020612adb5f395f51905f5254604051638399ebdd60e01b81526004808201525f602482015290602090829060449082906001600160a01b03165afa9081156103b1575f91612788575090565b5f516020612a7b5f395f51905f525460405163386956c760e01b81526004808201525f602482015290602090829060449082906001600160a01b03165afa9081156103b1575f91612788575090565b5f8061029c93602081519101845af43d15612998573d9161297c836106a5565b9261298a60405194856103ea565b83523d5f602085013e61299c565b6060915b906129c057508051156129b157805190602001fd5b63d6bda27560e01b5f5260045ffd5b815115806129f1575b6129d1575090565b639996b31560e01b5f9081526001600160a01b0391909116600452602490fd5b50803b156129c956fe04dc4921879709492146fc19ec213a3e22c8a01b900b814a9bdf73ef2a8479009016d09d72d40fdae2fd8ceac6b6234c7706214fd39c1cd1e609a0528c199300360894a13ba1a3210667c828492db98dca3e2076cc3735a920a3ca505d382bbc7e2fb0066d5c30a775c561af98650c8a5856bdd87a1fa6e7b509179e09d6c200389a4784c2c3e8284bc1418c5b9cf4b556f52088a652459a6e23aae4f790270004dc4921879709492146fc19ec213a3e22c8a01b900b814a9bdf73ef2a847901f0c57e16840df040f15088dc2f81fe391c3923bec73e23a9662efc9c229c6a00389a4784c2c3e8284bc1418c5b9cf4b556f52088a652459a6e23aae4f79027027e2fb0066d5c30a775c561af98650c8a5856bdd87a1fa6e7b509179e09d6c201a264697066735822122025a6bf6eeefcdd01b928164474b49d95699654bca33e5dcaf4ed1a530667d9eb64736f6c634300081c0033","linkReferences":{"contracts/libraries/Snapshots.sol":{"Snapshots":[{"start":885,"length":20},{"start":1362,"length":20},{"start":1648,"length":20},{"start":2705,"length":20},{"start":3505,"length":20},{"start":3837,"length":20},{"start":4016,"length":20},{"start":4283,"length":20},{"start":4673,"length":20},{"start":5241,"length":20},{"start":5659,"length":20},{"start":5805,"length":20},{"start":5989,"length":20},{"start":6148,"length":20},{"start":6249,"length":20},{"start":6863,"length":20},{"start":9291,"length":20},{"start":9724,"length":20},{"start":9982,"length":20}]}}},"methodIdentifiers":{"UPGRADE_INTERFACE_VERSION()":"ad3cb1cc","elementRegistry()":"b19c3791","initialize(address,address,address,address,bytes32,uint8,string)":"1c91d26e","kindRegistry()":"527f3e1f","omniRegistry()":"2c636a11","owner()":"8da5cb5b","proxiableUUID()":"52d1902d","renounceOwnership()":"715018a6","semver()":"cda493c8","setRegistry()":"ac8b956b","transferOwnership(address)":"f2fde38b","uniqueDescriptor(uint64,uint32)":"3488c7a4","uniqueOwner(uint64)":"85becce4","uniqueRegister(address,bytes32,uint8,uint8,string)":"4825a5a5","uniqueRevision(uint64,uint32)":"e6cc3bcb","uniqueSnapshot(uint64,uint32)":"70a38c84","uniqueSota(uint64)":"ab1151c1","uniqueStatus(uint64[])":"0d21b887","uniqueTouch(uint64)":"f47d74e7","uniqueTransfer(uint64,address)":"50277e26","uniqueUpdate(uint64,bytes32)":"4b76d309","uniqueUpdate(uint64,bytes32,string)":"d5e3b000","uniqueUpgrade(uint64,uint32,uint32)":"d4abef91","upgradeToAndCall(address,bytes)":"4f1ef286","valueDescriptor(uint64,uint32)":"0b321d86","valueOwner(uint64)":"69f3c520","valueRegister(address,bytes32,uint8,uint8,string)":"ef8ac57a","valueRevision(uint64,uint32)":"e1147495","valueSnapshot(uint64,uint32)":"b66f16a4","valueSota(uint64)":"f1e3d37d","valueStatus(uint64[])":"5cf7e830","valueTouch(uint64)":"d4659a12","valueTransfer(uint64,address)":"b824f439","valueUpdate(uint64,bytes32)":"8accf316","valueUpdate(uint64,bytes32,string)":"8c3d3e1a","valueUpgrade(uint64,uint32,uint32)":"1587f444"},"id":0}