{"abi":[{"type":"function","name":"UPGRADE_INTERFACE_VERSION","inputs":[],"outputs":[{"name":"","type":"string","internalType":"string"}],"stateMutability":"view"},{"type":"function","name":"elementRegistry","inputs":[],"outputs":[{"name":"","type":"address","internalType":"address"}],"stateMutability":"view"},{"type":"function","name":"initialize","inputs":[{"name":"owner","type":"address","internalType":"address"},{"name":"setr","type":"address","internalType":"address"},{"name":"omnir","type":"address","internalType":"address"},{"name":"elemr","type":"address","internalType":"address"}],"outputs":[],"stateMutability":"nonpayable"},{"type":"function","name":"kindAdmit","inputs":[{"name":"id","type":"uint64","internalType":"uint64"},{"name":"rev","type":"uint32","internalType":"uint32"},{"name":"rel","type":"uint64","internalType":"uint64"}],"outputs":[{"name":"admit","type":"bool","internalType":"bool"},{"name":"relRev","type":"uint32","internalType":"uint32"}],"stateMutability":"view"},{"type":"function","name":"kindDescriptor","inputs":[{"name":"id","type":"uint64","internalType":"uint64"},{"name":"rev0","type":"uint32","internalType":"uint32"}],"outputs":[{"name":"desc","type":"tuple","internalType":"struct Descriptor","components":[{"name":"traits","type":"uint32","internalType":"uint32"},{"name":"rev","type":"uint32","internalType":"uint32"},{"name":"kindRev","type":"uint32","internalType":"uint32"},{"name":"setRev","type":"uint32","internalType":"uint32"},{"name":"kindId","type":"uint64","internalType":"uint64"},{"name":"setId","type":"uint64","internalType":"uint64"}]}],"stateMutability":"view"},{"type":"function","name":"kindOwner","inputs":[{"name":"id","type":"uint64","internalType":"uint64"}],"outputs":[{"name":"owner","type":"address","internalType":"address"}],"stateMutability":"view"},{"type":"function","name":"kindRegister","inputs":[{"name":"code","type":"bytes32","internalType":"bytes32"},{"name":"data","type":"bytes32","internalType":"bytes32"},{"name":"elemSpec","type":"uint8[]","internalType":"enum ElementType[]"},{"name":"rels","type":"uint64[]","internalType":"uint64[]"}],"outputs":[{"name":"id","type":"uint64","internalType":"uint64"},{"name":"desc","type":"tuple","internalType":"struct Descriptor","components":[{"name":"traits","type":"uint32","internalType":"uint32"},{"name":"rev","type":"uint32","internalType":"uint32"},{"name":"kindRev","type":"uint32","internalType":"uint32"},{"name":"setRev","type":"uint32","internalType":"uint32"},{"name":"kindId","type":"uint64","internalType":"uint64"},{"name":"setId","type":"uint64","internalType":"uint64"}]}],"stateMutability":"nonpayable"},{"type":"function","name":"kindRegistry","inputs":[],"outputs":[{"name":"","type":"address","internalType":"address"}],"stateMutability":"view"},{"type":"function","name":"kindRevision","inputs":[{"name":"id","type":"uint64","internalType":"uint64"},{"name":"rev0","type":"uint32","internalType":"uint32"}],"outputs":[{"name":"rev","type":"uint32","internalType":"uint32"}],"stateMutability":"view"},{"type":"function","name":"kindSnapshot","inputs":[{"name":"id","type":"uint64","internalType":"uint64"},{"name":"rev0","type":"uint32","internalType":"uint32"}],"outputs":[{"name":"desc","type":"tuple","internalType":"struct Descriptor","components":[{"name":"traits","type":"uint32","internalType":"uint32"},{"name":"rev","type":"uint32","internalType":"uint32"},{"name":"kindRev","type":"uint32","internalType":"uint32"},{"name":"setRev","type":"uint32","internalType":"uint32"},{"name":"kindId","type":"uint64","internalType":"uint64"},{"name":"setId","type":"uint64","internalType":"uint64"}]},{"name":"elems","type":"bytes32[]","internalType":"bytes32[]"}],"stateMutability":"view"},{"type":"function","name":"kindSota","inputs":[{"name":"id","type":"uint64","internalType":"uint64"}],"outputs":[{"name":"desc","type":"tuple","internalType":"struct Descriptor","components":[{"name":"traits","type":"uint32","internalType":"uint32"},{"name":"rev","type":"uint32","internalType":"uint32"},{"name":"kindRev","type":"uint32","internalType":"uint32"},{"name":"setRev","type":"uint32","internalType":"uint32"},{"name":"kindId","type":"uint64","internalType":"uint64"},{"name":"setId","type":"uint64","internalType":"uint64"}]},{"name":"owner","type":"address","internalType":"address"}],"stateMutability":"view"},{"type":"function","name":"kindStatus","inputs":[{"name":"ids","type":"uint64[]","internalType":"uint64[]"}],"outputs":[{"name":"active","type":"bool","internalType":"bool"}],"stateMutability":"view"},{"type":"function","name":"kindTouch","inputs":[{"name":"id","type":"uint64","internalType":"uint64"}],"outputs":[{"name":"desc","type":"tuple","internalType":"struct Descriptor","components":[{"name":"traits","type":"uint32","internalType":"uint32"},{"name":"rev","type":"uint32","internalType":"uint32"},{"name":"kindRev","type":"uint32","internalType":"uint32"},{"name":"setRev","type":"uint32","internalType":"uint32"},{"name":"kindId","type":"uint64","internalType":"uint64"},{"name":"setId","type":"uint64","internalType":"uint64"}]}],"stateMutability":"nonpayable"},{"type":"function","name":"kindTransfer","inputs":[{"name":"id","type":"uint64","internalType":"uint64"},{"name":"to","type":"address","internalType":"address"}],"outputs":[{"name":"from","type":"address","internalType":"address"}],"stateMutability":"nonpayable"},{"type":"function","name":"kindUpdate","inputs":[{"name":"id","type":"uint64","internalType":"uint64"},{"name":"code","type":"bytes32","internalType":"bytes32"},{"name":"data","type":"bytes32","internalType":"bytes32"},{"name":"rels","type":"uint64[]","internalType":"uint64[]"}],"outputs":[{"name":"desc","type":"tuple","internalType":"struct Descriptor","components":[{"name":"traits","type":"uint32","internalType":"uint32"},{"name":"rev","type":"uint32","internalType":"uint32"},{"name":"kindRev","type":"uint32","internalType":"uint32"},{"name":"setRev","type":"uint32","internalType":"uint32"},{"name":"kindId","type":"uint64","internalType":"uint64"},{"name":"setId","type":"uint64","internalType":"uint64"}]}],"stateMutability":"nonpayable"},{"type":"function","name":"kindUpdate","inputs":[{"name":"id","type":"uint64","internalType":"uint64"},{"name":"code","type":"bytes32","internalType":"bytes32"},{"name":"data","type":"bytes32","internalType":"bytes32"}],"outputs":[{"name":"desc","type":"tuple","internalType":"struct Descriptor","components":[{"name":"traits","type":"uint32","internalType":"uint32"},{"name":"rev","type":"uint32","internalType":"uint32"},{"name":"kindRev","type":"uint32","internalType":"uint32"},{"name":"setRev","type":"uint32","internalType":"uint32"},{"name":"kindId","type":"uint64","internalType":"uint64"},{"name":"setId","type":"uint64","internalType":"uint64"}]}],"stateMutability":"nonpayable"},{"type":"function","name":"kindUpdate","inputs":[{"name":"id","type":"uint64","internalType":"uint64"},{"name":"rels","type":"uint64[]","internalType":"uint64[]"}],"outputs":[{"name":"desc","type":"tuple","internalType":"struct Descriptor","components":[{"name":"traits","type":"uint32","internalType":"uint32"},{"name":"rev","type":"uint32","internalType":"uint32"},{"name":"kindRev","type":"uint32","internalType":"uint32"},{"name":"setRev","type":"uint32","internalType":"uint32"},{"name":"kindId","type":"uint64","internalType":"uint64"},{"name":"setId","type":"uint64","internalType":"uint64"}]}],"stateMutability":"nonpayable"},{"type":"function","name":"kindUpgrade","inputs":[{"name":"id","type":"uint64","internalType":"uint64"},{"name":"kindRev","type":"uint32","internalType":"uint32"},{"name":"setRev","type":"uint32","internalType":"uint32"}],"outputs":[{"name":"desc","type":"tuple","internalType":"struct Descriptor","components":[{"name":"traits","type":"uint32","internalType":"uint32"},{"name":"rev","type":"uint32","internalType":"uint32"},{"name":"kindRev","type":"uint32","internalType":"uint32"},{"name":"setRev","type":"uint32","internalType":"uint32"},{"name":"kindId","type":"uint64","internalType":"uint64"},{"name":"setId","type":"uint64","internalType":"uint64"}]}],"stateMutability":"nonpayable"},{"type":"function","name":"omniRegistry","inputs":[],"outputs":[{"name":"","type":"address","internalType":"address"}],"stateMutability":"view"},{"type":"function","name":"owner","inputs":[],"outputs":[{"name":"","type":"address","internalType":"address"}],"stateMutability":"view"},{"type":"function","name":"proxiableUUID","inputs":[],"outputs":[{"name":"","type":"bytes32","internalType":"bytes32"}],"stateMutability":"view"},{"type":"function","name":"renounceOwnership","inputs":[],"outputs":[],"stateMutability":"nonpayable"},{"type":"function","name":"semver","inputs":[],"outputs":[{"name":"version","type":"uint32","internalType":"uint32"}],"stateMutability":"pure"},{"type":"function","name":"setRegistry","inputs":[],"outputs":[{"name":"","type":"address","internalType":"address"}],"stateMutability":"view"},{"type":"function","name":"transferOwnership","inputs":[{"name":"newOwner","type":"address","internalType":"address"}],"outputs":[],"stateMutability":"nonpayable"},{"type":"function","name":"upgradeToAndCall","inputs":[{"name":"newImplementation","type":"address","internalType":"address"},{"name":"data","type":"bytes","internalType":"bytes"}],"outputs":[],"stateMutability":"payable"},{"type":"event","name":"Initialized","inputs":[{"name":"version","type":"uint64","indexed":false,"internalType":"uint64"}],"anonymous":false},{"type":"event","name":"KindRegistered","inputs":[{"name":"id","type":"uint64","indexed":false,"internalType":"uint64"},{"name":"desc","type":"tuple","indexed":false,"internalType":"struct Descriptor","components":[{"name":"traits","type":"uint32","internalType":"uint32"},{"name":"rev","type":"uint32","internalType":"uint32"},{"name":"kindRev","type":"uint32","internalType":"uint32"},{"name":"setRev","type":"uint32","internalType":"uint32"},{"name":"kindId","type":"uint64","internalType":"uint64"},{"name":"setId","type":"uint64","internalType":"uint64"}]},{"name":"code","type":"bytes32","indexed":false,"internalType":"bytes32"},{"name":"data","type":"bytes32","indexed":false,"internalType":"bytes32"},{"name":"elemSpec","type":"uint8[]","indexed":false,"internalType":"enum ElementType[]"},{"name":"rels","type":"uint64[]","indexed":false,"internalType":"uint64[]"},{"name":"owner","type":"address","indexed":false,"internalType":"address"}],"anonymous":false},{"type":"event","name":"KindTouched","inputs":[{"name":"id","type":"uint64","indexed":false,"internalType":"uint64"},{"name":"desc","type":"tuple","indexed":false,"internalType":"struct Descriptor","components":[{"name":"traits","type":"uint32","internalType":"uint32"},{"name":"rev","type":"uint32","internalType":"uint32"},{"name":"kindRev","type":"uint32","internalType":"uint32"},{"name":"setRev","type":"uint32","internalType":"uint32"},{"name":"kindId","type":"uint64","internalType":"uint64"},{"name":"setId","type":"uint64","internalType":"uint64"}]}],"anonymous":false},{"type":"event","name":"KindTransferred","inputs":[{"name":"id","type":"uint64","indexed":false,"internalType":"uint64"},{"name":"from","type":"address","indexed":false,"internalType":"address"},{"name":"to","type":"address","indexed":false,"internalType":"address"}],"anonymous":false},{"type":"event","name":"KindUpdated","inputs":[{"name":"id","type":"uint64","indexed":false,"internalType":"uint64"},{"name":"desc","type":"tuple","indexed":false,"internalType":"struct Descriptor","components":[{"name":"traits","type":"uint32","internalType":"uint32"},{"name":"rev","type":"uint32","internalType":"uint32"},{"name":"kindRev","type":"uint32","internalType":"uint32"},{"name":"setRev","type":"uint32","internalType":"uint32"},{"name":"kindId","type":"uint64","internalType":"uint64"},{"name":"setId","type":"uint64","internalType":"uint64"}]},{"name":"code","type":"bytes32","indexed":false,"internalType":"bytes32"},{"name":"data","type":"bytes32","indexed":false,"internalType":"bytes32"},{"name":"rels","type":"uint64[]","indexed":false,"internalType":"uint64[]"}],"anonymous":false},{"type":"event","name":"KindUpgraded","inputs":[{"name":"id","type":"uint64","indexed":false,"internalType":"uint64"},{"name":"desc","type":"tuple","indexed":false,"internalType":"struct Descriptor","components":[{"name":"traits","type":"uint32","internalType":"uint32"},{"name":"rev","type":"uint32","internalType":"uint32"},{"name":"kindRev","type":"uint32","internalType":"uint32"},{"name":"setRev","type":"uint32","internalType":"uint32"},{"name":"kindId","type":"uint64","internalType":"uint64"},{"name":"setId","type":"uint64","internalType":"uint64"}]}],"anonymous":false},{"type":"event","name":"OwnershipTransferred","inputs":[{"name":"previousOwner","type":"address","indexed":true,"internalType":"address"},{"name":"newOwner","type":"address","indexed":true,"internalType":"address"}],"anonymous":false},{"type":"event","name":"Upgraded","inputs":[{"name":"implementation","type":"address","indexed":true,"internalType":"address"}],"anonymous":false},{"type":"error","name":"AddressEmptyCode","inputs":[{"name":"target","type":"address","internalType":"address"}]},{"type":"error","name":"ERC1967InvalidImplementation","inputs":[{"name":"implementation","type":"address","internalType":"address"}]},{"type":"error","name":"ERC1967NonPayable","inputs":[]},{"type":"error","name":"FailedCall","inputs":[]},{"type":"error","name":"InvalidCode","inputs":[]},{"type":"error","name":"InvalidData","inputs":[]},{"type":"error","name":"InvalidElementType","inputs":[]},{"type":"error","name":"InvalidInitial","inputs":[]},{"type":"error","name":"InvalidInitialization","inputs":[]},{"type":"error","name":"InvalidRelation","inputs":[]},{"type":"error","name":"NotInitializing","inputs":[]},{"type":"error","name":"Overflow","inputs":[]},{"type":"error","name":"OwnableInvalidOwner","inputs":[{"name":"owner","type":"address","internalType":"address"}]},{"type":"error","name":"OwnableUnauthorizedAccount","inputs":[{"name":"account","type":"address","internalType":"address"}]},{"type":"error","name":"TooManyElementTypes","inputs":[]},{"type":"error","name":"TooManyRelations","inputs":[]},{"type":"error","name":"UUPSUnauthorizedCallContext","inputs":[]},{"type":"error","name":"UUPSUnsupportedProxiableUUID","inputs":[{"name":"slot","type":"bytes32","internalType":"bytes32"}]},{"type":"error","name":"UnauthorizedAccess","inputs":[{"name":"id","type":"uint64","internalType":"uint64"},{"name":"vistor","type":"address","internalType":"address"}]}],"bytecode":{"object":"0x60a0806040523460295730608052612fb2908161002e823960805181818161089901526119b50152f35b5f80fdfe60806040526004361015610011575f80fd5b5f3560e01c80630383f129146101b45780631cc3fc72146101af5780632c636a11146101aa5780632dc61f7d146101a557806331961400146101a05780634f1ef2861461019b578063527f3e1f1461019657806352d1902d146101915780636180feb11461018c5780636798dd4914610187578063700ae53c14610182578063715018a61461017d57806372e725781461017857806381a90030146101735780638399ebdd1461016e5780638da5cb5b14610169578063944504bc14610164578063944ea8721461015f578063ac8b956b1461015a578063ad3cb1cc14610155578063b19c379114610150578063c588ead01461014b578063cda493c814610146578063f2fde38b14610141578063f30bd4f51461013c5763f8c8765e14610137575f80fd5b611349565b6112c9565b61129c565b61127f565b6111b5565b61116e565b611110565b6110c9565b611037565b610f70565b610f1a565b610e86565b610db2565b610c1d565b610bb6565b610ae6565b6109f6565b6108ed565b610887565b610840565b6107c4565b6105b1565b61055b565b610506565b6103f4565b61023a565b6001600160401b038116036101ca57565b5f80fd5b6001600160401b0360a0809263ffffffff815116855263ffffffff602082015116602086015263ffffffff604082015116604086015263ffffffff6060820151166060860152826080820151166080860152015116910152565b60c08101929161023891906101ce565b565b346101ca5760203660031901126101ca57600435610257816101b9565b61025f6114df565b5061026981612021565b6001600160401b0360405191637ce36e2360e11b83525f516020612e9d5f395f51905f5260048401521660248201526007604482015260c08160648173__$bfd2951eaa3e5aabb9283af4830755d90c$__5af4801561030d576102da915f916102de575b5060405191829182610228565b0390f35b610300915060c03d60c011610306575b6102f88183610346565b81019061159e565b5f6102cd565b503d6102ee565b6115b2565b634e487b7160e01b5f52604160045260245ffd5b60c081019081106001600160401b0382111761034157604052565b610312565b90601f801991011681019081106001600160401b0382111761034157604052565b6040519061023860c083610346565b6001600160401b0381116103415760051b60200190565b9080601f830112156101ca5781356103a481610376565b926103b26040519485610346565b81845260208085019260051b8201019283116101ca57602001905b8282106103da5750505090565b6020809183356103e9816101b9565b8152019101906103cd565b346101ca5760203660031901126101ca576004356001600160401b0381116101ca5761042490369060040161038d565b6040518091631cff580560e11b8252604482015f516020612e9d5f395f51905f5260048401526040602484015281518091526020606484019201905f5b8181106104da57846020818087038173__$bfd2951eaa3e5aabb9283af4830755d90c$__5af4801561030d576102da915f916104ab575b5060405190151581529081906020820190565b6104cd915060203d6020116104d3575b6104c58183610346565b8101906115bd565b82610498565b503d6104bb565b82516001600160401b0316845285945060209384019390920191600101610461565b5f9103126101ca57565b346101ca575f3660031901126101ca577f389a4784c2c3e8284bc1418c5b9cf4b556f52088a652459a6e23aae4f7902701546040516001600160a01b039091168152602090f35b63ffffffff8116036101ca57565b346101ca5760603660031901126101ca57604063ffffffff6105a0600435610582816101b9565b60243561058e8161054d565b6044359161059b836101b9565b6117b0565b835191151582529091166020820152f35b346101ca5760803660031901126101ca576004356105ce816101b9565b602435604435916064356001600160401b0381116101ca576105f490369060040161038d565b6105fc6114df565b5061060682612021565b61060f816120cb565b60405163340100c160e01b815273__$bfd2951eaa3e5aabb9283af4830755d90c$__9490935f8580610644876004830161165e565b0381895af494851561030d575f95610772575b50610661836129ae565b94909380939293610762575b5080610752575b5061067e87611728565b5261068886611738565b5261069285611748565b5261069c84611758565b5260c060405180956314447f4f60e11b825281806106be8888600484016118fd565b03915af492831561030d576102da945f9461071a575b509161070b8492846106fd6106f65f516020612edd5f395f51905f5297611706565b5191611718565b51906040519586958661196c565b0390a160405191829182610228565b5f516020612edd5f395f51905f52939192945061074861070b9160c03d60c011610306576102f88183610346565b94929193506106d4565b61075b88611718565b525f610674565b61076b89611706565b525f61066d565b61078f9195503d805f833e6107878183610346565b8101906115d5565b9050935f610657565b6001600160a01b038116036101ca57565b6001600160401b03811161034157601f01601f191660200190565b60403660031901126101ca576004356107dc81610798565b602435906001600160401b0382116101ca57366023830112156101ca57816004013590610808826107a9565b916108166040519384610346565b80835236602482860101116101ca576020815f92602461083e970183870137840101526119a9565b005b346101ca575f3660031901126101ca577f389a4784c2c3e8284bc1418c5b9cf4b556f52088a652459a6e23aae4f7902702546040516001600160a01b039091168152602090f35b346101ca575f3660031901126101ca577f00000000000000000000000000000000000000000000000000000000000000006001600160a01b031630036108de5760206040515f516020612efd5f395f51905f528152f35b63703e46dd60e11b5f5260045ffd5b346101ca5760403660031901126101ca5760043561090a816101b9565b60243561091681610798565b61091f82612021565b604051635640151160e11b81525f516020612e9d5f395f51905f5260048201526001600160401b039290921660248301526001600160a01b0316604482015260208160648173__$bfd2951eaa3e5aabb9283af4830755d90c$__5af4801561030d576102da915f916109a7575b506040516001600160a01b0390911681529081906020820190565b6109c9915060203d6020116109cf575b6109c18183610346565b810190611abe565b5f61098c565b503d6109b7565b9160206102389294936001600160401b0360e082019616815201906101ce565b346101ca5760803660031901126101ca576024356004356044356001600160401b0381116101ca57366023820112156101ca578060040135610a3781610376565b91610a456040519384610346565b8183526024602084019260051b820101903682116101ca57602401915b818310610aa557505050606435926001600160401b0384116101ca57610a8f610a9594369060040161038d565b92611c0c565b906102da604051928392836109d6565b8235600c8110156101ca57815260209283019201610a62565b60409060031901126101ca57600435610ad6816101b9565b90602435610ae38161054d565b90565b346101ca57610b1d5f610af836610abe565b90610b016114df565b5060405163340100c160e01b8152938492839260048401611691565b038173__$bfd2951eaa3e5aabb9283af4830755d90c$__5af4801561030d575f915f91610b9a575b5090604051918291610b5b8360e08101926101ce565b60e060c08401528151809152602061010084019201905f5b818110610b81575050500390f35b8251845285945060209384019390920191600101610b73565b9050610bb091503d805f833e6107878183610346565b5f610b45565b346101ca575f3660031901126101ca57610bce612300565b5f516020612ebd5f395f51905f5280546001600160a01b031981169091555f906001600160a01b03167f8be0079c531659141344cd1fd0a4f28419497f9722a3daafe3b4186f6b6457e08280a3005b346101ca5760603660031901126101ca57600435610c3a816101b9565b6024359060443590610c4a6114df565b50610c5481612021565b60405163340100c160e01b815273__$bfd2951eaa3e5aabb9283af4830755d90c$__9390925f8480610c89866004830161165e565b0381885af493841561030d575f94610d94575b5081610d84575b80610d74575b60c060405180966314447f4f60e11b82528180610cca8989600484016118fd565b03915af493841561030d576102da955f95610d36575b5084925f516020612edd5f395f51905f529492610d2983610d0361070b95611728565b5190610d0e81611738565b51610d22610d1b83611748565b5192611758565b5192612ba4565b916040519586958661196c565b610d299550925f516020612edd5f395f51905f529492610d6861070b939560c03d60c011610306576102f88183610346565b96509294509290610ce0565b80610d7e85611718565b52610ca9565b81610d8e85611706565b52610ca3565b610da99194503d805f833e6107878183610346565b9050925f610c9c565b346101ca5760403660031901126101ca57600435610dcf816101b9565b6024356001600160401b0381116101ca57610dee90369060040161038d565b610df66114df565b50610e0082612021565b610e09816120cb565b60405163340100c160e01b815273__$bfd2951eaa3e5aabb9283af4830755d90c$__9290915f8380610e3e856004830161165e565b0381875af492831561030d575f93610e68575b50610e5b816129ae565b9261067e87939293611728565b610e7d9193503d805f833e6107878183610346565b9050915f610e51565b346101ca57610eb56020610e9936610abe565b60405163310ace3360e11b815293849283929060048401611dce565b038173__$bfd2951eaa3e5aabb9283af4830755d90c$__5af4801561030d576020915f91610eed575b5063ffffffff60405191168152f35b610f0d9150823d8411610f13575b610f058183610346565b810190611db9565b5f610ede565b503d610efb565b346101ca575f3660031901126101ca575f516020612ebd5f395f51905f52546040516001600160a01b039091168152602090f35b90929160c090610f628360e08101966101ce565b6001600160a01b0316910152565b346101ca5760203660031901126101ca57610fb460e0600435610f92816101b9565b610f9a6114df565b506040518093819263154c1b43851b835260048301611e01565b038173__$bfd2951eaa3e5aabb9283af4830755d90c$__5af490811561030d575f905f92610fed575b506102da60405192839283610f4e565b91505060e03d60e011611030575b6110058183610346565b810160e0828203126101ca5761101d60c0918361151a565b9101519061102a82610798565b5f610fdd565b503d610ffb565b346101ca5761106f60c061104a36610abe565b906110536114df565b50604051632866ef3160e21b8152938492839260048401611dce565b038173__$bfd2951eaa3e5aabb9283af4830755d90c$__5af490811561030d575f916110aa575b5060405180916102da8260c08101926101ce565b6110c3915060c03d60c011610306576102f88183610346565b5f611096565b346101ca575f3660031901126101ca577f389a4784c2c3e8284bc1418c5b9cf4b556f52088a652459a6e23aae4f7902700546040516001600160a01b039091168152602090f35b346101ca575f3660031901126101ca57604080519061112f8183610346565b600582526020820191640352e302e360dc1b83528151928391602083525180918160208501528484015e5f828201840152601f01601f19168101030190f35b346101ca575f3660031901126101ca577f389a4784c2c3e8284bc1418c5b9cf4b556f52088a652459a6e23aae4f7902703546040516001600160a01b039091168152602090f35b346101ca5760603660031901126101ca576004356111d2816101b9565b63ffffffff6024356111e38161054d565b81604435916111f18361054d565b6111f96114df565b5061120385612021565b6001600160401b036040519563d995904360e01b87525f516020612e9d5f395f51905f5260048801521660248601521660448401521660648201526007608482015260c08160a48173__$bfd2951eaa3e5aabb9283af4830755d90c$__5af4801561030d576102da915f916102de575060405191829182610228565b346101ca575f3660031901126101ca576020610100604051908152f35b346101ca5760203660031901126101ca5761083e6004356112bc81610798565b6112c4612300565b611e27565b346101ca5760203660031901126101ca5761130560206004356112eb816101b9565b60405180938192639101c02760e01b835260048301611e01565b038173__$bfd2951eaa3e5aabb9283af4830755d90c$__5af4801561030d576102da915f916109a757506040516001600160a01b0390911681529081906020820190565b346101ca5760803660031901126101ca5760043561136681610798565b6024359061137382610798565b60443561137f81610798565b6064359061138c82610798565b5f516020612f3d5f395f51905f5254936001600160401b036113bd60ff604088901c1615966001600160401b031690565b16801590816114d7575b60011490816114cd575b1590816114c4575b506114b55761141c938561141360016001600160401b03195f516020612f3d5f395f51905f525416175f516020612f3d5f395f51905f5255565b61147b57611eb3565b61142257005b61144c60ff60401b195f516020612f3d5f395f51905f5254165f516020612f3d5f395f51905f5255565b604051600181527fc7f505b2f371ae2175ee4913f4499e1f2633a7b5936321eed1cdaeb6115181d290602090a1005b6114b06801000000000000000060ff60401b195f516020612f3d5f395f51905f525416175f516020612f3d5f395f51905f5255565b611eb3565b63f92ee8a960e01b5f5260045ffd5b9050155f6113d9565b303b1591506113d1565b8691506113c7565b604051906114ec82610326565b5f60a0838281528260208201528260408201528260608201528260808201520152565b5190610238826101b9565b91908260c09103126101ca5760405161153281610326565b60a061159981839580516115458161054d565b855260208101516115558161054d565b602086015260408101516115688161054d565b6040860152606081015161157b8161054d565b6060860152608081015161158e816101b9565b60808601520161150f565b910152565b9060c0828203126101ca57610ae39161151a565b6040513d5f823e3d90fd5b908160209103126101ca575180151581036101ca5790565b919060e0838203126101ca576115eb818461151a565b9260c0810151906001600160401b0382116101ca57019080601f830112156101ca57815161161881610376565b926116266040519485610346565b81845260208085019260051b8201019283116101ca57602001905b82821061164e5750505090565b8151815260209182019101611641565b5f516020612e9d5f395f51905f5281526001600160401b0390911660208201525f60408201526007606082015260800190565b60609063ffffffff60079395946001600160401b0360808401975f516020612e9d5f395f51905f5285521660208401521660408201520152565b634e487b7160e01b5f52601160045260245ffd5b5f1981146116ed5760010190565b6116cb565b634e487b7160e01b5f52603260045260245ffd5b8051156117135760200190565b6116f2565b8051600110156117135760400190565b8051600310156117135760800190565b8051600410156117135760a00190565b8051600510156117135760c00190565b8051600610156117135760e00190565b8051600210156117135760600190565b80518210156117135760209160051b010190565b80156116ed575f190190565b600681901b91906001600160fa1b038116036116ed57565b60405163340100c160e01b815292915f91849182916117d3919060048401611691565b038173__$bfd2951eaa3e5aabb9283af4830755d90c$__5af491821561030d575f926118a8575b5061181265ffffffffffff61ffff8360301c16921690565b925f92909150829061182690600390611778565b519260035b6118458561183883611798565b1c6001600160401b031690565b6001600160401b0381161561189f5761186b65ffffffffffff61ffff8360301c16921690565b65ffffffffffff80891691161461189057506118896118459161178c565b905061182b565b6001965061ffff169450505050565b50919450925050565b6118129192506118c1903d805f833e6107878183610346565b905091906117fa565b90602080835192838152019201905f5b8181106118e75750505090565b82518452602093840193909201916001016118da565b6060906001600160401b03610ae394935f516020612e9d5f395f51905f52835216602082015281604082015201906118ca565b90602080835192838152019201905f5b81811061194d5750505090565b82516001600160401b0316845260209384019390920191600101611940565b9192611990610140946001600160401b03610ae398979416855260208501906101ce565b60e0830152610100820152816101208201520190611930565b90916001600160a01b037f000000000000000000000000000000000000000000000000000000000000000016308114908115611a9c575b506108de576119ed612300565b6040516352d1902d60e01b8152926020846004816001600160a01b0387165afa5f9481611a6b575b50611a3657634c9c8ce360e01b5f526001600160a01b03831660045260245ffd5b90915f516020612efd5f395f51905f528403611a5757610238929350612a8f565b632a87526960e21b5f52600484905260245ffd5b611a8e91955060203d602011611a95575b611a868183610346565b81019061218e565b935f611a15565b503d611a7c565b5f516020612efd5f395f51905f52546001600160a01b0316141590505f6119e0565b908160209103126101ca5751610ae381610798565b6040516101009190611ae58382610346565b6007815291601f1901366020840137565b92611b2d610120936001600160401b03611b41949897985f516020612e9d5f395f51905f52885216602087015260408601906101ce565b6101406101008501526101408401906118ca565b6001600160a01b03909416910152565b9796959391611b78909391936001600160401b036101808b0195168a5260208a01906101ce565b60e0880152610100870152610180610120870152825180915260206101a087019301905f905b808210611bd557505050611bc2826101609287610238969503610140890152611930565b6001600160a01b03909216940193909352565b909193845190600c821015611bf857602081600193829352019501920190611b9e565b634e487b7160e01b5f52602160045260245ffd5b939190611c176114df565b508415611daa578015611d9b57611c2d846120cb565b611c368261219d565b611c4c611c416121b7565b65ffffffffffff1690565b94611c55611ad3565b92611c5f866129ae565b9285611c6d89949394611706565b5286611c7889611718565b52611c8285612b3f565b611c8b89611768565b52611c9588611728565b52611c9f87611738565b52611ca986611748565b52611cb385611758565b52611cbc61222f565b611cf7611cc761229d565b611cea611cd2610367565b5f8152600160208201529363ffffffff166040850152565b63ffffffff166060830152565b60026080820152600260a0820152809673__$bfd2951eaa3e5aabb9283af4830755d90c$__803b156101ca57895f91611d4998604051809a81948293634881a43960e01b845289339260048601611af6565b03915af492831561030d575f516020612f5d5f395f51905f5296611d7c94611d81575b5060405195869533948c88611b51565b0390a1565b80611d8f5f611d9593610346565b806104fc565b5f611d6c565b635cb045db60e01b5f5260045ffd5b633303523160e11b5f5260045ffd5b908160209103126101ca5751610ae38161054d565b5f516020612e9d5f395f51905f5281526001600160401b03909116602082015263ffffffff909116604082015260600190565b5f516020612e9d5f395f51905f5281526001600160401b03909116602082015260400190565b6001600160a01b03168015611e85575f516020612ebd5f395f51905f5280546001600160a01b0319811683179091556001600160a01b03167f8be0079c531659141344cd1fd0a4f28419497f9722a3daafe3b4186f6b6457e05f80a3565b631e4fbdf760e01b5f525f60045260245ffd5b60405190611ea7602083610346565b5f808352366020840137565b9192611ff193611fac92611ec5612c7f565b611ecd612c7f565b611ed685611e27565b611ede612c7f565b611ee6612c7f565b7f389a4784c2c3e8284bc1418c5b9cf4b556f52088a652459a6e23aae4f790270080546001600160a01b03199081166001600160a01b03938416179091557f389a4784c2c3e8284bc1418c5b9cf4b556f52088a652459a6e23aae4f790270180548216938316939093179092557f389a4784c2c3e8284bc1418c5b9cf4b556f52088a652459a6e23aae4f790270280548316301790557f389a4784c2c3e8284bc1418c5b9cf4b556f52088a652459a6e23aae4f790270380549092169216919091179055565b611fb4611e98565b611fbc611e98565b611fc7838383612333565b50611fd383838361247f565b50611fdf8383836125cb565b50611feb838383612717565b50612862565b50610238601165ffffffffffff195f516020612f1d5f395f51905f525416175f516020612f1d5f395f51905f5255565b604051639101c02760e01b81526020818061203f8560048301611e01565b038173__$bfd2951eaa3e5aabb9283af4830755d90c$__5af490811561030d575f9161209b575b50336001600160a01b039091160361207b5750565b6001600160401b039063862a147d60e01b5f52166004523360245260445ffd5b6120b4915060203d6020116109cf576109c18183610346565b5f612066565b906020610ae3928181520190611930565b6010815111612180577f389a4784c2c3e8284bc1418c5b9cf4b556f52088a652459a6e23aae4f7902701546121389160209161211d90612111906001600160a01b031681565b6001600160a01b031690565b60405180809581946307b5d18560e31b8352600483016120ba565b03915afa90811561030d575f91612161575b501561215257565b63e66a8ebf60e01b5f5260045ffd5b61217a915060203d6020116104d3576104c58183610346565b5f61214a565b62d2f0d760e31b5f5260045ffd5b908160209103126101ca575190565b60109051116121a857565b63049eef8d60e41b5f5260045ffd5b65ffffffffffff5f516020612f1d5f395f51905f52541665fffffffffffe8110156122205765ffffffffffff81146116ed5765ffffffffffff600182011665ffffffffffff195f516020612f1d5f395f51905f525416175f516020612f1d5f395f51905f525590565b631a93c68960e11b5f5260045ffd5b60405163298a39dd60e11b81525f516020612e9d5f395f51905f5260048201526002602482015260208160448173__$bfd2951eaa3e5aabb9283af4830755d90c$__5af490811561030d575f91612284575090565b610ae3915060203d602011610f1357610f058183610346565b7f389a4784c2c3e8284bc1418c5b9cf4b556f52088a652459a6e23aae4f79027005460405163386956c760e01b8152600260048201525f602482015290602090829060449082906001600160a01b03165afa90811561030d575f91612284575090565b5f516020612ebd5f395f51905f52546001600160a01b0316330361232057565b63118cdaa760e01b5f523360045260245ffd5b92919261233e6114df565b50612347611ad3565b91612351816129ae565b9290919063636f646560e01b61236688611706565b52636461746160e01b61237888611718565b5261238286612b3f565b61238b88611768565b5261239587611728565b5261239f86611738565b526123a985611748565b526123b384611758565b526123bc610367565b5f81526001602082015290600160408301526001606083015260026080830152600260a0830152819573__$bfd2951eaa3e5aabb9283af4830755d90c$__803b156101ca57815f9161242797604051809981948293634881a43960e01b84528a600160048601611af6565b03915af491821561030d575f516020612f5d5f395f51905f5295611d7c9361246b575b50604051948594636461746160e01b9063636f646560e01b90600188611b51565b80611d8f5f61247993610346565b5f61244a565b92919261248a6114df565b50612493611ad3565b9161249d816129ae565b9290919063636f646560e01b6124b288611706565b52636461746160e01b6124c488611718565b526124ce86612b3f565b6124d788611768565b526124e187611728565b526124eb86611738565b526124f585611748565b526124ff84611758565b52612508610367565b5f81526001602082015290600160408301526001606083015260026080830152600260a0830152819573__$bfd2951eaa3e5aabb9283af4830755d90c$__803b156101ca57815f9161257397604051809981948293634881a43960e01b84528a600260048601611af6565b03915af491821561030d575f516020612f5d5f395f51905f5295611d7c936125b7575b50604051948594636461746160e01b9063636f646560e01b90600288611b51565b80611d8f5f6125c593610346565b5f612596565b9291926125d66114df565b506125df611ad3565b916125e9816129ae565b9290919063636f646560e01b6125fe88611706565b52636461746160e01b61261088611718565b5261261a86612b3f565b61262388611768565b5261262d87611728565b5261263786611738565b5261264185611748565b5261264b84611758565b52612654610367565b5f81526001602082015290600160408301526001606083015260026080830152600260a0830152819573__$bfd2951eaa3e5aabb9283af4830755d90c$__803b156101ca57815f916126bf97604051809981948293634881a43960e01b84528a600360048601611af6565b03915af491821561030d575f516020612f5d5f395f51905f5295611d7c93612703575b50604051948594636461746160e01b9063636f646560e01b90600388611b51565b80611d8f5f61271193610346565b5f6126e2565b9291926127226114df565b5061272b611ad3565b91612735816129ae565b9290919063636f646560e01b61274a88611706565b52636461746160e01b61275c88611718565b5261276686612b3f565b61276f88611768565b5261277987611728565b5261278386611738565b5261278d85611748565b5261279784611758565b526127a0610367565b5f81526001602082015290600160408301526001606083015260026080830152600260a0830152819573__$bfd2951eaa3e5aabb9283af4830755d90c$__803b156101ca57815f9161280a97604051809981948293634881a43960e01b84528a6004808601611af6565b03915af491821561030d575f516020612f5d5f395f51905f5295611d7c9361284e575b50604051948594636461746160e01b9063636f646560e01b90600488611b51565b80611d8f5f61285c93610346565b5f61282d565b92919261286d6114df565b50612876611ad3565b91612880816129ae565b9290919063636f646560e01b61289588611706565b52636461746160e01b6128a788611718565b526128b186612b3f565b6128ba88611768565b526128c487611728565b526128ce86611738565b526128d885611748565b526128e284611758565b526128eb610367565b5f81526001602082015290600160408301526001606083015260026080830152600260a0830152819573__$bfd2951eaa3e5aabb9283af4830755d90c$__803b156101ca57815f9161295697604051809981948293634881a43960e01b84528a600560048601611af6565b03915af491821561030d575f516020612f5d5f395f51905f5295611d7c9361299a575b50604051948594636461746160e01b9063636f646560e01b90600588611b51565b80611d8f5f6129a893610346565b5f612979565b905f80805b60048110612a38575050915f5f5b600481106129dd575091610ae36129d783612caa565b92612d19565b9081600401806004116116ed57835181106129fd575b50906001016129c1565b612a0f6001600160401b039185611778565b5116908260061b91838304604014841517156116ed57612a30600193612b31565b1b17906129f3565b816116ed5784518110612a4e575b6001016129b3565b915f91506001600160401b03612a648487611778565b5116908360061b91848304604014851517156116ed57612a85600193612b31565b1b17929050612a46565b90813b15612b10575f516020612efd5f395f51905f5280546001600160a01b0319166001600160a01b0384169081179091557fbc7cd75a20ee27fd9adebab32041f755214dbc6bffa90cc0225b39da2e5c2d3b5f80a2805115612af857612af591612d88565b50565b505034612b0157565b63b398979f60e01b5f5260045ffd5b50634c9c8ce360e01b5f9081526001600160a01b0391909116600452602490fd5b60c0039060c082116116ed57565b905f918051601081115f14612b9f575060105b5f915b818310612b6157505050565b90919360ff612b708684611778565b5116908560031b868104600814871517156116ed5760f8039160f883116116ed576001921b1794019190612b55565b612b52565b9190612bc29391612bb56010610376565b9160405195869384610346565b60108352601f19612bd36010610376565b013660208501375f945f5b60048110612c07575b50509082612bfc612c029682612bfc95612dcc565b91612dcc565b815290565b809192939596945060061b818104604014821517156116ed5760c00360c081116116ed57826001600160401b03911c16878115612c74575090612c67600192612c59612c52886116df565b978b611778565b906001600160401b03169052565b0190869395949291612bde565b949695939250612be7565b60ff5f516020612f3d5f395f51905f525460401c1615612c9b57565b631afcd79f60e31b5f5260045ffd5b905f915f5b60048110612cbb575050565b80600801806008116116ed5782518110612cd9575b50600101612caf565b9093906001600160401b0390612cef9084611778565b5116908460061b91858304604014861517156116ed57612d10600193612b31565b1b179390612cd0565b905f915f5b60048110612d2a575050565b80600c0180600c116116ed5782518110612d48575b50600101612d1e565b9093906001600160401b0390612d5e9084611778565b5116908460061b91858304604014861517156116ed57612d7f600193612b31565b1b179390612d3f565b5f80610ae393602081519101845af43d15612dc4573d91612da8836107a9565b92612db66040519485610346565b83523d5f602085013e612e3e565b606091612e3e565b9192905f5b60048110612de0575b50509050565b8060061b818104604014821517156116ed5760c00360c081116116ed57846001600160401b03911c168015612e3857906001916001600160401b03612e2e612e27896116df565b9886611778565b9116905201612dd1565b50612dda565b90612e625750805115612e5357805190602001fd5b63d6bda27560e01b5f5260045ffd5b81511580612e93575b612e73575090565b639996b31560e01b5f9081526001600160a01b0391909116600452602490fd5b50803b15612e6b56feb8c55f98767a73472af02b22c010d8184657966d48d072fe22562cfc139034019016d09d72d40fdae2fd8ceac6b6234c7706214fd39c1cd1e609a0528c19930032cb6878e178fbc20a1898da21809e3eb3a31358ee6ee2ef4e8694a1ceaab3f5360894a13ba1a3210667c828492db98dca3e2076cc3735a920a3ca505d382bbcb8c55f98767a73472af02b22c010d8184657966d48d072fe22562cfc13903400f0c57e16840df040f15088dc2f81fe391c3923bec73e23a9662efc9c229c6a00ac912fd0b74f052c1e52b27f2d00667e7854f29c8cb29d6de06cf2c9dd7873f7a264697066735822122092121018df5f6d80fcdf1e65d55e1ac113c3f30a547477167f9cf97db5f801be64736f6c634300081c0033","linkReferences":{"contracts/libraries/Snapshots.sol":{"Snapshots":[{"start":725,"length":20},{"start":1184,"length":20},{"start":1612,"length":20},{"start":2452,"length":20},{"start":2895,"length":20},{"start":3217,"length":20},{"start":3654,"length":20},{"start":3815,"length":20},{"start":4070,"length":20},{"start":4257,"length":20},{"start":4731,"length":20},{"start":4919,"length":20},{"start":6149,"length":20},{"start":7479,"length":20},{"start":8305,"length":20},{"start":8844,"length":20},{"start":9237,"length":20},{"start":9569,"length":20},{"start":9901,"length":20},{"start":10233,"length":20},{"start":10564,"length":20}]}}},"methodIdentifiers":{"UPGRADE_INTERFACE_VERSION()":"ad3cb1cc","elementRegistry()":"b19c3791","initialize(address,address,address,address)":"f8c8765e","kindAdmit(uint64,uint32,uint64)":"2dc61f7d","kindDescriptor(uint64,uint32)":"944ea872","kindOwner(uint64)":"f30bd4f5","kindRegister(bytes32,bytes32,uint8[],uint64[])":"6798dd49","kindRegistry()":"527f3e1f","kindRevision(uint64,uint32)":"8399ebdd","kindSnapshot(uint64,uint32)":"700ae53c","kindSota(uint64)":"944504bc","kindStatus(uint64[])":"1cc3fc72","kindTouch(uint64)":"0383f129","kindTransfer(uint64,address)":"6180feb1","kindUpdate(uint64,bytes32,bytes32)":"72e72578","kindUpdate(uint64,bytes32,bytes32,uint64[])":"31961400","kindUpdate(uint64,uint64[])":"81a90030","kindUpgrade(uint64,uint32,uint32)":"c588ead0","omniRegistry()":"2c636a11","owner()":"8da5cb5b","proxiableUUID()":"52d1902d","renounceOwnership()":"715018a6","semver()":"cda493c8","setRegistry()":"ac8b956b","transferOwnership(address)":"f2fde38b","upgradeToAndCall(address,bytes)":"4f1ef286"},"id":1}