{"abi":[{"type":"function","name":"UPGRADE_INTERFACE_VERSION","inputs":[],"outputs":[{"name":"","type":"string","internalType":"string"}],"stateMutability":"view"},{"type":"function","name":"initialize","inputs":[{"name":"owner","type":"address","internalType":"address"},{"name":"feeRecipient","type":"address","internalType":"address"},{"name":"feeBps","type":"uint16","internalType":"uint16"}],"outputs":[],"stateMutability":"nonpayable"},{"type":"function","name":"mint","inputs":[{"name":"to","type":"address","internalType":"address"},{"name":"set","type":"address","internalType":"address"},{"name":"id","type":"uint64","internalType":"uint64"},{"name":"auth","type":"bytes","internalType":"bytes"},{"name":"policy","type":"uint32","internalType":"uint32"}],"outputs":[],"stateMutability":"payable"},{"type":"function","name":"mint","inputs":[{"name":"to","type":"address","internalType":"address"},{"name":"set","type":"address","internalType":"address"},{"name":"id","type":"uint64","internalType":"uint64"},{"name":"data","type":"bytes","internalType":"bytes"},{"name":"auth","type":"bytes","internalType":"bytes"},{"name":"policy","type":"uint32","internalType":"uint32"}],"outputs":[],"stateMutability":"payable"},{"type":"function","name":"mint","inputs":[{"name":"to","type":"address","internalType":"address"},{"name":"set","type":"address","internalType":"address"},{"name":"id","type":"uint64","internalType":"uint64"}],"outputs":[],"stateMutability":"payable"},{"type":"function","name":"mint","inputs":[{"name":"to","type":"address","internalType":"address"},{"name":"set","type":"address","internalType":"address"},{"name":"id","type":"uint64","internalType":"uint64"},{"name":"data","type":"bytes","internalType":"bytes"}],"outputs":[],"stateMutability":"payable"},{"type":"function","name":"mintPolicyAdd","inputs":[{"name":"policy","type":"tuple","internalType":"struct MintPolicy","components":[{"name":"index","type":"uint32","internalType":"uint32"},{"name":"status","type":"uint8","internalType":"enum MintPolicyStatus"},{"name":"perm","type":"uint8","internalType":"enum MintPermissionType"},{"name":"limit","type":"uint16","internalType":"uint16"},{"name":"tag","type":"uint32","internalType":"uint32"},{"name":"recipient","type":"address","internalType":"address"},{"name":"currency","type":"address","internalType":"address"},{"name":"price","type":"uint96","internalType":"uint96"},{"name":"idStart","type":"uint64","internalType":"uint64"},{"name":"idEnd","type":"uint64","internalType":"uint64"},{"name":"saleStart","type":"uint64","internalType":"uint64"},{"name":"saleEnd","type":"uint64","internalType":"uint64"},{"name":"data","type":"bytes32","internalType":"bytes32"}]}],"outputs":[{"name":"index","type":"uint32","internalType":"uint32"}],"stateMutability":"nonpayable"},{"type":"function","name":"mintPolicyCount","inputs":[{"name":"set","type":"address","internalType":"address"}],"outputs":[{"name":"count","type":"uint256","internalType":"uint256"}],"stateMutability":"view"},{"type":"function","name":"mintPolicyDisable","inputs":[{"name":"index","type":"uint32","internalType":"uint32"}],"outputs":[],"stateMutability":"nonpayable"},{"type":"function","name":"mintPolicyEnable","inputs":[{"name":"index","type":"uint32","internalType":"uint32"}],"outputs":[],"stateMutability":"nonpayable"},{"type":"function","name":"mintPolicyGet","inputs":[{"name":"set","type":"address","internalType":"address"},{"name":"index","type":"uint32","internalType":"uint32"}],"outputs":[{"name":"policy","type":"tuple","internalType":"struct MintPolicy","components":[{"name":"index","type":"uint32","internalType":"uint32"},{"name":"status","type":"uint8","internalType":"enum MintPolicyStatus"},{"name":"perm","type":"uint8","internalType":"enum MintPermissionType"},{"name":"limit","type":"uint16","internalType":"uint16"},{"name":"tag","type":"uint32","internalType":"uint32"},{"name":"recipient","type":"address","internalType":"address"},{"name":"currency","type":"address","internalType":"address"},{"name":"price","type":"uint96","internalType":"uint96"},{"name":"idStart","type":"uint64","internalType":"uint64"},{"name":"idEnd","type":"uint64","internalType":"uint64"},{"name":"saleStart","type":"uint64","internalType":"uint64"},{"name":"saleEnd","type":"uint64","internalType":"uint64"},{"name":"data","type":"bytes32","internalType":"bytes32"}]}],"stateMutability":"view"},{"type":"function","name":"mintPolicySearch","inputs":[{"name":"set","type":"address","internalType":"address"},{"name":"id","type":"uint64","internalType":"uint64"},{"name":"mask","type":"uint8","internalType":"uint8"},{"name":"offset","type":"uint32","internalType":"uint32"}],"outputs":[{"name":"policy","type":"tuple","internalType":"struct MintPolicy","components":[{"name":"index","type":"uint32","internalType":"uint32"},{"name":"status","type":"uint8","internalType":"enum MintPolicyStatus"},{"name":"perm","type":"uint8","internalType":"enum MintPermissionType"},{"name":"limit","type":"uint16","internalType":"uint16"},{"name":"tag","type":"uint32","internalType":"uint32"},{"name":"recipient","type":"address","internalType":"address"},{"name":"currency","type":"address","internalType":"address"},{"name":"price","type":"uint96","internalType":"uint96"},{"name":"idStart","type":"uint64","internalType":"uint64"},{"name":"idEnd","type":"uint64","internalType":"uint64"},{"name":"saleStart","type":"uint64","internalType":"uint64"},{"name":"saleEnd","type":"uint64","internalType":"uint64"},{"name":"data","type":"bytes32","internalType":"bytes32"}]}],"stateMutability":"view"},{"type":"function","name":"mintPolicySearch","inputs":[{"name":"set","type":"address","internalType":"address"},{"name":"id","type":"uint64","internalType":"uint64"},{"name":"mask","type":"uint8","internalType":"uint8"}],"outputs":[{"name":"policy","type":"tuple","internalType":"struct MintPolicy","components":[{"name":"index","type":"uint32","internalType":"uint32"},{"name":"status","type":"uint8","internalType":"enum MintPolicyStatus"},{"name":"perm","type":"uint8","internalType":"enum MintPermissionType"},{"name":"limit","type":"uint16","internalType":"uint16"},{"name":"tag","type":"uint32","internalType":"uint32"},{"name":"recipient","type":"address","internalType":"address"},{"name":"currency","type":"address","internalType":"address"},{"name":"price","type":"uint96","internalType":"uint96"},{"name":"idStart","type":"uint64","internalType":"uint64"},{"name":"idEnd","type":"uint64","internalType":"uint64"},{"name":"saleStart","type":"uint64","internalType":"uint64"},{"name":"saleEnd","type":"uint64","internalType":"uint64"},{"name":"data","type":"bytes32","internalType":"bytes32"}]}],"stateMutability":"view"},{"type":"function","name":"owner","inputs":[],"outputs":[{"name":"","type":"address","internalType":"address"}],"stateMutability":"view"},{"type":"function","name":"proxiableUUID","inputs":[],"outputs":[{"name":"","type":"bytes32","internalType":"bytes32"}],"stateMutability":"view"},{"type":"function","name":"renounceOwnership","inputs":[],"outputs":[],"stateMutability":"nonpayable"},{"type":"function","name":"semver","inputs":[],"outputs":[{"name":"version","type":"uint32","internalType":"uint32"}],"stateMutability":"pure"},{"type":"function","name":"setFeeConfig","inputs":[{"name":"set","type":"address","internalType":"address"},{"name":"feeRecipient","type":"address","internalType":"address"},{"name":"feeBps","type":"uint16","internalType":"uint16"}],"outputs":[],"stateMutability":"nonpayable"},{"type":"function","name":"transferOwnership","inputs":[{"name":"newOwner","type":"address","internalType":"address"}],"outputs":[],"stateMutability":"nonpayable"},{"type":"function","name":"upgradeToAndCall","inputs":[{"name":"newImplementation","type":"address","internalType":"address"},{"name":"data","type":"bytes","internalType":"bytes"}],"outputs":[],"stateMutability":"payable"},{"type":"event","name":"Initialized","inputs":[{"name":"version","type":"uint64","indexed":false,"internalType":"uint64"}],"anonymous":false},{"type":"event","name":"MintPolicyDisabled","inputs":[{"name":"set","type":"address","indexed":false,"internalType":"address"},{"name":"policy","type":"tuple","indexed":false,"internalType":"struct MintPolicy","components":[{"name":"index","type":"uint32","internalType":"uint32"},{"name":"status","type":"uint8","internalType":"enum MintPolicyStatus"},{"name":"perm","type":"uint8","internalType":"enum MintPermissionType"},{"name":"limit","type":"uint16","internalType":"uint16"},{"name":"tag","type":"uint32","internalType":"uint32"},{"name":"recipient","type":"address","internalType":"address"},{"name":"currency","type":"address","internalType":"address"},{"name":"price","type":"uint96","internalType":"uint96"},{"name":"idStart","type":"uint64","internalType":"uint64"},{"name":"idEnd","type":"uint64","internalType":"uint64"},{"name":"saleStart","type":"uint64","internalType":"uint64"},{"name":"saleEnd","type":"uint64","internalType":"uint64"},{"name":"data","type":"bytes32","internalType":"bytes32"}]}],"anonymous":false},{"type":"event","name":"MintPolicyEnabled","inputs":[{"name":"set","type":"address","indexed":false,"internalType":"address"},{"name":"policy","type":"tuple","indexed":false,"internalType":"struct MintPolicy","components":[{"name":"index","type":"uint32","internalType":"uint32"},{"name":"status","type":"uint8","internalType":"enum MintPolicyStatus"},{"name":"perm","type":"uint8","internalType":"enum MintPermissionType"},{"name":"limit","type":"uint16","internalType":"uint16"},{"name":"tag","type":"uint32","internalType":"uint32"},{"name":"recipient","type":"address","internalType":"address"},{"name":"currency","type":"address","internalType":"address"},{"name":"price","type":"uint96","internalType":"uint96"},{"name":"idStart","type":"uint64","internalType":"uint64"},{"name":"idEnd","type":"uint64","internalType":"uint64"},{"name":"saleStart","type":"uint64","internalType":"uint64"},{"name":"saleEnd","type":"uint64","internalType":"uint64"},{"name":"data","type":"bytes32","internalType":"bytes32"}]}],"anonymous":false},{"type":"event","name":"ObjectMinted","inputs":[{"name":"set","type":"address","indexed":false,"internalType":"address"},{"name":"id","type":"uint64","indexed":false,"internalType":"uint64"},{"name":"operator","type":"address","indexed":false,"internalType":"address"},{"name":"to","type":"address","indexed":false,"internalType":"address"},{"name":"currency","type":"address","indexed":false,"internalType":"address"},{"name":"payment","type":"uint96","indexed":false,"internalType":"uint96"},{"name":"fundsRecipient","type":"address","indexed":false,"internalType":"address"},{"name":"funds","type":"uint96","indexed":false,"internalType":"uint96"},{"name":"feeRecipient","type":"address","indexed":false,"internalType":"address"},{"name":"fee","type":"uint96","indexed":false,"internalType":"uint96"}],"anonymous":false},{"type":"event","name":"OwnershipTransferred","inputs":[{"name":"previousOwner","type":"address","indexed":true,"internalType":"address"},{"name":"newOwner","type":"address","indexed":true,"internalType":"address"}],"anonymous":false},{"type":"event","name":"Upgraded","inputs":[{"name":"implementation","type":"address","indexed":true,"internalType":"address"}],"anonymous":false},{"type":"error","name":"AddressEmptyCode","inputs":[{"name":"target","type":"address","internalType":"address"}]},{"type":"error","name":"ERC1967InvalidImplementation","inputs":[{"name":"implementation","type":"address","internalType":"address"}]},{"type":"error","name":"ERC1967NonPayable","inputs":[]},{"type":"error","name":"FailedCall","inputs":[]},{"type":"error","name":"FeeConfigInvalidRate","inputs":[]},{"type":"error","name":"FeeConfigInvalidRecipient","inputs":[]},{"type":"error","name":"InsufficientBalance","inputs":[{"name":"balance","type":"uint256","internalType":"uint256"},{"name":"needed","type":"uint256","internalType":"uint256"}]},{"type":"error","name":"InvalidInitialization","inputs":[]},{"type":"error","name":"MintCallbackFailed","inputs":[]},{"type":"error","name":"MintExceedsMintLimit","inputs":[]},{"type":"error","name":"MintIncorrectPayment","inputs":[]},{"type":"error","name":"MintInvalidProof","inputs":[]},{"type":"error","name":"MintPolicyIndexOverflow","inputs":[]},{"type":"error","name":"MintPolicyInvalidContract","inputs":[]},{"type":"error","name":"MintPolicyInvalidIDRange","inputs":[]},{"type":"error","name":"MintPolicyInvalidMintLimit","inputs":[]},{"type":"error","name":"MintPolicyInvalidPermissionData","inputs":[]},{"type":"error","name":"MintPolicyInvalidPermissionType","inputs":[]},{"type":"error","name":"MintPolicyInvalidPrice","inputs":[]},{"type":"error","name":"MintPolicyInvalidRecipient","inputs":[]},{"type":"error","name":"MintPolicyInvalidSaleTime","inputs":[]},{"type":"error","name":"MintPolicyInvalidStatus","inputs":[]},{"type":"error","name":"MintPolicyNotFound","inputs":[]},{"type":"error","name":"MintPolicyUnavailable","inputs":[]},{"type":"error","name":"NotInitializing","inputs":[]},{"type":"error","name":"OwnableInvalidOwner","inputs":[{"name":"owner","type":"address","internalType":"address"}]},{"type":"error","name":"OwnableUnauthorizedAccount","inputs":[{"name":"account","type":"address","internalType":"address"}]},{"type":"error","name":"ReentrancyGuardReentrantCall","inputs":[]},{"type":"error","name":"SafeERC20FailedOperation","inputs":[{"name":"token","type":"address","internalType":"address"}]},{"type":"error","name":"UUPSUnauthorizedCallContext","inputs":[]},{"type":"error","name":"UUPSUnsupportedProxiableUUID","inputs":[{"name":"slot","type":"bytes32","internalType":"bytes32"}]}],"bytecode":{"object":"0x60a08060405234602d5760015f55306080526123429081610032823960805181818161068101526107970152f35b5f80fdfe60806040526004361015610011575f80fd5b5f3560e01c8063030e63141461104a578063170af00814610fda5780631b8cbc8d14610f4b578063280560b914610f00578063464d3992146109275780634f1ef2861461075a5780635133a06d146106d557806352d1902d1461066f57806367aa2a8a1461061f5780637110f02a146105cf578063715018a61461056857806371835451146104965780637ebef529146102a75780638da5cb5b1461027357806399afab45146102045780639fba03b5146101b7578063a3c285951461018b578063ad3cb1cc14610140578063cda493c8146101245763f2fde38b146100f5575f80fd5b346101205760203660031901126101205761011e61011161111a565b610119611c16565b611679565b005b5f80fd5b34610120575f3660031901126101205760206040516101008152f35b34610120575f366003190112610120576101876040516101616040826111a9565b60058152640352e302e360dc1b602082015260405191829160208352602083019061134f565b0390f35b346101205760203660031901126101205760206101ae6101a961111a565b611373565b54604051908152f35b34610120576060366003190112610120576101a06101f56101d661111a565b6101de61115c565b6101e661133f565b916101ef611524565b50611c49565b610202604051809261125a565bf35b60803660031901126101205761021861111a565b610220611130565b90610229611146565b91606435926001600160401b0384116101205761024d61026d9436906004016111e5565b916102566116ea565b604051936102656020866111a9565b5f8552611708565b60015f55005b34610120575f366003190112610120575f51602061228d5f395f51905f52546040516001600160a01b039091168152602090f35b34610120576060366003190112610120576102c061111a565b6102c8611130565b6102d061122b565b5f5160206122cd5f395f51905f5254926001600160401b0360ff8560401c161594168015908161048e575b6001149081610484575b15908161047b575b5061046c578360016001600160401b03195f5160206122cd5f395f51905f525416175f5160206122cd5f395f51905f525561043c575b61271061ffff83161161042d576001600160a01b0383161561041e576103739061036b61201c565b61011961201c565b61037b61201c565b63ffff000060015f5160206122ed5f395f51905f5254936401000000008260c01b039060201b16936001600160401b0360c01b16179160101b1617175f5160206122ed5f395f51905f52556103cc57005b60ff60401b195f5160206122cd5f395f51905f5254165f5160206122cd5f395f51905f52557fc7f505b2f371ae2175ee4913f4499e1f2633a7b5936321eed1cdaeb6115181d2602060405160018152a1005b630e4d82b960e41b5f5260045ffd5b63124a155760e31b5f5260045ffd5b600160401b60ff60401b195f5160206122cd5f395f51905f525416175f5160206122cd5f395f51905f5255610343565b63f92ee8a960e01b5f5260045ffd5b9050158561030d565b303b159150610305565b8591506102fb565b34610120576020366003190112610120576104af6110f4565b6104b833611373565b5463ffffffff82161015610559576104d8906104d333611373565b61141b565b50805460ff8160201c166104eb8161123c565b801561054a576002906104fd8161123c565b0361054a5764ff0000000019166401000000001781556040517f0a182701efdad03186ff3e9dbeca56d267f7cb61d741c226eacce923e050e7a8918190610545903383611448565b0390a1005b63eea94a1560e01b5f5260045ffd5b6311dca13b60e31b5f5260045ffd5b34610120575f36600319011261012057610580611c16565b5f51602061228d5f395f51905f5280546001600160a01b031981169091555f906001600160a01b03167f8be0079c531659141344cd1fd0a4f28419497f9722a3daafe3b4186f6b6457e08280a3005b60603660031901126101205761026d6105e661111a565b6105ee611130565b6105f6611146565b6105fe6116ea565b6040519161060d6020846111a9565b5f8352604051936102656020866111a9565b346101205760803660031901126101205761063861111a565b61064061115c565b9061064961133f565b60643563ffffffff81168103610120576101a0936101f593610669611524565b50611d68565b34610120575f366003190112610120577f00000000000000000000000000000000000000000000000000000000000000006001600160a01b031630036106c65760206040515f5160206122ad5f395f51905f528152f35b63703e46dd60e11b5f5260045ffd5b60c0366003190112610120576106e961111a565b6106f1611130565b6106f9611146565b6064356001600160401b038111610120576107189036906004016111e5565b6084356001600160401b038111610120576107379036906004016111e5565b9160a4359363ffffffff851685036101205761026d956107556116ea565b611be1565b60403660031901126101205761076e61111a565b6024356001600160401b0381116101205761078d9036906004016111e5565b6001600160a01b037f000000000000000000000000000000000000000000000000000000000000000016308114908115610905575b506106c6576107cf611c16565b6040516352d1902d60e01b81526001600160a01b0383169290602081600481875afa5f91816108d1575b506108115783634c9c8ce360e01b5f5260045260245ffd5b805f5160206122ad5f395f51905f528592036108bf5750813b156108ad575f5160206122ad5f395f51905f5280546001600160a01b031916821790557fbc7cd75a20ee27fd9adebab32041f755214dbc6bffa90cc0225b39da2e5c2d3b5f80a2815115610895575f8083602061011e95519101845af461088f6121a2565b916121d1565b50503461089e57005b63b398979f60e01b5f5260045ffd5b634c9c8ce360e01b5f5260045260245ffd5b632a87526960e21b5f5260045260245ffd5b9091506020813d6020116108fd575b816108ed602093836111a9565b81010312610120575190856107f9565b3d91506108e0565b5f5160206122ad5f395f51905f52546001600160a01b031614159050836107c2565b34610120576101a03660031901126101205760405161094581611172565b61094d6110f4565b81526024359060038210156101205760208101918252604435906003821015610120576040810191825260643561ffff811681036101205760608201908152610994611107565b608083019081529360a4356001600160a01b03811681036101205760a0840190815260c435946001600160a01b03861686036101205760c0850195865260e435956001600160601b03871687036101205760e08601968752610104356001600160401b03811691828203610120576101008801918252610124356001600160401b03811690818103610120576101208a0190815261014435926001600160401b0384168403610120576101408b0193845261016435926001600160401b0384168403610120576101608c019384526101808c01966101843588521015610ef1576001600160401b038451166001600160401b038451161115610ee25787516001600160a01b031615610ed3578651610aab8161123c565b610ab48161123c565b610e315761ffff8a511615610e22578551610e13575b8851610ad58161123c565b610ade8161123c565b15610e0a575b333b15610dbe576040516301ffc9a760e01b815263e57805e560e01b6004820152602081602481335afa5f9181610dcd575b50610b2a57630ba6a66b60e11b5f5260045ffd5b15610dbe57610b3833611373565b5463ffffffff811015610daf5763ffffffff169b8c8c52610b5833611373565b8054600160401b811015610d9b57610b759160018201815561141b565b999099610d885760209e8a6001600160601b038f9e60019f8f9d60039e63ffffffff6bffffffff000000000000000093511663ffffffff1987541617865551610bbd8161123c565b610bc68161123c565b64ff0000000086549160201b169064ff0000000019161785555194610bea8661123c565b610bf38661123c565b67ffff00000000000065ff000000000086549760281b16938465ff00000000001989161787555160301b1694858467ffffff0000000000198916171790555160401b16936bffffffffffffff0000000000191617938d848685171790558119905160601b16931617171789558a8901918b8060a01b039051166001600160601b0360a01b835416178255518154906001600160601b0360a01b9060a01b16908b8060a01b03161790556001600160401b03600288019451166001600160401b031985541617845551916001600160401b0367ffffffffffffffff60401b8554928260801b905160801b16938260c01b905160c01b169460401b16911617171790555191015551610d028161123c565b610d0b8161123c565b03610d4e57610d427f0a182701efdad03186ff3e9dbeca56d267f7cb61d741c226eacce923e050e7a8916040519182913383611656565b0390a15b604051908152f35b610d807f5e764a018c7d818c08df5a463eae7312e1f838a42ac1d2276206ff7148ea4e5a916040519182913383611656565b0390a1610d46565b634e487b7160e01b5f525f60045260245ffd5b634e487b7160e01b5f52604160045260245ffd5b631ce9f31f60e21b5f5260045ffd5b630ba6a66b60e11b5f5260045ffd5b9091506020813d602011610e02575b81610de9602093836111a9565b810103126101205751801515810361012057908f610b16565b3d9150610ddc565b60018952610ae4565b63450ea79f60e01b5f5260045ffd5b637e0b7d2d60e11b5f5260045ffd5b60018751610e3e8161123c565b610e478161123c565b03610e6c5761ffff8a511615610e22578551610aca5763450ea79f60e01b5f5260045ffd5b60028751610e798161123c565b610e828161123c565b03610ec45761ffff8a5116610e22576001600160601b038c5116610eb5578551610aca5763450ea79f60e01b5f5260045ffd5b631a41dc8760e21b5f5260045ffd5b63177c8e8560e01b5f5260045ffd5b6328ec9dad60e21b5f5260045ffd5b638939d88f60e01b5f5260045ffd5b6362386fbf60e11b5f5260045ffd5b3461012057604036600319011261012057610f1961111a565b60243563ffffffff8116810361012057610f456101f5916104d36101a094610f3f611524565b50611373565b50611583565b3461012057606036600319011261012057610f6461111a565b610f6c611130565b610f7461122b565b91610f7d611c16565b61271061ffff84161161042d57610f93906113ab565b8054640100000000600160c01b031963ffffffff1990911660109490941b63ffff000016939093176001179290921660209190911b640100000000600160c01b0316179055005b60a036600319011261012057610fee61111a565b610ff6611130565b610ffe611146565b606435926001600160401b0384116101205761102161026d9436906004016111e5565b9161102a611107565b936110336116ea565b604051926110426020856111a9565b5f8452611be1565b34610120576020366003190112610120576110636110f4565b61106c33611373565b5463ffffffff8216101561055957611087906104d333611373565b50805460ff8160201c1661109a8161123c565b801561054a576001906110ac8161123c565b0361054a5764ff0000000019166402000000001781556040517f5e764a018c7d818c08df5a463eae7312e1f838a42ac1d2276206ff7148ea4e5a918190610545903383611448565b6004359063ffffffff8216820361012057565b6084359063ffffffff8216820361012057565b600435906001600160a01b038216820361012057565b602435906001600160a01b038216820361012057565b604435906001600160401b038216820361012057565b602435906001600160401b038216820361012057565b6101a081019081106001600160401b03821117610d9b57604052565b606081019081106001600160401b03821117610d9b57604052565b90601f801991011681019081106001600160401b03821117610d9b57604052565b6001600160401b038111610d9b57601f01601f191660200190565b81601f82011215610120578035906111fc826111ca565b9261120a60405194856111a9565b8284526020838301011161012057815f926020809301838601378301015290565b6044359061ffff8216820361012057565b6003111561124657565b634e487b7160e01b5f52602160045260245ffd5b610180809163ffffffff815116845260208101516112778161123c565b6020850152604081015161128a8161123c565b604085015261ffff606082015116606085015263ffffffff608082015116608085015260018060a01b0360a08201511660a085015260018060a01b0360c08201511660c08501526001600160601b0360e08201511660e08501526001600160401b03610100820151166101008501526001600160401b03610120820151166101208501526001600160401b03610140820151166101408501526001600160401b03610160820151166101608501520151910152565b6044359060ff8216820361012057565b805180835260209291819084018484015e5f828201840152601f01601f1916010190565b6001600160a01b03165f9081527f9579d02970471cd8d5ac819714a969ec86c15010903f2a1dfec179aa98f14b026020526040902090565b6001600160a01b03165f9081527f9579d02970471cd8d5ac819714a969ec86c15010903f2a1dfec179aa98f14b016020526040902090565b6001600160a01b03165f9081527f9579d02970471cd8d5ac819714a969ec86c15010903f2a1dfec179aa98f14b036020526040902090565b8054821015611434575f5260205f209060021b01905f90565b634e487b7160e01b5f52603260045260245ffd5b90929160036101a0916101c084019560018060a01b03168452805463ffffffff8116602086015260ff8160201c1661147f8161123c565b604086015260ff8160281c166114948161123c565b606086015261ffff8160301c16608086015263ffffffff8160401c1660a086015260601c60c0850152600181015460018060a01b03811660e086015260a01c61010085015260028101546001600160401b0381166101208601526001600160401b038160401c166101408601526001600160401b038160801c1661016086015260c01c6101808501520154910152565b6040519061153182611172565b5f610180838281528260208201528260408201528260608201528260808201528260a08201528260c08201528260e0820152826101008201528261012082015282610140820152826101608201520152565b9060405161159081611172565b61018060038294805463ffffffff8116855260ff8160201c166115b28161123c565b602086015260ff8160281c166115c78161123c565b604086015261ffff8160301c16606086015263ffffffff8160401c16608086015260601c60a0850152600181015460018060a01b03811660c086015260a01c60e085015260028101546001600160401b0381166101008601526001600160401b038160401c166101208601526001600160401b038160801c1661014086015260c01c6101608501520154910152565b6001600160a01b0390911681526101c081019291611677916020019061125a565b565b6001600160a01b031680156116d7575f51602061228d5f395f51905f5280546001600160a01b0319811683179091556001600160a01b03167f8be0079c531659141344cd1fd0a4f28419497f9722a3daafe3b4186f6b6457e05f80a3565b631e4fbdf760e01b5f525f60045260245ffd5b60025f54146116f95760025f55565b633ee5aeb560e01b5f5260045ffd5b93929192611714611524565b5061171e82611373565b541561055957611734610f455f6104d385611373565b90600160208301516117458161123c565b61174e8161123c565b14801590611bc1575b8015611ba0575b8015611b89575b8015611b71575b611b625761177b913390611e84565b93611785336113e3565b60018060a01b0383165f5260205260405f205460018101809111611a665761ffff60608701511610611b53576117ba336113e3565b60018060a01b0383165f5260205260405f2080549060018201809211611a66575560c08501805160e08701805190916001600160601b03909116906001600160a01b031680611b1357503403611b04575b865194608088015163ffffffff1695610100890151946101208a015192600160a01b6001900388169889946040519889958695636101f8e960e01b8752336004880152600160a01b60019003169d8e60248801526001600160401b0316604487015260201b67ffffffff00000000169160401b67ffffffffffffffff60401b16906001600160401b0360801b9060801b1617171760648301526084820160a0905260a482016118b99161134f565b03815a6040945f91f1928315611af9575f905f94611a9e575b506001600160e01b031916639efe071760e01b01611a8f5751905160a096909601516001600160a01b039687169616926001600160601b039091169061ffff61191a826113ab565b541615611a7a5761192a906113ab565b905b604051916119398361118e565b549161ffff83168152604061ffff8460101c1691826020820152019260018060a01b039060201c168352808202908282041482151715611a66576127106001600160601b0391041693848203916001600160601b038311611a665792517f4297e00d7d19561ef46dcdc9ae748a99fac40554ad71dfd70b75f687647a3c8f98610140986001600160601b0395926001600160a01b03168015611a3b576001600160401b0390975b6119eb8787866120ff565b6119f68a8a866120ff565b604080519b8c52911660208b015233908a01526060890152608088015260a087015260c08601521660e08401526001600160a01b0316610100830152610120820152a1565b505f5160206122ed5f395f51905f525460201c6001600160a01b0316966001600160401b03906119e0565b634e487b7160e01b5f52601160045260245ffd5b505f5160206122ed5f395f51905f529061192c565b6324c8680360e01b5f5260045ffd5b9350506040833d604011611af1575b81611aba604093836111a9565b81010312610120578251926001600160e01b0319841684036101205760200151926001600160401b0384168403610120575f6118d2565b3d9150611aad565b6040513d5f823e3d90fd5b631bfefceb60e31b5f5260045ffd5b90611b4e91604051916323b872dd60e01b6020840152306024840152306044840152606483015260648252611b496084836111a9565b612216565b61180b565b637f01257d60e11b5f5260045ffd5b638476637960e01b5f5260045ffd5b506001600160401b036101608301511642101561176c565b506001600160401b03610140830151164210611765565b506001600160401b03610120830151166001600160401b038616101561175e565b506001600160401b03610100830151166001600160401b03861610611757565b9493909193611bee611524565b50611bf883611373565b5463ffffffff8216101561055957610f45611734916104d385611373565b5f51602061228d5f395f51905f52546001600160a01b03163303611c3657565b63118cdaa760e01b5f523360045260245ffd5b611c5890929192610f3f611524565b805492905f5b848110611c7457638476637960e01b5f5260045ffd5b611c81610f45828461141b565b60016020820151611c918161123c565b611c9a8161123c565b1480611d47575b80611d27575b80611d0f575b80611cf8575b80611ccf575b611cc65750600101611c5e565b94505050505090565b5060ff856001826040850151611ce48161123c565b611ced8161123c565b161b16161515611cb9565b506001600160401b03610160820151164210611cb3565b506001600160401b0361014082015116421015611cad565b506001600160401b03610120820151166001600160401b03851610611ca7565b506001600160401b03610100820151166001600160401b0385161015611ca1565b611d7c63ffffffff91949394610f3f611524565b9316928054935b848110611d9957638476637960e01b5f5260045ffd5b611da6610f45828461141b565b60016020820151611db68161123c565b611dbf8161123c565b1480611e63575b80611e43575b80611e2b575b80611e14575b80611deb575b611cc65750600101611d83565b5060ff856001826040850151611e008161123c565b611e098161123c565b161b16161515611dde565b506001600160401b03610160820151164210611dd8565b506001600160401b0361014082015116421015611dd2565b506001600160401b03610120820151166001600160401b03851610611dcc565b506001600160401b03610100820151166001600160401b0385161015611dc6565b91611e8d611524565b50604083018051611e9d8161123c565b611ea68161123c565b611ec45750905051611eb55790565b63da3e47d360e01b5f5260045ffd5b60018151611ed18161123c565b611eda8161123c565b03611f525750908151820191602081840312610120576020810151906001600160401b038211610120576020611f189281611f4a9601920101612047565b90604051602081019160018060a01b0316825260208152611f3a6040826111a9565b51902090610180840151906120ae565b15611eb55790565b60029051611f5f8161123c565b611f688161123c565b03610ec45780518101606082820312610120576020820151926001600160601b0384168094036101205760408301519261ffff8416809403610120576060810151906001600160401b038211610120576020611fcc928161200a9601920101612047565b90604051602081019160018060a01b0316825285604082015284606082015260608152611ffa6080826111a9565b51902090610180860151906120ae565b15611eb557606083015260e082015290565b60ff5f5160206122cd5f395f51905f525460401c161561203857565b631afcd79f60e31b5f5260045ffd5b9080601f83011215610120578151916001600160401b038311610d9b578260051b906040519361207a60208401866111a9565b845260208085019282010192831161012057602001905b82821061209e5750505090565b8151815260209182019101612091565b929091905f915b84518310156120f75760208360051b86010151908181105f146120e6575f52602052600160405f205b9201916120b5565b905f52602052600160405f206120de565b915092501490565b9091906001600160a01b03168061216257506001600160601b03169081471061214b575f918291829182916001600160a01b03165af161213d6121a2565b90156121465750565b61226e565b504763cf47918160e01b5f5260045260245260445ffd5b6001600160601b0361167793926040519363a9059cbb60e01b602086015260018060a01b0316602485015216604483015260448252611b496064836111a9565b3d156121cc573d906121b3826111ca565b916121c160405193846111a9565b82523d5f602084013e565b606090565b906121dc575061226e565b8151158061220d575b6121ed575090565b639996b31560e01b5f9081526001600160a01b0391909116600452602490fd5b50803b156121e5565b905f602091828151910182855af115611af9575f513d61226557506001600160a01b0381163b155b6122455750565b635274afe760e01b5f9081526001600160a01b0391909116600452602490fd5b6001141561223e565b80511561227d57805190602001fd5b63d6bda27560e01b5f5260045ffdfe9016d09d72d40fdae2fd8ceac6b6234c7706214fd39c1cd1e609a0528c199300360894a13ba1a3210667c828492db98dca3e2076cc3735a920a3ca505d382bbcf0c57e16840df040f15088dc2f81fe391c3923bec73e23a9662efc9c229c6a009579d02970471cd8d5ac819714a969ec86c15010903f2a1dfec179aa98f14b00a26469706673582212208eccce6cd4552eb0da3510a3fde007511d8750435927019fbd2788a6a66b236b64736f6c634300081c0033","linkReferences":{}},"methodIdentifiers":{"UPGRADE_INTERFACE_VERSION()":"ad3cb1cc","initialize(address,address,uint16)":"7ebef529","mint(address,address,uint64)":"7110f02a","mint(address,address,uint64,bytes)":"99afab45","mint(address,address,uint64,bytes,bytes,uint32)":"5133a06d","mint(address,address,uint64,bytes,uint32)":"170af008","mintPolicyAdd((uint32,uint8,uint8,uint16,uint32,address,address,uint96,uint64,uint64,uint64,uint64,bytes32))":"464d3992","mintPolicyCount(address)":"a3c28595","mintPolicyDisable(uint32)":"030e6314","mintPolicyEnable(uint32)":"71835451","mintPolicyGet(address,uint32)":"280560b9","mintPolicySearch(address,uint64,uint8)":"9fba03b5","mintPolicySearch(address,uint64,uint8,uint32)":"67aa2a8a","owner()":"8da5cb5b","proxiableUUID()":"52d1902d","renounceOwnership()":"715018a6","semver()":"cda493c8","setFeeConfig(address,address,uint16)":"1b8cbc8d","transferOwnership(address)":"f2fde38b","upgradeToAndCall(address,bytes)":"4f1ef286"},"id":2}