{"abi":[{"type":"function","name":"UPGRADE_INTERFACE_VERSION","inputs":[],"outputs":[{"name":"","type":"string","internalType":"string"}],"stateMutability":"view"},{"type":"function","name":"allowFrom","inputs":[{"name":"grantId","type":"uint32","internalType":"uint32"},{"name":"sender","type":"address","internalType":"address"},{"name":"tail","type":"uint128","internalType":"uint128"},{"name":"rel","type":"uint64","internalType":"uint64"},{"name":"headKind","type":"uint64","internalType":"uint64"},{"name":"headSet","type":"uint64","internalType":"uint64"}],"outputs":[{"name":"allow","type":"bool","internalType":"bool"}],"stateMutability":"view"},{"type":"function","name":"allowTo","inputs":[{"name":"grantId","type":"uint32","internalType":"uint32"},{"name":"sender","type":"address","internalType":"address"},{"name":"head","type":"uint128","internalType":"uint128"},{"name":"rel","type":"uint64","internalType":"uint64"},{"name":"tailKind","type":"uint64","internalType":"uint64"},{"name":"tailSet","type":"uint64","internalType":"uint64"}],"outputs":[{"name":"","type":"bool","internalType":"bool"}],"stateMutability":"view"},{"type":"function","name":"elementRegistry","inputs":[],"outputs":[{"name":"","type":"address","internalType":"address"}],"stateMutability":"view"},{"type":"function","name":"grantFrom","inputs":[{"name":"tail","type":"uint128","internalType":"uint128"},{"name":"grant","type":"tuple","internalType":"struct RelationGrant","components":[{"name":"id","type":"uint32","internalType":"uint32"},{"name":"status","type":"uint8","internalType":"uint8"},{"name":"initiator","type":"uint8","internalType":"enum RelationInitiator"},{"name":"reserved","type":"uint16","internalType":"uint16"},{"name":"rel","type":"uint64","internalType":"uint64"},{"name":"kind","type":"uint64","internalType":"uint64"},{"name":"set","type":"uint64","internalType":"uint64"},{"name":"extra","type":"bytes32","internalType":"bytes32"}]}],"outputs":[],"stateMutability":"nonpayable"},{"type":"function","name":"grantTo","inputs":[{"name":"head","type":"uint128","internalType":"uint128"},{"name":"grant","type":"tuple","internalType":"struct RelationGrant","components":[{"name":"id","type":"uint32","internalType":"uint32"},{"name":"status","type":"uint8","internalType":"uint8"},{"name":"initiator","type":"uint8","internalType":"enum RelationInitiator"},{"name":"reserved","type":"uint16","internalType":"uint16"},{"name":"rel","type":"uint64","internalType":"uint64"},{"name":"kind","type":"uint64","internalType":"uint64"},{"name":"set","type":"uint64","internalType":"uint64"},{"name":"extra","type":"bytes32","internalType":"bytes32"}]}],"outputs":[],"stateMutability":"nonpayable"},{"type":"function","name":"initialize","inputs":[{"name":"owner","type":"address","internalType":"address"},{"name":"setr","type":"address","internalType":"address"},{"name":"kindr","type":"address","internalType":"address"},{"name":"elemr","type":"address","internalType":"address"}],"outputs":[],"stateMutability":"nonpayable"},{"type":"function","name":"kindRegistry","inputs":[],"outputs":[{"name":"","type":"address","internalType":"address"}],"stateMutability":"view"},{"type":"function","name":"omniRegistry","inputs":[],"outputs":[{"name":"","type":"address","internalType":"address"}],"stateMutability":"view"},{"type":"function","name":"owner","inputs":[],"outputs":[{"name":"","type":"address","internalType":"address"}],"stateMutability":"view"},{"type":"function","name":"proxiableUUID","inputs":[],"outputs":[{"name":"","type":"bytes32","internalType":"bytes32"}],"stateMutability":"view"},{"type":"function","name":"relate","inputs":[{"name":"tail","type":"uint256","internalType":"uint256"},{"name":"rel","type":"uint64","internalType":"uint64"},{"name":"head","type":"uint256","internalType":"uint256"}],"outputs":[],"stateMutability":"nonpayable"},{"type":"function","name":"relationAdmit","inputs":[{"name":"id","type":"uint64","internalType":"uint64"},{"name":"rev","type":"uint32","internalType":"uint32"},{"name":"kind","type":"uint64","internalType":"uint64"}],"outputs":[{"name":"admit","type":"bool","internalType":"bool"},{"name":"effKind","type":"uint48","internalType":"uint48"},{"name":"effDegs","type":"uint16","internalType":"uint16"},{"name":"totalKind","type":"uint48","internalType":"uint48"},{"name":"totalDegs","type":"uint16","internalType":"uint16"}],"stateMutability":"view"},{"type":"function","name":"relationDescriptor","inputs":[{"name":"id","type":"uint64","internalType":"uint64"},{"name":"rev0","type":"uint32","internalType":"uint32"}],"outputs":[{"name":"desc","type":"tuple","internalType":"struct Descriptor","components":[{"name":"traits","type":"uint32","internalType":"uint32"},{"name":"rev","type":"uint32","internalType":"uint32"},{"name":"kindRev","type":"uint32","internalType":"uint32"},{"name":"setRev","type":"uint32","internalType":"uint32"},{"name":"kindId","type":"uint64","internalType":"uint64"},{"name":"setId","type":"uint64","internalType":"uint64"}]}],"stateMutability":"view"},{"type":"function","name":"relationOwner","inputs":[{"name":"id","type":"uint64","internalType":"uint64"}],"outputs":[{"name":"owner","type":"address","internalType":"address"}],"stateMutability":"view"},{"type":"function","name":"relationRegister","inputs":[{"name":"code","type":"address","internalType":"address"},{"name":"data","type":"bytes32","internalType":"bytes32"},{"name":"rule","type":"tuple","internalType":"struct RelationRule","components":[{"name":"version","type":"uint8","internalType":"uint8"},{"name":"relateShift","type":"uint8","internalType":"enum RelationOwnerShift"},{"name":"terminator","type":"uint8","internalType":"enum RelationTerminator"},{"name":"unrelateShift","type":"uint8","internalType":"enum RelationOwnerShift"},{"name":"unrelateDelay","type":"uint64","internalType":"uint64"},{"name":"extra","type":"bytes20","internalType":"bytes20"}]},{"name":"adjs","type":"tuple[]","internalType":"struct Adjacency[]","components":[{"name":"degs","type":"uint16","internalType":"uint16"},{"name":"kind","type":"uint48","internalType":"uint48"}]}],"outputs":[{"name":"id","type":"uint64","internalType":"uint64"},{"name":"meta","type":"tuple","internalType":"struct Descriptor","components":[{"name":"traits","type":"uint32","internalType":"uint32"},{"name":"rev","type":"uint32","internalType":"uint32"},{"name":"kindRev","type":"uint32","internalType":"uint32"},{"name":"setRev","type":"uint32","internalType":"uint32"},{"name":"kindId","type":"uint64","internalType":"uint64"},{"name":"setId","type":"uint64","internalType":"uint64"}]}],"stateMutability":"nonpayable"},{"type":"function","name":"relationRevision","inputs":[{"name":"id","type":"uint64","internalType":"uint64"},{"name":"rev0","type":"uint32","internalType":"uint32"}],"outputs":[{"name":"rev","type":"uint32","internalType":"uint32"}],"stateMutability":"view"},{"type":"function","name":"relationRule","inputs":[{"name":"id","type":"uint64","internalType":"uint64"}],"outputs":[{"name":"rule","type":"tuple","internalType":"struct RelationRule","components":[{"name":"version","type":"uint8","internalType":"uint8"},{"name":"relateShift","type":"uint8","internalType":"enum RelationOwnerShift"},{"name":"terminator","type":"uint8","internalType":"enum RelationTerminator"},{"name":"unrelateShift","type":"uint8","internalType":"enum RelationOwnerShift"},{"name":"unrelateDelay","type":"uint64","internalType":"uint64"},{"name":"extra","type":"bytes20","internalType":"bytes20"}]}],"stateMutability":"view"},{"type":"function","name":"relationSnapshot","inputs":[{"name":"id","type":"uint64","internalType":"uint64"},{"name":"rev0","type":"uint32","internalType":"uint32"}],"outputs":[{"name":"desc","type":"tuple","internalType":"struct Descriptor","components":[{"name":"traits","type":"uint32","internalType":"uint32"},{"name":"rev","type":"uint32","internalType":"uint32"},{"name":"kindRev","type":"uint32","internalType":"uint32"},{"name":"setRev","type":"uint32","internalType":"uint32"},{"name":"kindId","type":"uint64","internalType":"uint64"},{"name":"setId","type":"uint64","internalType":"uint64"}]},{"name":"elems","type":"bytes32[]","internalType":"bytes32[]"}],"stateMutability":"view"},{"type":"function","name":"relationSota","inputs":[{"name":"id","type":"uint64","internalType":"uint64"}],"outputs":[{"name":"desc","type":"tuple","internalType":"struct Descriptor","components":[{"name":"traits","type":"uint32","internalType":"uint32"},{"name":"rev","type":"uint32","internalType":"uint32"},{"name":"kindRev","type":"uint32","internalType":"uint32"},{"name":"setRev","type":"uint32","internalType":"uint32"},{"name":"kindId","type":"uint64","internalType":"uint64"},{"name":"setId","type":"uint64","internalType":"uint64"}]},{"name":"owner","type":"address","internalType":"address"}],"stateMutability":"view"},{"type":"function","name":"relationStatus","inputs":[{"name":"ids","type":"uint64[]","internalType":"uint64[]"}],"outputs":[{"name":"active","type":"bool","internalType":"bool"}],"stateMutability":"view"},{"type":"function","name":"relationTouch","inputs":[{"name":"id","type":"uint64","internalType":"uint64"}],"outputs":[{"name":"meta","type":"tuple","internalType":"struct Descriptor","components":[{"name":"traits","type":"uint32","internalType":"uint32"},{"name":"rev","type":"uint32","internalType":"uint32"},{"name":"kindRev","type":"uint32","internalType":"uint32"},{"name":"setRev","type":"uint32","internalType":"uint32"},{"name":"kindId","type":"uint64","internalType":"uint64"},{"name":"setId","type":"uint64","internalType":"uint64"}]}],"stateMutability":"nonpayable"},{"type":"function","name":"relationTransfer","inputs":[{"name":"id","type":"uint64","internalType":"uint64"},{"name":"to","type":"address","internalType":"address"}],"outputs":[{"name":"from","type":"address","internalType":"address"}],"stateMutability":"nonpayable"},{"type":"function","name":"relationUpdate","inputs":[{"name":"id","type":"uint64","internalType":"uint64"},{"name":"data","type":"bytes32","internalType":"bytes32"}],"outputs":[{"name":"meta","type":"tuple","internalType":"struct Descriptor","components":[{"name":"traits","type":"uint32","internalType":"uint32"},{"name":"rev","type":"uint32","internalType":"uint32"},{"name":"kindRev","type":"uint32","internalType":"uint32"},{"name":"setRev","type":"uint32","internalType":"uint32"},{"name":"kindId","type":"uint64","internalType":"uint64"},{"name":"setId","type":"uint64","internalType":"uint64"}]}],"stateMutability":"nonpayable"},{"type":"function","name":"relationUpdate","inputs":[{"name":"id","type":"uint64","internalType":"uint64"},{"name":"data","type":"bytes32","internalType":"bytes32"},{"name":"adjs","type":"tuple[]","internalType":"struct Adjacency[]","components":[{"name":"degs","type":"uint16","internalType":"uint16"},{"name":"kind","type":"uint48","internalType":"uint48"}]}],"outputs":[{"name":"meta","type":"tuple","internalType":"struct Descriptor","components":[{"name":"traits","type":"uint32","internalType":"uint32"},{"name":"rev","type":"uint32","internalType":"uint32"},{"name":"kindRev","type":"uint32","internalType":"uint32"},{"name":"setRev","type":"uint32","internalType":"uint32"},{"name":"kindId","type":"uint64","internalType":"uint64"},{"name":"setId","type":"uint64","internalType":"uint64"}]}],"stateMutability":"nonpayable"},{"type":"function","name":"relationUpgrade","inputs":[{"name":"id","type":"uint64","internalType":"uint64"},{"name":"kindRev","type":"uint32","internalType":"uint32"},{"name":"setRev","type":"uint32","internalType":"uint32"}],"outputs":[{"name":"meta","type":"tuple","internalType":"struct Descriptor","components":[{"name":"traits","type":"uint32","internalType":"uint32"},{"name":"rev","type":"uint32","internalType":"uint32"},{"name":"kindRev","type":"uint32","internalType":"uint32"},{"name":"setRev","type":"uint32","internalType":"uint32"},{"name":"kindId","type":"uint64","internalType":"uint64"},{"name":"setId","type":"uint64","internalType":"uint64"}]}],"stateMutability":"nonpayable"},{"type":"function","name":"renounceOwnership","inputs":[],"outputs":[],"stateMutability":"nonpayable"},{"type":"function","name":"revokeFrom","inputs":[{"name":"tail","type":"uint128","internalType":"uint128"},{"name":"grantId","type":"uint32","internalType":"uint32"}],"outputs":[],"stateMutability":"nonpayable"},{"type":"function","name":"revokeTo","inputs":[{"name":"head","type":"uint128","internalType":"uint128"},{"name":"grantId","type":"uint32","internalType":"uint32"}],"outputs":[],"stateMutability":"nonpayable"},{"type":"function","name":"semver","inputs":[],"outputs":[{"name":"version","type":"uint32","internalType":"uint32"}],"stateMutability":"pure"},{"type":"function","name":"setRegistry","inputs":[],"outputs":[{"name":"","type":"address","internalType":"address"}],"stateMutability":"view"},{"type":"function","name":"transferOwnership","inputs":[{"name":"newOwner","type":"address","internalType":"address"}],"outputs":[],"stateMutability":"nonpayable"},{"type":"function","name":"unrelate","inputs":[{"name":"tail","type":"uint256","internalType":"uint256"},{"name":"rel","type":"uint64","internalType":"uint64"},{"name":"head","type":"uint256","internalType":"uint256"}],"outputs":[],"stateMutability":"nonpayable"},{"type":"function","name":"upgradeToAndCall","inputs":[{"name":"newImplementation","type":"address","internalType":"address"},{"name":"data","type":"bytes","internalType":"bytes"}],"outputs":[],"stateMutability":"payable"},{"type":"event","name":"GrantFrom","inputs":[{"name":"tail","type":"uint128","indexed":false,"internalType":"uint128"},{"name":"grant","type":"tuple","indexed":false,"internalType":"struct RelationGrant","components":[{"name":"id","type":"uint32","internalType":"uint32"},{"name":"status","type":"uint8","internalType":"uint8"},{"name":"initiator","type":"uint8","internalType":"enum RelationInitiator"},{"name":"reserved","type":"uint16","internalType":"uint16"},{"name":"rel","type":"uint64","internalType":"uint64"},{"name":"kind","type":"uint64","internalType":"uint64"},{"name":"set","type":"uint64","internalType":"uint64"},{"name":"extra","type":"bytes32","internalType":"bytes32"}]}],"anonymous":false},{"type":"event","name":"GrantTo","inputs":[{"name":"head","type":"uint128","indexed":false,"internalType":"uint128"},{"name":"grant","type":"tuple","indexed":false,"internalType":"struct RelationGrant","components":[{"name":"id","type":"uint32","internalType":"uint32"},{"name":"status","type":"uint8","internalType":"uint8"},{"name":"initiator","type":"uint8","internalType":"enum RelationInitiator"},{"name":"reserved","type":"uint16","internalType":"uint16"},{"name":"rel","type":"uint64","internalType":"uint64"},{"name":"kind","type":"uint64","internalType":"uint64"},{"name":"set","type":"uint64","internalType":"uint64"},{"name":"extra","type":"bytes32","internalType":"bytes32"}]}],"anonymous":false},{"type":"event","name":"Initialized","inputs":[{"name":"version","type":"uint64","indexed":false,"internalType":"uint64"}],"anonymous":false},{"type":"event","name":"OwnershipTransferred","inputs":[{"name":"previousOwner","type":"address","indexed":true,"internalType":"address"},{"name":"newOwner","type":"address","indexed":true,"internalType":"address"}],"anonymous":false},{"type":"event","name":"Related","inputs":[{"name":"head","type":"uint128","indexed":false,"internalType":"uint128"},{"name":"desc","type":"tuple","indexed":false,"internalType":"struct Descriptor","components":[{"name":"traits","type":"uint32","internalType":"uint32"},{"name":"rev","type":"uint32","internalType":"uint32"},{"name":"kindRev","type":"uint32","internalType":"uint32"},{"name":"setRev","type":"uint32","internalType":"uint32"},{"name":"kindId","type":"uint64","internalType":"uint64"},{"name":"setId","type":"uint64","internalType":"uint64"}]},{"name":"arc","type":"uint256","indexed":false,"internalType":"uint256"}],"anonymous":false},{"type":"event","name":"Related","inputs":[{"name":"head","type":"uint128","indexed":false,"internalType":"uint128"},{"name":"desc","type":"tuple","indexed":false,"internalType":"struct Descriptor","components":[{"name":"traits","type":"uint32","internalType":"uint32"},{"name":"rev","type":"uint32","internalType":"uint32"},{"name":"kindRev","type":"uint32","internalType":"uint32"},{"name":"setRev","type":"uint32","internalType":"uint32"},{"name":"kindId","type":"uint64","internalType":"uint64"},{"name":"setId","type":"uint64","internalType":"uint64"}]},{"name":"arcs","type":"uint256[]","indexed":false,"internalType":"uint256[]"}],"anonymous":false},{"type":"event","name":"RelationRegistered","inputs":[{"name":"id","type":"uint64","indexed":false,"internalType":"uint64"},{"name":"desc","type":"tuple","indexed":false,"internalType":"struct Descriptor","components":[{"name":"traits","type":"uint32","internalType":"uint32"},{"name":"rev","type":"uint32","internalType":"uint32"},{"name":"kindRev","type":"uint32","internalType":"uint32"},{"name":"setRev","type":"uint32","internalType":"uint32"},{"name":"kindId","type":"uint64","internalType":"uint64"},{"name":"setId","type":"uint64","internalType":"uint64"}]},{"name":"code","type":"address","indexed":false,"internalType":"address"},{"name":"data","type":"bytes32","indexed":false,"internalType":"bytes32"},{"name":"rule","type":"tuple","indexed":false,"internalType":"struct RelationRule","components":[{"name":"version","type":"uint8","internalType":"uint8"},{"name":"relateShift","type":"uint8","internalType":"enum RelationOwnerShift"},{"name":"terminator","type":"uint8","internalType":"enum RelationTerminator"},{"name":"unrelateShift","type":"uint8","internalType":"enum RelationOwnerShift"},{"name":"unrelateDelay","type":"uint64","internalType":"uint64"},{"name":"extra","type":"bytes20","internalType":"bytes20"}]},{"name":"adjs","type":"tuple[]","indexed":false,"internalType":"struct Adjacency[]","components":[{"name":"degs","type":"uint16","internalType":"uint16"},{"name":"kind","type":"uint48","internalType":"uint48"}]},{"name":"owner","type":"address","indexed":false,"internalType":"address"}],"anonymous":false},{"type":"event","name":"RelationTouched","inputs":[{"name":"id","type":"uint64","indexed":false,"internalType":"uint64"},{"name":"desc","type":"tuple","indexed":false,"internalType":"struct Descriptor","components":[{"name":"traits","type":"uint32","internalType":"uint32"},{"name":"rev","type":"uint32","internalType":"uint32"},{"name":"kindRev","type":"uint32","internalType":"uint32"},{"name":"setRev","type":"uint32","internalType":"uint32"},{"name":"kindId","type":"uint64","internalType":"uint64"},{"name":"setId","type":"uint64","internalType":"uint64"}]}],"anonymous":false},{"type":"event","name":"RelationTransferred","inputs":[{"name":"id","type":"uint64","indexed":false,"internalType":"uint64"},{"name":"from","type":"address","indexed":false,"internalType":"address"},{"name":"to","type":"address","indexed":false,"internalType":"address"}],"anonymous":false},{"type":"event","name":"RelationUpdated","inputs":[{"name":"id","type":"uint64","indexed":false,"internalType":"uint64"},{"name":"desc","type":"tuple","indexed":false,"internalType":"struct Descriptor","components":[{"name":"traits","type":"uint32","internalType":"uint32"},{"name":"rev","type":"uint32","internalType":"uint32"},{"name":"kindRev","type":"uint32","internalType":"uint32"},{"name":"setRev","type":"uint32","internalType":"uint32"},{"name":"kindId","type":"uint64","internalType":"uint64"},{"name":"setId","type":"uint64","internalType":"uint64"}]},{"name":"data","type":"bytes32","indexed":false,"internalType":"bytes32"}],"anonymous":false},{"type":"event","name":"RelationUpgraded","inputs":[{"name":"id","type":"uint64","indexed":false,"internalType":"uint64"},{"name":"desc","type":"tuple","indexed":false,"internalType":"struct Descriptor","components":[{"name":"traits","type":"uint32","internalType":"uint32"},{"name":"rev","type":"uint32","internalType":"uint32"},{"name":"kindRev","type":"uint32","internalType":"uint32"},{"name":"setRev","type":"uint32","internalType":"uint32"},{"name":"kindId","type":"uint64","internalType":"uint64"},{"name":"setId","type":"uint64","internalType":"uint64"}]}],"anonymous":false},{"type":"event","name":"RevokeFrom","inputs":[{"name":"tail","type":"uint128","indexed":false,"internalType":"uint128"},{"name":"grantId","type":"uint32","indexed":false,"internalType":"uint32"}],"anonymous":false},{"type":"event","name":"RevokeTo","inputs":[{"name":"head","type":"uint128","indexed":false,"internalType":"uint128"},{"name":"grantId","type":"uint32","indexed":false,"internalType":"uint32"}],"anonymous":false},{"type":"event","name":"Unrelated","inputs":[{"name":"head","type":"uint128","indexed":false,"internalType":"uint128"},{"name":"desc","type":"tuple","indexed":false,"internalType":"struct Descriptor","components":[{"name":"traits","type":"uint32","internalType":"uint32"},{"name":"rev","type":"uint32","internalType":"uint32"},{"name":"kindRev","type":"uint32","internalType":"uint32"},{"name":"setRev","type":"uint32","internalType":"uint32"},{"name":"kindId","type":"uint64","internalType":"uint64"},{"name":"setId","type":"uint64","internalType":"uint64"}]},{"name":"arc","type":"uint256","indexed":false,"internalType":"uint256"}],"anonymous":false},{"type":"event","name":"Unrelated","inputs":[{"name":"head","type":"uint128","indexed":false,"internalType":"uint128"},{"name":"desc","type":"tuple","indexed":false,"internalType":"struct Descriptor","components":[{"name":"traits","type":"uint32","internalType":"uint32"},{"name":"rev","type":"uint32","internalType":"uint32"},{"name":"kindRev","type":"uint32","internalType":"uint32"},{"name":"setRev","type":"uint32","internalType":"uint32"},{"name":"kindId","type":"uint64","internalType":"uint64"},{"name":"setId","type":"uint64","internalType":"uint64"}]},{"name":"arcs","type":"uint256[]","indexed":false,"internalType":"uint256[]"}],"anonymous":false},{"type":"event","name":"Upgraded","inputs":[{"name":"implementation","type":"address","indexed":true,"internalType":"address"}],"anonymous":false},{"type":"error","name":"AddressEmptyCode","inputs":[{"name":"target","type":"address","internalType":"address"}]},{"type":"error","name":"AdjacencyKindNotExist","inputs":[]},{"type":"error","name":"AdjacencyOverflow","inputs":[]},{"type":"error","name":"AdjacencyUnderflow","inputs":[]},{"type":"error","name":"AdjacencyUnordered","inputs":[]},{"type":"error","name":"ArcExists","inputs":[]},{"type":"error","name":"ArcMismatch","inputs":[]},{"type":"error","name":"ArcNotExist","inputs":[]},{"type":"error","name":"DegreeOverflow","inputs":[{"name":"kind","type":"uint48","internalType":"uint48"}]},{"type":"error","name":"DegreeUnderflow","inputs":[{"name":"kind","type":"uint48","internalType":"uint48"}]},{"type":"error","name":"ERC1967InvalidImplementation","inputs":[{"name":"implementation","type":"address","internalType":"address"}]},{"type":"error","name":"ERC1967NonPayable","inputs":[]},{"type":"error","name":"FailedCall","inputs":[]},{"type":"error","name":"GrantFilterKindInvalid","inputs":[]},{"type":"error","name":"GrantFilterRelationInvalid","inputs":[]},{"type":"error","name":"GrantFilterSetInvalid","inputs":[]},{"type":"error","name":"GrantInitiatorAnyoneExtraNotAllowed","inputs":[]},{"type":"error","name":"GrantInitiatorDelegateAddressInvalid","inputs":[]},{"type":"error","name":"GrantInitiatorEligibleAddressInvalid","inputs":[]},{"type":"error","name":"GrantInitiatorEligibleNotContract","inputs":[]},{"type":"error","name":"GrantInitiatorHolderObjectParamsInvalid","inputs":[]},{"type":"error","name":"GrantInitiatorHolderTokenTypeUnknown","inputs":[]},{"type":"error","name":"GrantInitiatorHolderUniqueParamsInvalid","inputs":[]},{"type":"error","name":"GrantInitiatorHolderValueParamsInvalid","inputs":[]},{"type":"error","name":"GrantInitiatorOwnerExtraNotAllowed","inputs":[]},{"type":"error","name":"GrantInitiatorTypeUnknown","inputs":[]},{"type":"error","name":"GrantNotFound","inputs":[]},{"type":"error","name":"GrantRevoked","inputs":[]},{"type":"error","name":"HeadKindRejectsRelation","inputs":[]},{"type":"error","name":"HeadSetRejectsTailObject","inputs":[]},{"type":"error","name":"InvalidCode","inputs":[]},{"type":"error","name":"InvalidData","inputs":[]},{"type":"error","name":"InvalidInitial","inputs":[]},{"type":"error","name":"InvalidInitialization","inputs":[]},{"type":"error","name":"InvalidKind","inputs":[]},{"type":"error","name":"InvalidRelateShift","inputs":[]},{"type":"error","name":"InvalidRelation","inputs":[]},{"type":"error","name":"InvalidUnrelateShift","inputs":[]},{"type":"error","name":"NotInitializing","inputs":[]},{"type":"error","name":"Overflow","inputs":[]},{"type":"error","name":"OwnableInvalidOwner","inputs":[{"name":"owner","type":"address","internalType":"address"}]},{"type":"error","name":"OwnableUnauthorizedAccount","inputs":[{"name":"account","type":"address","internalType":"address"}]},{"type":"error","name":"RecordNotExist","inputs":[{"name":"id","type":"uint64","internalType":"uint64"}]},{"type":"error","name":"RelationRejectsTailKind","inputs":[]},{"type":"error","name":"UUPSUnauthorizedCallContext","inputs":[]},{"type":"error","name":"UUPSUnsupportedProxiableUUID","inputs":[{"name":"slot","type":"bytes32","internalType":"bytes32"}]},{"type":"error","name":"Unauthorized","inputs":[]},{"type":"error","name":"UnauthorizedAccess","inputs":[{"name":"id","type":"uint64","internalType":"uint64"},{"name":"vistor","type":"address","internalType":"address"}]},{"type":"error","name":"Unimplemented","inputs":[]},{"type":"error","name":"UnrelateLocked","inputs":[]},{"type":"error","name":"UnsupportedHoldingState","inputs":[]}],"bytecode":{"object":"0x60a0806040523460295730608052615532908161002e823960805181818161165201526118300152f35b5f80fdfe60806040526004361015610011575f80fd5b5f5f3560e01c806305be88ac1461318857806306a883a0146130cc57806315ae71731461295f5780632392f87d146128765780632629dae8146128575780632aead72614611ec35780632c636a1114611e7b5780633440994b14611c965780633dae8c2814611b1c578063418239fb14611a025780634f1ef286146117b557806352393e1a146116db578063527f3e1f146116a657806352d1902d1461163f5780635634ad141461158b578063715018a614611522578063876993ca146113f55780638da5cb5b146113c0578063954fc712146112785780639e490e901461123e578063a926f041146110fa578063ac8b956b146110c5578063ad3cb1cc1461107c578063b19c379114611034578063b9f17a4714610af7578063bff9b97414610a23578063c9e2a1fb146107f0578063cda493c8146107d3578063df89b3fc1461070e578063eab25c4114610616578063ebeecfa3146104c1578063edd716f014610497578063f2fde38b1461046f5763f8c8765e14610190575f80fd5b3461046c57608036600319011261046c576101a9613590565b6101b16135a6565b6044356001600160a01b0381169081900361046a576064356001600160a01b0381169290839003610466575f51602061545d5f395f51905f52549360ff8560401c1615946001600160401b0381168015908161045e575b6001149081610454575b15908161044b575b5061043c5767ffffffffffffffff1981166001175f51602061545d5f395f51905f525561025e919086610410575b50610251615182565b610259615182565b613e83565b610266615182565b61026e615182565b60018060a01b03166001600160601b0360a01b5f5160206153fd5f395f51905f525416175f5160206153fd5f395f51905f5255306001600160601b0360a01b7f389a4784c2c3e8284bc1418c5b9cf4b556f52088a652459a6e23aae4f79027015416177f389a4784c2c3e8284bc1418c5b9cf4b556f52088a652459a6e23aae4f7902701556001600160601b0360a01b5f51602061547d5f395f51905f525416175f51602061547d5f395f51905f52556001600160601b0360a01b7f389a4784c2c3e8284bc1418c5b9cf4b556f52088a652459a6e23aae4f79027035416177f389a4784c2c3e8284bc1418c5b9cf4b556f52088a652459a6e23aae4f790270355610377615182565b601165ffffffffffff195f5160206154dd5f395f51905f525416175f5160206154dd5f395f51905f52556103a9615182565b6103b1615182565b6103b85780f35b68ff0000000000000000195f51602061545d5f395f51905f5254165f51602061545d5f395f51905f52557fc7f505b2f371ae2175ee4913f4499e1f2633a7b5936321eed1cdaeb6115181d2602060405160018152a180f35b68ffffffffffffffffff191668010000000000000001175f51602061545d5f395f51905f52555f610248565b63f92ee8a960e01b8752600487fd5b9050155f61021a565b303b159150610212565b879150610208565b8480fd5b835b80fd5b503461046c57602036600319011261046c5761049461048c613590565b61025961478b565b80f35b503461046c5760206104b76104ab366135bc565b94939093929192613d6e565b6040519015158152f35b503461046c57604036600319011261046c576104db613339565b6104e361340c565b602082901b600160201b600160a01b031663ffffffff821617600160a01b17918284525f5160206154bd5f395f51905f5260205260ff604085205460201c1615610607578284525f5160206154bd5f395f51905f52602052600260ff604086205460201c16146105f8578284525f5160206154bd5f395f51905f52602052600160ff604086205460201c1614610577578380f35b7fc9dbe135de02dd78e4f9241c7a751be6da4d2848fc9b92c3ad16116fe884b4dd9284525f5160206154bd5f395f51905f526020526040842064020000000064ff00000000198254161790556105ee6040519283928390929163ffffffff6020916001600160801b03604085019616845216910152565b0390a15f80808380f35b63af9adea160e01b8452600484fd5b633dc6547760e11b8452600484fd5b503461046c57604036600319011261046c576106618161063461341f565b61063c61340c565b9061064561387b565b5060405163340100c160e01b8152938492839260048401613bc4565b038173__$bfd2951eaa3e5aabb9283af4830755d90c$__5af490811561070357829083926106de575b50906040519283926106a08460e081019261350c565b60e060c08501528251809152602061010085019301915b8181106106c5575050500390f35b82518452859450602093840193909201916001016106b7565b90506106fc91503d8084833e6106f481836133eb565b810190613b3b565b905f61068a565b6040513d84823e3d90fd5b503461046c57604036600319011261046c5761075290602061072e61341f565b61073661340c565b60405163310ace3360e11b81529485928392906004840161394a565b038173__$bfd2951eaa3e5aabb9283af4830755d90c$__5af49081156107c757809161078a575b60208263ffffffff60405191168152f35b90506020823d6020116107bf575b816107a5602093836133eb565b8101031261046c57506107b96020916138ab565b5f610779565b3d9150610798565b604051903d90823e3d90fd5b503461046c578060031936011261046c5760206040516101008152f35b503461046c57606036600319011261046c5761080a61341f565b602435906044356001600160401b03811161046a5761082d90369060040161370e565b61083561387b565b508215610a1457610845816147be565b60405163340100c160e01b81529173__$bfd2951eaa3e5aabb9283af4830755d90c$__919086848061087a8860048301613bfe565b0381865af4938415610a09579160c093918895936109199899946109eb575b50886108a485613c56565b526108ae81614dcd565b906108b881614f39565b906108cb6108c582614ffc565b916150bf565b6108d487613c66565b526108de86613c76565b526108e885613c86565b526108f284613c96565b526108fc83613c31565b5260405180809781946314447f4f60e11b83528860048401613ced565b03915af49283156109de578193610973575b60c0847f86243bb113d9a8a43a582f97fd5e112834f3266cff2cd53f10c4eea05b8bfb5f81866109618a60405193849384613d20565b0390a1610971604051809261350c565bf35b9091925060c03d60c0116109d7575b61098c81836133eb565b81019160c08284031261046c575092610961926109cc7f86243bb113d9a8a43a582f97fd5e112834f3266cff2cd53f10c4eea05b8bfb5f9360c0966138d0565b93509181945061092b565b503d610982565b50604051903d90823e3d90fd5b610a009194503d8088833e6106f481836133eb565b9050925f610899565b6040513d89823e3d90fd5b635cb045db60e01b8452600484fd5b503461046c57602036600319011261046c57610a7f906020610a4361341f565b604051639101c02760e01b81525f51602061543d5f395f51905f5260048201526001600160401b03909116602482015292839081906044820190565b038173__$bfd2951eaa3e5aabb9283af4830755d90c$__5af49081156107c7578091610aba575b6040516001600160a01b0383168152602090f35b90506020823d602011610aef575b81610ad5602093836133eb565b8101031261046c5750610ae9602091613b05565b5f610aa6565b3d9150610ac8565b503461046c5761012036600319011261046c57610b12613590565b60243560c0366043190112610f2f5760405191610b2e8361337f565b60443560ff81168103610466578352606435600f811015610466576020840152608435600681101561046657604084015260a435600f81101561046657606084015260c4356001600160401b038116810361046657608084015260e4356bffffffffffffffffffffffff19811681036104665760a0840152610104356001600160401b03811161046657610bc690369060040161370e565b90610bcf61387b565b506001600160a01b03168061102557821561101657610bed826147be565b9465ffffffffffff5f5160206154dd5f395f51905f5254169465fffffffffffe8610156110075765ffffffffffff8614610ff35765ffffffffffff600187011665ffffffffffff195f5160206154dd5f395f51905f525416175f5160206154dd5f395f51905f5255610120604051610c6582826133eb565b6008815260208101601f198301368237815115610fdf5785905286610c8982613c56565b52805160021015610fcb57604498846060830152610ca687614dcd565b610caf88614f39565b610cb889614ffc565b610cc18a6150bf565b610cca86613c66565b52610cd485613c76565b52610cde84613c86565b52610ce883613c96565b52610cf282613c31565b525f51602061547d5f395f51905f5254604051638399ebdd60e01b81526003600482015260248101869052996020918b919082906001600160a01b03165afa988915610f33578499610f8f575b505f5160206153fd5f395f51905f525460405163386956c760e01b8152600360048201526024810186905290602090829060449082906001600160a01b03165afa908115610f84578591610f3e575b5063ffffffff908160209b60016040519d8e610da98161337f565b8a815201521660408c01521660608a0152600360808a0152600360a08a015273__$bfd2951eaa3e5aabb9283af4830755d90c$__803b1561046657610e2485918b8b610e3860405196879586948594634881a43960e01b86525f51602061543d5f395f51905f5260048701526024860152604485019061350c565b610140610104840152610144830190613cba565b3361012483015203915af48015610f3357908491610f1a575b505090610e889160409493945196610220880194898952610e7560208a018c61350c565b60e089015261010088015286019061367e565b6102206101e08501528251809152602061024085019301915b818110610eec5750505090807f090e1a52be5a331e1b485a02a3cd2962e5bd3131483cb39a9afb3894f65cd42892336102008301520390a1610ee8604051928392836137ad565b0390f35b8251805161ffff16855260209081015165ffffffffffff168186015260409094019390920191600101610ea1565b81610f24916133eb565b610f2f57825f610e51565b8280fd5b6040513d86823e3d90fd5b90506020813d602011610f7c575b81610f59602093836133eb565b810103126104665760209963ffffffff610f7381936138ab565b92505099610d8e565b3d9150610f4c565b6040513d87823e3d90fd5b9098506020813d602011610fc3575b81610fab602093836133eb565b8101031261046a57610fbc906138ab565b975f610d3f565b3d9150610f9e565b634e487b7160e01b84526032600452602484fd5b634e487b7160e01b85526032600452602485fd5b634e487b7160e01b82526011600452602482fd5b631a93c68960e11b8252600482fd5b635cb045db60e01b8552600485fd5b636e12839960e01b8552600485fd5b503461046c578060031936011261046c577f389a4784c2c3e8284bc1418c5b9cf4b556f52088a652459a6e23aae4f7902703546040516001600160a01b039091168152602090f35b503461046c578060031936011261046c5750610ee860405161109f6040826133eb565b60058152640352e302e360dc1b60208201526040519182916020835260208301906136ea565b503461046c578060031936011261046c575f5160206153fd5f395f51905f52546040516001600160a01b039091168152602090f35b503461046c57604036600319011261046c5761111461341f565b9061111d6135a6565b604051635640151160e11b81525f51602061543d5f395f51905f5260048201526001600160401b03841660248201526001600160a01b038216604482015290929060208160648173__$bfd2951eaa3e5aabb9283af4830755d90c$__5af49283156107c75780936111d4575b6020847f0380003014d3eb866ebb3263769d0a1ee8a22d65fb9ee45694fdff8a272296e981866111bf8a60405193849384613d44565b0390a16040516001600160a01b039091168152f35b909192506020823d602011611236575b816111f1602093836133eb565b8101031261046c57506020926111bf9261122b7f0380003014d3eb866ebb3263769d0a1ee8a22d65fb9ee45694fdff8a272296e993613b05565b935091819450611189565b3d91506111e4565b503461046c57602036600319011261046c5760c061126b61125d61341f565b61126561387b565b5061467b565b610971604051809261367e565b503461046c57606036600319011261046c5761129261341f565b61129a61340c565b9160443563ffffffff81168091036113bc576112b461387b565b5063ffffffff6040519463d995904360e01b86525f51602061543d5f395f51905f5260048701526001600160401b038516602487015216604485015260648401526008608484015260c08360a48173__$bfd2951eaa3e5aabb9283af4830755d90c$__5af49283156109de57819361135c575b60c0847fad4b280f21eb4bc313771beab60b6535c835235b422fe851f718c6bef2f283938186610961604051928392836137ad565b90925060c03d60c0116113b5575b61137481836133eb565b81019260c08285031261046c57506113af60c0937fad4b280f21eb4bc313771beab60b6535c835235b422fe851f718c6bef2f28393926138d0565b92611327565b503d61136a565b5080fd5b503461046c578060031936011261046c575f51602061539d5f395f51905f52546040516001600160a01b039091168152602090f35b503461046c57604036600319011261046c5761140f613339565b61141761340c565b602082901b600160201b600160a01b031663ffffffff821617600160a11b17918284525f5160206154bd5f395f51905f5260205260ff604085205460201c1615610607578284525f5160206154bd5f395f51905f52602052600260ff604086205460201c16146105f8578284525f5160206154bd5f395f51905f52602052600160ff604086205460201c16146114ab578380f35b7fcec1bd5bf41ed1329467f96f878d44c30902e4c524e42c2568b86de0f97017659284525f5160206154bd5f395f51905f526020526040842064020000000064ff00000000198254161790556105ee6040519283928390929163ffffffff6020916001600160801b03604085019616845216910152565b503461046c578060031936011261046c5761153b61478b565b5f51602061539d5f395f51905f5280546001600160a01b0319811690915581906001600160a01b03167f8be0079c531659141344cd1fd0a4f28419497f9722a3daafe3b4186f6b6457e08280a380f35b503461046c57604036600319011261046c576115a561341f565b602435906115b161387b565b5081156116305760405163340100c160e01b815273__$bfd2951eaa3e5aabb9283af4830755d90c$__8482806115ea8660048301613bfe565b0381845af4918215610f84579160c0918693610919969792611612575b50866108fc83613c56565b6116279192503d8086833e6106f481836133eb565b9050905f611607565b635cb045db60e01b8352600483fd5b503461046c578060031936011261046c577f00000000000000000000000000000000000000000000000000000000000000006001600160a01b031630036116975760206040515f5160206153dd5f395f51905f528152f35b63703e46dd60e11b8152600490fd5b503461046c578060031936011261046c575f51602061547d5f395f51905f52546040516001600160a01b039091168152602090f35b503461046c57602036600319011261046c5761173f9060e06116fb61341f565b61170361387b565b5060405163154c1b43831b81525f51602061543d5f395f51905f5260048201526001600160401b03909116602482015292839081906044820190565b038173__$bfd2951eaa3e5aabb9283af4830755d90c$__5af480156109de5760e0928291611786575b50611776604051809361350c565b6001600160a01b031660c0820152f35b90506117a89150823d84116117ae575b6117a081836133eb565b810190613b19565b5f611768565b503d611796565b50604036600319011261046c576117ca613590565b602435906001600160401b038211610f2f5736602383011215610f2f57816004013590836117f783613656565b9361180560405195866133eb565b83855260208501933660248284010111610f2f57806024602093018637850101526001600160a01b037f0000000000000000000000000000000000000000000000000000000000000000163081149081156119e0575b506119d15761186861478b565b6040516352d1902d60e01b81526001600160a01b0382169390602081600481885afa869181611999575b506118ab57634c9c8ce360e01b86526004859052602486fd5b93845f5160206153dd5f395f51905f528796036119875750823b15611975575f5160206153dd5f395f51905f5280546001600160a01b031916821790558491907fbc7cd75a20ee27fd9adebab32041f755214dbc6bffa90cc0225b39da2e5c2d3b8380a280511561195a5761194e9382915190845af43d15611952573d9161193283613656565b9261194060405194856133eb565b83523d85602085013e61533e565b5080f35b60609161533e565b50505050346119665780f35b63b398979f60e01b8152600490fd5b634c9c8ce360e01b8552600452602484fd5b632a87526960e21b8652600452602485fd5b9091506020813d6020116119c9575b816119b5602093836133eb565b810103126119c55751905f611892565b5f80fd5b3d91506119a8565b63703e46dd60e11b8452600484fd5b5f5160206153dd5f395f51905f52546001600160a01b0316141590505f61185b565b503461046c57602036600319011261046c57611a1c61341f565b611a2461387b565b50604051637ce36e2360e11b81525f51602061543d5f395f51905f5260048201526001600160401b0382166024820152600860448201529160c08360648173__$bfd2951eaa3e5aabb9283af4830755d90c$__5af49283156109de578193611abc575b60c0847f847be2ee41fb7fd819cd9f0fa2c88487d5a0b19369ae96421d660bd92116f9a48186610961604051928392836137ad565b90925060c03d60c011611b15575b611ad481836133eb565b81019260c08285031261046c5750611b0f60c0937f847be2ee41fb7fd819cd9f0fa2c88487d5a0b19369ae96421d660bd92116f9a4926138d0565b92611a87565b503d611aca565b503461046c57602036600319011261046c57600435906001600160401b03821161046c573660238301121561046c578160040135611b598161363f565b92611b6760405194856133eb565b81845260208401906024829360051b8201019036821161046657929492602401915b818310611c7057505050604051928391631cff580560e11b835260448301905f51602061543d5f395f51905f5260048501526040602485015251809152606483019190845b818110611c4e575050509080602092038173__$bfd2951eaa3e5aabb9283af4830755d90c$__5af49081156107c7578091611c11575b6020826040519015158152f35b90506020823d602011611c46575b81611c2c602093836133eb565b8101031261046c5750611c40602091613af8565b5f611c04565b3d9150611c1f565b82516001600160401b0316845286945060209384019390920191600101611bce565b92949282356001600160401b03811681036119c557815292949260209283019201611b89565b503461046c57611ca536613435565b611cb0829392613ef4565b6001600160a01b031633039250611e6d91505057611ccd81613f1e565b600160201b600160a01b038360201b16600160a11b1782525f51602061541d5f395f51905f5260205263ffffffff60408320611d0b828254166137cf565b815483191692169182179055808252600160208084019182526060840185815295929083901b600160201b600160a01b031663ffffffff90911617600160a11b1784525f5160206154bd5f395f51905f5260209081526040852084518154935164ffffffffff1990941663ffffffff91909116179290911b64ff00000000169190911781556040830151946005861015611e59578154905160808581015160a087015160c08089015164ffffffffff90961660289b909b1b60ff60281b169a909a1760309490941b61ffff60301b169390931760409190911b67ffffffffffffffff60401b161791901b67ffffffffffffffff60801b1617951b6001600160c01b03191694909417845591927f3990c6121ebba199bf4e035554adbe455162e4898a348962cca8d43806076a829290600160e0840151910155611e53604051928392836137e6565b0390a180f35b634e487b7160e01b85526021600452602485fd5b6282b42960e81b8252600482fd5b503461046c578060031936011261046c577f389a4784c2c3e8284bc1418c5b9cf4b556f52088a652459a6e23aae4f7902701546040516001600160a01b039091168152602090f35b50346119c557611f1a90611efa611ed936613566565b94919290948060c01c916001600160801b0363ffffffff8360801c16921690565b939150508060c01c916001600160801b0363ffffffff8360801c16921690565b92919050611f27826141cc565b611f30846141cc565b916001600160801b0360208401511691602081016001600160801b03815116935f60e0604051611f5f8161334f565b8281528260208201528260408201528260608201528260808201528260a08201528260c082015201525f525f51602061549d5f395f51905f5260205260405f209060405194611fad8661334f565b825465ffffffffffff81168752602087019365ffffffffffff8260301c16855265ffffffffffff8260601c16600160408a019282845260608b019460901c8552015460ff811660808b015260018060a01b038160081c1660a08b015262ffffff8160a81c1660c08b015260c01c60e08a015215612848575165ffffffffffff166001600160401b038d160361283957516001600160701b031603612839576120bf9161205761387b565b506040848101516080810151908201515f51602061547d5f395f51905f52548351632dc61f7d60e01b81526001600160401b03938416600482015263ffffffff9092166024830152918e1660448201529485916001600160a01b031690829081906064820190565b03915afa92831561282e575f905f946127fa575b50156127bd575050612101906120e7613ac7565b506001600160401b0360806040880151015116908a614279565b92909291612115612110614353565b614bee565b61212965ffffffffffff8551168b89614756565b936121348b89614729565b5f8681525f5160206153bd5f395f51905f5260205260409020549091905f199061216090600190613aeb565b916121728361216d614353565b614c40565b612200602082019361ffff855116946121b4604096875161219389826133eb565b600f81526e626f756e64732e6b696e644465677360881b6020820152614c40565b6121ea65ffffffffffff85511687516121cd89826133eb565b600b81526a189bdd5b991ccb9ada5b9960aa1b6020820152614c40565b61ffff65ffffffffffff85511691511691614ca8565b61220b612110614353565b65ffffffffffff838201511661275a575b50505093925b608086015160ff166127325760808701516001600160a01b03165b6040820151600681101561271e57612651576001600160a01b03163303612643575b6001600160401b03608082015116806125f2575b50608087810151838201519188015160608401516001600160a01b03928316949093600f85101593169160ff16836125de57806124b15750505061249d5761248e5786918b91805b6001600160a01b0382168190036123e7575b5050926122e392916001600160801b03946143c9565b961687525f51602061549d5f395f51905f5260205286600160408220828155015586525f5160206153bd5f395f51905f52602052604086208054905f1982019182116123d3575585525f5160206153bd5f395f51905f526020526040852080545f198101919082116123bf575560e0015160209091015193947fabb20dc355962c71db26b27f6a9b318b5f54e9cdfb67bd31ba7f7ec6461f882294611e539260c01b6001600160c01b03191660809290921b67ffffffffffffffff60801b16919091176001600160801b0391909116176040519384938461397d565b634e487b7160e01b87526011600452602487fd5b634e487b7160e01b88526011600452602488fd5b6020929450612428935060018060a01b0360608b015116908d6001600160401b038c511660405196879586948593638aed990760e01b855260048501613d44565b03925af1801561248357928b6122e39389936001600160801b0396612454575b509194819394506122cd565b6124759060203d60201161247c575b61246d81836133eb565b8101906143a9565b505f612448565b503d612463565b6040513d8c823e3d90fd5b630f54c17160e21b8a5260048afd5b634e487b7160e01b8b52602160045260248bfd5b6001811015806125d3575b156125025750505061249d57918b91838994155f146124dc5750806122bb565b919350915060070361248e5760a086015187928c9290916001600160a01b0316906122bb565b9193909250906007036125c457918d93918a959380155f1461252757505050806122bb565b939550919350916001810361254557630f54c17160e21b8d5260048dfd5b8c9160018211806125b6575b156125a75760a0015160601c91612593578994928e949261258461257f61257a61258d95614375565b614387565b61439a565b91339085614cd1565b906122bb565b634e487b7160e01b8d52602160045260248dfd5b630f54c17160e21b8e5260048efd5b508d92506006821115612551565b63220bd06d60e21b8d5260048dfd5b5060068111156124bc565b634e487b7160e01b8f52602160045260248ffd5b65ffffffffffff875116016001600160401b03811161262f576001600160401b03164210612620575f612273565b6309b89c0160e11b8a5260048afd5b634e487b7160e01b8b52601160045260248bfd5b6282b42960e81b8a5260048afd5b6040820151600681101561271e57600103612681575060808201516001600160a01b03163303612643575b61225f565b6040820151600681101561271e576002036126c8576001600160a01b0316331415806126b1575b6126435761225f565b5060808201516001600160a01b03163314156126a8565b6040820151600681101561271e57600303612718576001600160a01b031633148015612702575b1561267c576282b42960e81b8a5260048afd5b5060808201516001600160a01b031633146126ef565b5061225f565b634e487b7160e01b8c52602160045260248cfd5b608086015160ff16600703612747578961223d565b60a08601516001600160a01b031661223d565b5f8481525f5160206153bd5f395f51905f5260205292832054929c5090600160ff1b81146127a95760606127976127a19461ffff935f0390613aeb565b9201511690614c83565b5f808061221c565b634e487b7160e01b5f52601160045260245ffd5b92909391506127f48a6127ee65ffffffffffff6001600160801b036127e18461467b565b9851169651168287614756565b94614729565b93612222565b905061281f91935060403d604011612827575b61281781836133eb565b810190614258565b92905f6120d3565b503d61280d565b6040513d5f823e3d90fd5b6313236d6b60e01b5f5260045ffd5b635c11956d60e01b5f5260045ffd5b346119c55760206104b761286a366135bc565b949390939291926139a5565b346119c55760603660031901126119c55761288f61341f565b61289761340c565b604435916001600160401b03831683036119c55760405163340100c160e01b8152915f91839182916128cd919060048401613bc4565b038173__$bfd2951eaa3e5aabb9283af4830755d90c$__5af490811561282e5761ffff65ffffffffffff61291b60a09582612912819786975f91612943575b50613c31565b519116906151ad565b9592604098919498519815158952166020880152166040860152166060840152166080820152f35b61295791503d805f833e6106f481836133eb565b90508a61290c565b346119c5576129b461299461297336613566565b93919290938060c01c916001600160801b0363ffffffff8360801c16921690565b929150928060c01c916001600160801b0363ffffffff8360801c16921690565b6129c0849592956141cc565b6129c9826141cc565b926001600160801b036020850151165f525f51602061549d5f395f51905f5260205260405f206040516129fb8161334f565b60e0600183549365ffffffffffff8516845265ffffffffffff8560301c16602085015265ffffffffffff8560601c169485604086015260901c6060850152015460ff8116608084015260018060a01b038160081c1660a084015262ffffff8160a81c1660c084015260c01c9101526130bd576040828101516080810151908201515f51602061547d5f395f51905f52548351632dc61f7d60e01b81526001600160401b03938416600482015263ffffffff9092166024830152918b166044820152929190839060649082906001600160a01b03165afa91821561282e575f905f93613099575b501561308a57612b0963ffffffff926001600160401b0360806040890151015116908b614279565b92909816155f146130845760808501516001600160a01b031633145b156130705763ffffffff1661307e5760808201516001600160a01b031633145b1561307057612b55612110614353565b612b6965ffffffffffff8851168988614756565b90612b748988614729565b92825f525f5160206153bd5f395f51905f5260205260405f205495600187018097116127a9578996612bf290612bac8161216d614353565b6020890161ffff65ffffffffffff818351169b612bd260409d8e612193815191826133eb565b612be78d83835116906121cd815191826133eb565b511691511691614ca8565b612bfd612110614353565b65ffffffffffff878b015116613033575b608081810180519184015160208601516001600160a01b0393841696909390929116600f841015612e80578b938f9360ff821680612f29575050505060018060a01b03905116935f945f965b6001600160a01b038216819003612e94575b50509165ffffffffffff9391612c81936143c9565b995116916008821015612e8057876001600160401b03918760ff60018f8c908f612dcf9a65ffffffffffff845194612cb88661334f565b81421686526020860192835281818701951685526001600160701b03606087019416845287608087019d168d5260a0860199878060a01b03168a526001600160801b0360c08701995f8b528d60e089019d168d52165f525f51602061549d5f395f51905f526020525f2094511665ffffffffffff19855416178455519165ffffffffffff6bffffffffffff0000000000008554928260601b905160601b169371ffffffffffffffffffffffffffffffffffff19905160901b169460301b169116171717815501955116855492610100600160a81b03905160081b169162ffffff60a81b905160a81b16928560c01b16171717835551168154906001600160401b0360c01b9060c01b169060018060c01b0316179055565b5f525f5160206153bd5f395f51905f52602052825f20805490600182018092116127a957555f525f5160206153bd5f395f51905f52602052815f2090815493600185018095116127a957939091557f6176e60cd4ddf52618fa61f79a2b5fa724340395bb91018698deae36496754fa95612e7b9360c01b6001600160c01b03191660809190911b67ffffffffffffffff60801b16176001600160801b039091161790519384938461397d565b0390a1005b634e487b7160e01b5f52602160045260245ffd5b6020929450612ed5935060018060a01b03606087015116905f8d6001600160401b03895116905196879586948593638aed990760e01b855260048501613d44565b03925af18015612f1f578d612c819365ffffffffffff95938d93612f00575b50919381939550612c6c565b612f189060203d60201161247c5761246d81836133eb565b505f612ef4565b89513d5f823e3d90fd5b92955092509250600181101580613028575b15612f84575060a0612f5291015160601c91614375565b60ff5f1991160160ff81116127a9578a928e92612f71612f7a9361439a565b91339089614cd1565b935f945f96612c5a565b9094909160078303612f9f57634fcf118160e11b5f5260045ffd5b8b938f9360088110158061301d575b15612fef5750612fe9903092612fe061257f61257a60a0612fd461257f61257a87614375565b9c015160601c93614375565b9133908b614cd1565b96612c5a565b935050509350600e9150145f1461300e57878b30936007945f96612c5a565b634fcf118160e11b5f5260045ffd5b50600d811115612fae565b506006811115612f3b565b845f525f5160206153bd5f395f51905f52602052865f2054600181018091116127a9578061306b915061ffff60608d01511690614c83565b612c0e565b6282b42960e81b5f5260045ffd5b5f612b45565b5f612b25565b6331c9038360e01b5f5260045ffd5b90506130b591925060403d6040116128275761281781836133eb565b91908a612ae1565b63203de7bb60e21b5f5260045ffd5b346119c55760403660031901126119c55761311760c06130ea61341f565b6130f261340c565b906130fb61387b565b50604051632866ef3160e21b815293849283926004840161394a565b038173__$bfd2951eaa3e5aabb9283af4830755d90c$__5af4801561282e575f9061314d575b60c090610971604051809261350c565b5060c03d60c011613181575b61316381836133eb565b81019060c0818303126119c55760c09161317c916138d0565b61313d565b503d613159565b346119c55761319636613435565b61319f82613ef4565b6001600160a01b031633039250613070915050576131bc81613f1e565b600160201b600160a01b038260201b16600160a01b175f525f51602061541d5f395f51905f5260205263ffffffff60405f206131fa828254166137cf565b815483191692169182179055808252600160208084019182525f6060850181815286831b600160201b600160a01b031663ffffffff95861617600160a01b1782525f5160206154bd5f395f51905f52835260409182902086518154955164ffffffffff199096169616959095179390921b64ff0000000016929092178355908301519391906005851015612e80578154905160808581015160a087015160c08089015164ffffffffff90961660289a909a1b60ff60281b169990991760309490941b61ffff60301b169390931760409190911b67ffffffffffffffff60401b161791901b67ffffffffffffffff60801b1617941b6001600160c01b0319169390931783557fae0947f631aae9cc9c660079e614352bf9d18405079a646e69a6ea4129411ee092600160e0840151910155612e7b604051928392836137e6565b600435906001600160801b03821682036119c557565b61010081019081106001600160401b0382111761336b57604052565b634e487b7160e01b5f52604160045260245ffd5b60c081019081106001600160401b0382111761336b57604052565b604081019081106001600160401b0382111761336b57604052565b608081019081106001600160401b0382111761336b57604052565b60a081019081106001600160401b0382111761336b57604052565b90601f801991011681019081106001600160401b0382111761336b57604052565b6024359063ffffffff821682036119c557565b600435906001600160401b03821682036119c557565b906101206003198301126119c5576004356001600160801b03811681036119c557610100909260231901126119c5576040516134708161334f565b60243563ffffffff811681036119c557815260443560ff811681036119c557602082015260643560058110156119c557604082015260843561ffff811681036119c557606082015260a4356001600160401b03811681036119c557608082015260c4356001600160401b03811681036119c55760a082015260e4356001600160401b03811681036119c55760c08201526101043560e082015290565b6001600160401b0360a0809263ffffffff815116855263ffffffff602082015116602086015263ffffffff604082015116604086015263ffffffff6060820151166060860152826080820151166080860152015116910152565b60609060031901126119c557600435906024356001600160401b03811681036119c5579060443590565b600435906001600160a01b03821682036119c557565b602435906001600160a01b03821682036119c557565b60c09060031901126119c55760043563ffffffff811681036119c557906024356001600160a01b03811681036119c557906044356001600160801b03811681036119c557906064356001600160401b03811681036119c557906084356001600160401b03811681036119c5579060a4356001600160401b03811681036119c55790565b6001600160401b03811161336b5760051b60200190565b6001600160401b03811161336b57601f01601f191660200190565b90600f821015612e805752565b60ff815116825261369760208201516020840190613671565b6040810151906006821015612e805760a09160408401526136c060608201516060850190613671565b6080818101516001600160401b0316908401528101516bffffffffffffffffffffffff1916910152565b805180835260209291819084018484015e5f828201840152601f01601f1916010190565b81601f820112156119c5578035906137258261363f565b9261373360405194856133eb565b82845260208085019360061b830101918183116119c557602001925b82841061375d575050505090565b6040848303126119c557604051906137748261339a565b843561ffff811681036119c557825260208501359065ffffffffffff821682036119c5578260209283604095015281520193019261374f565b9160206137cd9294936001600160401b0360e0820196168152019061350c565b565b63ffffffff1663ffffffff81146127a95760010190565b9092916001600160801b0361012083019416825263ffffffff815116602083015260ff602082015116604083015260408101516005811015612e80576101009160e091606085015261ffff60608201511660808501526001600160401b0360808201511660a08501526001600160401b0360a08201511660c08501526001600160401b0360c082015116828501520151910152565b604051906138888261337f565b5f60a0838281528260208201528260408201528260608201528260808201520152565b519063ffffffff821682036119c557565b51906001600160401b03821682036119c557565b91908260c09103126119c5576040516138e88161337f565b60a06139458183956138f9816138ab565b8552613907602082016138ab565b6020860152613918604082016138ab565b6040860152613929606082016138ab565b606086015261393a608082016138bc565b6080860152016138bc565b910152565b5f51602061543d5f395f51905f5281526001600160401b03909116602082015263ffffffff909116604082015260600190565b6139a160e0929594936001600160801b03610100840197168352602083019061350c565b0152565b909493929190602082901b600160201b600160a01b031663ffffffff90911617600160a01b175f525f5160206154bd5f395f51905f5260205260405f2094604051956139f08761334f565b805463ffffffff811688526020880160ff8260201c16815260ff8260281c166005811015612e805760019360ff93859260408d015261ffff8160301c1660608d01526001600160401b038160401c1660808d01526001600160401b038160801c1660a08d015260c01c60c08c0152015460e08a0152511603613abd57600160201b600160a01b038260201b16600160a01b1763ffffffff875116905f525f51602061541d5f395f51905f5260205263ffffffff60405f205460201c1611613abd57613aba95614510565b90565b5050505050505f90565b60405190613ad4826133b5565b5f6060838281528260208201528260408201520152565b919082039182116127a957565b519081151582036119c557565b51906001600160a01b03821682036119c557565b919060e0838203126119c55760c0613b34613aba92856138d0565b9301613b05565b919060e0838203126119c557613b5181846138d0565b9260c0810151906001600160401b0382116119c557019080601f830112156119c5578151613b7e8161363f565b92613b8c60405194856133eb565b81845260208085019260051b8201019283116119c557602001905b828210613bb45750505090565b8151815260209182019101613ba7565b60609063ffffffff60089395946001600160401b0360808401975f51602061543d5f395f51905f5285521660208401521660408201520152565b5f51602061543d5f395f51905f5281526001600160401b0390911660208201525f60408201526008606082015260800190565b805160071015613c42576101000190565b634e487b7160e01b5f52603260045260245ffd5b805160011015613c425760400190565b805160061015613c425760e00190565b805160051015613c425760c00190565b805160041015613c425760a00190565b805160031015613c425760800190565b8051821015613c425760209160051b010190565b90602080835192838152019201905f5b818110613cd75750505090565b8251845260209384019390920191600101613cca565b6060906001600160401b03613aba94935f51602061543d5f395f51905f5283521660208201528160408201520190613cba565b6139a160e0929594936001600160401b03610100840197168352602083019061350c565b6001600160401b0390911681526001600160a01b0391821660208201529116604082015260600190565b909493929190602082901b600160201b600160a01b031663ffffffff90911617600160a11b175f525f5160206154bd5f395f51905f5260205260405f209460405195613db98761334f565b805463ffffffff811688526020880160ff8260201c16815260ff8260281c166005811015612e805760019360ff93859260408d015261ffff8160301c1660608d01526001600160401b038160401c1660808d01526001600160401b038160801c1660a08d015260c01c60c08c0152015460e08a0152511603613abd57600160201b600160a01b038260201b16600160a11b1763ffffffff875116905f525f51602061541d5f395f51905f5260205263ffffffff60405f205460201c1611613abd57613aba95614510565b6001600160a01b03168015613ee1575f51602061539d5f395f51905f5280546001600160a01b0319811683179091556001600160a01b03167f8be0079c531659141344cd1fd0a4f28419497f9722a3daafe3b4186f6b6457e05f80a3565b631e4fbdf760e01b5f525f60045260245ffd5b90613f196001600160401b0392613f0961387b565b5083811693849160401c16614af7565b909192565b65fffffffffffe6001600160401b03608083015116116141bd5765fffffffffffe6001600160401b0360a083015116116141ae5765fffffffffffe6001600160401b0360c0830151161161419f57604060e0820151910180516005811015612e8057600403613f9d5750613f8e57565b630229244160e01b5f5260045ffd5b80516005811015612e8057613fc25750613fb357565b63b059088b60e01b5f5260045ffd5b80516005811015612e8057600203613ff457506001600160a01b031916613fe557565b6324d6550560e01b5f5260045ffd5b80516005811015612e805760030361404557506001600160a01b03198116614036576001600160a01b03163b1561402757565b635ec3640d60e11b5f5260045ffd5b6334e3e8c160e21b5f5260045ffd5b516005811015612e805760010361419057805f1a65ffffffffffff8260c01c166001600160801b036001600160401b038460801c16931691600181145f146140c9575065fffffffffffe109182156140bf575b5081156140b6575b506140a757565b6330e0031360e21b5f5260045ffd5b9050155f6140a0565b151591505f614098565b9092906002810361412657508215928315614116575b50821561410d575b508115614104575b50156137cd57630aaa469f60e11b5f5260045ffd5b9050155f6140ef565b1591505f6140e7565b65fffffffffffe1092505f6140df565b600303614181578215928315614171575b508215614168575b50811561415c575b50156137cd576368bfad0160e11b5f5260045ffd5b6001915014155f614147565b1591505f61413f565b65fffffffffffe1092505f614137565b636c5ca35760e01b5f5260045ffd5b6325226d5f60e11b5f5260045ffd5b630216e46d60e41b5f5260045ffd5b6305ec3cc560e31b5f5260045ffd5b63257d56e560e11b5f5260045ffd5b5f60806040516141db816133d0565b8281528260208201526141ec61387b565b604082015282606082015201526001600160801b036001600160401b03821691614222836001600160401b038360401c16614af7565b93909260405195614232876133d0565b865216602085015260408401526001600160a01b03908116606084015216608082015290565b91908260409103126119c557613aba602061427284613af8565b93016138ab565b92915f6142ad92614288613ac7565b5061429161387b565b506040518094819263340100c160e01b83528860048401613bc4565b038173__$bfd2951eaa3e5aabb9283af4830755d90c$__5af4801561282e5761291265ffffffffffff916142e7945f916143375750613c31565b909193156143285765ffffffffffff61ffff9283613aba96836040519761430d896133b5565b1687521660208601521660408401521660608201529261467b565b6307d67b9f60e01b5f5260045ffd5b61434b91503d805f833e6106f481836133eb565b90505f61290c565b604051906143626040836133eb565b600482526368656c6f60e01b6020830152565b60ff60019116019060ff82116127a957565b60ff6007199116019060ff82116127a957565b60ff166008811015612e805790565b908160209103126119c557516001600160e01b0319811681036119c55790565b6001600160401b03935f60c49260c0956143e161387b565b508760018060a01b036060840151169251169360408101519089806080818060a08701511694511694015116936040519b8c9a8b99632ad678c160e21b8b5260048b01521660248901521660448701526064860152608485015260a48401525af190811561282e575f916144d7575b50602081019063ffffffff825116156144c85763ffffffff808251169251169063ffffffff60408201511663ffffffff606083015116906001600160401b0360a0816080860151169401511693604051956144aa8761337f565b8652602086015260408501526060840152608083015260a082015290565b630aa9029760e01b5f5260045ffd5b905060c03d60c011614509575b6144ee81836133eb565b810160c0828203126119c557614503916138d0565b5f614450565b503d6144e4565b93909491926001600160401b036080860151168015159182614667575b505061465e576001600160401b0360a085015116801515918261464a575b5050614642576001600160401b0360c084015116801515918261462e575b5050614627576040820180516005811015612e805760040361458e5750505050600190565b80516005811015612e80576145c057506145a89150613ef4565b6001600160a01b039485169416939093149392505050565b809150516005811015612e80576002036145ea575060e001516001600160a01b0391821691161490565b91505080516005811015612e805760030361460e57636e12839960e01b5f5260045ffd5b516005811015612e8057600103614623575f90565b5f90565b5050505f90565b6001600160401b0316141590505f80614569565b505050505f90565b6001600160401b0316141590505f8061454b565b50505050505f90565b6001600160401b0316141590505f8061452d565b61468361387b565b5061468c61387b565b506001600160401b036040519163dbe7760960e01b83525f51602061543d5f395f51905f5260048401521660248201525f60448201526002606482015260208160848173__$bfd2951eaa3e5aabb9283af4830755d90c$__5af4801561282e576146fa575b50613aba61387b565b6020813d602011614721575b81614713602093836133eb565b810103126119c557516146f1565b3d9150614706565b60809190911b67ffffffffffffffff60801b166001600160801b039091161765ffffffffffff60c01b1790565b60c09290921b65ffffffffffff60c01b1660809190911b67ffffffffffffffff60801b16176001600160801b03919091161790565b5f51602061539d5f395f51905f52546001600160a01b031633036147ab57565b63118cdaa760e01b5f523360045260245ffd5b6147c661387b565b815115614ae8576010825111614ad95760015b8251811015614838575f1981018181116127a957602061480065ffffffffffff9286613ca6565b5101511665ffffffffffff60206148178487613ca6565b510151161115614829576001016147d9565b630a6fd7a560e11b5f5260045ffd5b5091906040830191600183525f5b82518110156148cd576148598184613ca6565b51602081015165ffffffffffff168061488557509061ffff600192836080890152511686525b01614846565b65ffffffffffff036148aa579061ffff6001928360608901525116602087015261487f565b5060a085019060ff8251169160ff83146127a95760ff600180940116905261487f565b50919290926148db84614d38565b93845f527f8f9f6b9dd32d65efadc33d5cec42974db93f3ef45f03c2694c960af8740c1c0160205260ff60405f205460201c16614ad457845f527f8f9f6b9dd32d65efadc33d5cec42974db93f3ef45f03c2694c960af8740c1c0160205260405f2061ffff808551161661ffff19825416178155602084019261497861ffff855116839063ffff000082549160101b169063ffff00001916179055565b51815460608601805165ffff000000001990921692151560201b64ff00000000169290921790151560281b60ff60281b1617825593608081015115159066ff00000000000067ff0000000000000060a0855493015160381b169260301b169061ffff60301b1916171790555f5b8151811015614ace57806149fb60019284613ca6565b51602081019065ffffffffffff8251168015159081614abd575b50614a23575b5050016149e5565b5f8981527f8f9f6b9dd32d65efadc33d5cec42974db93f3ef45f03c2694c960af8740c1c0060209081526040808320945165ffffffffffff16835293905291909120805491518751875163ffff000060109190911b1665ff00ffff00001964ff0000ffff1990951661ffff90931692909217640100000000179390931692151560281b60ff60281b16929092179190911790555f80614a1b565b65ffffffffffff915014155f614a15565b50505050565b505050565b6352609cb360e01b5f5260045ffd5b63206df1c560e11b5f5260045ffd5b614aff61387b565b505f5160206153fd5f395f51905f5254604051631246702760e31b81526001600160401b03929092166004830152602090829060249082906001600160a01b03165afa90811561282e575f91614bb4575b5060405163179cbc4f60e11b81526001600160401b039290921660048301529060e0816024816001600160a01b0386165afa801561282e575f915f91614b9557509092565b9050614bb0915060e03d60e0116117ae576117a081836133eb565b9092565b90506020813d602011614be6575b81614bcf602093836133eb565b810103126119c557614be090613b05565b5f614b50565b3d9150614bc2565b5f614c1b614c29829360405192839163104c13eb60e21b60208401526020602484015260448301906136ea565b03601f1981018352826133eb565b6020815191016a636f6e736f6c652e6c6f675afa50565b614c6f614c295f93928493604051938492632d839cb360e21b60208501526040602485015260648401906136ea565b90604483015203601f1981018352826133eb565b90617fff1610614c8f57565b630aeeed0f60e01b5f5265ffffffffffff60045260245ffd5b9091617fff1610614cb65750565b65ffffffffffff90630aeeed0f60e01b5f521660045260245ffd5b939290926008811015612e805760018103614ced575050505090565b929350909160028103614d005750505090565b9192509060038103614d1157505090565b90915060048103614d20575090565b60058103614d2e5750505f90565b60060361300e5790565b805115614dc857614d4881614dcd565b90614d5281614f39565b90614d5f6108c582614ffc565b90831580614dc0575b80614db8575b80614db0575b15614d8157505050505f90565b604051926020840194855260408401526060830152608082015260808152614daa60a0826133eb565b51902090565b508115614d74565b508015614d6e565b508215614d68565b505f90565b805115614f1e57614dde5f82613ca6565b51905b5f81516001105f14614f0257505f80614dfb600184613ca6565b51915b614ed157825160021015614ee557505f9182614e1b600283613ca6565b51935b614ed15750805160031015614eb5576003614e3891613ca6565b51925b65ffffffffffff602061ffff60301b835160301b16920151161760c01b9065ffffffffffff602061ffff60301b835160301b16920151161760801b179065ffffffffffff602061ffff60301b835160301b16920151161760401b179065ffffffffffff602061ffff60301b835160301b1692015116171790565b50604051614ec28161339a565b5f81525f602082015292614e3b565b634e487b7160e01b81526011600452602490fd5b9182604051614ef38161339a565b5f81525f602082015293614e1e565b80604051614f0f8161339a565b5f81525f602082015291614dfe565b604051614f2a8161339a565b5f81525f602082015290614de1565b805160041015614fe157614f4e600482613ca6565b51905b5f81516005105f14614fc557505f80614f6b600584613ca6565b51915b614ed157825160061015614fa857505f9182614f8b600683613ca6565b51935b614ed15750805160071015614eb5576007614e3891613ca6565b9182604051614fb68161339a565b5f81525f602082015293614f8e565b80604051614fd28161339a565b5f81525f602082015291614f6e565b604051614fed8161339a565b5f81525f602082015290614f51565b8051600810156150a457615011600882613ca6565b51905b5f81516009105f1461508857505f8061502e600984613ca6565b51915b614ed1578251600a101561506b57505f918261504e600a83613ca6565b51935b614ed157508051600b1015614eb557600b614e3891613ca6565b91826040516150798161339a565b5f81525f602082015293615051565b806040516150958161339a565b5f81525f602082015291615031565b6040516150b08161339a565b5f81525f602082015290615014565b8051600c1015615167576150d4600c82613ca6565b51905b5f8151600d105f1461514b57505f806150f1600d84613ca6565b51915b614ed1578251600e101561512e57505f9182615111600e83613ca6565b51935b614ed157508051600f1015614eb557600f614e3891613ca6565b918260405161513c8161339a565b5f81525f602082015293615114565b806040516151588161339a565b5f81525f6020820152916150f4565b6040516151738161339a565b5f81525f6020820152906150d7565b60ff5f51602061545d5f395f51905f525460401c161561519e57565b631afcd79f60e31b5f5260045ffd5b90815f527f8f9f6b9dd32d65efadc33d5cec42974db93f3ef45f03c2694c960af8740c1c0060205260405f2065ffffffffffff82165f5260205260405f20604051906151f8826133b5565b5490606061ffff83169283835261ffff8160101c169283602082015260ff808360201c1615159283604084015260281c161515928391015261531957505050505f527f8f9f6b9dd32d65efadc33d5cec42974db93f3ef45f03c2694c960af8740c1c0160205260405f206040519061526f8261337f565b5461ffff81169182815261ffff8260101c169182602083015260ff8160201c16158015604084015260ff8260281c1615159283606082015260a060ff808560301c1615948515608085015260381c16910152615309576152e857156152e15765ffffffffffff905b6001935f93929190565b5f906152d7565b90929150156153035765ffffffffffff5b5f925f925f929190565b5f6152f9565b505050505f905f905f905f905f90565b92949193509091156153375765ffffffffffff915b60019493929190565b5f9161532e565b90615362575080511561535357805190602001fd5b63d6bda27560e01b5f5260045ffd5b81511580615393575b615373575090565b639996b31560e01b5f9081526001600160a01b0391909116600452602490fd5b50803b1561536b56fe9016d09d72d40fdae2fd8ceac6b6234c7706214fd39c1cd1e609a0528c1993003df9584b527247f4900a5c6b7a8400cffee00eb89e1f2f5ad0861af4fb4c0501360894a13ba1a3210667c828492db98dca3e2076cc3735a920a3ca505d382bbc389a4784c2c3e8284bc1418c5b9cf4b556f52088a652459a6e23aae4f790270066533e6d1966c5548931afa2a923bcafa00e1e6794f41ca0f03bbc3ab865ab00b889e63ac5a7d4985910c5a264fb181e381a8a3f46d10618004be5e9438ffc01f0c57e16840df040f15088dc2f81fe391c3923bec73e23a9662efc9c229c6a00389a4784c2c3e8284bc1418c5b9cf4b556f52088a652459a6e23aae4f79027023df9584b527247f4900a5c6b7a8400cffee00eb89e1f2f5ad0861af4fb4c050066533e6d1966c5548931afa2a923bcafa00e1e6794f41ca0f03bbc3ab865ab01b889e63ac5a7d4985910c5a264fb181e381a8a3f46d10618004be5e9438ffc00a2646970667358221220cf6b57af17e98847e88b40cab7ddb813ccb3eee47d48c89ef06453d5b6d8736a64736f6c634300081c0033","linkReferences":{"contracts/libraries/Snapshots.sol":{"Snapshots":[{"start":1683,"length":20},{"start":1924,"length":20},{"start":2179,"length":20},{"start":2737,"length":20},{"start":3576,"length":20},{"start":4500,"length":20},{"start":4914,"length":20},{"start":5621,"length":20},{"start":6001,"length":20},{"start":6802,"length":20},{"start":7183,"length":20},{"start":10495,"length":20},{"start":12617,"length":20},{"start":17119,"length":20},{"start":18175,"length":20}]}}},"methodIdentifiers":{"UPGRADE_INTERFACE_VERSION()":"ad3cb1cc","allowFrom(uint32,address,uint128,uint64,uint64,uint64)":"2629dae8","allowTo(uint32,address,uint128,uint64,uint64,uint64)":"edd716f0","elementRegistry()":"b19c3791","grantFrom(uint128,(uint32,uint8,uint8,uint16,uint64,uint64,uint64,bytes32))":"05be88ac","grantTo(uint128,(uint32,uint8,uint8,uint16,uint64,uint64,uint64,bytes32))":"3440994b","initialize(address,address,address,address)":"f8c8765e","kindRegistry()":"527f3e1f","omniRegistry()":"2c636a11","owner()":"8da5cb5b","proxiableUUID()":"52d1902d","relate(uint256,uint64,uint256)":"15ae7173","relationAdmit(uint64,uint32,uint64)":"2392f87d","relationDescriptor(uint64,uint32)":"06a883a0","relationOwner(uint64)":"bff9b974","relationRegister(address,bytes32,(uint8,uint8,uint8,uint8,uint64,bytes20),(uint16,uint48)[])":"b9f17a47","relationRevision(uint64,uint32)":"df89b3fc","relationRule(uint64)":"9e490e90","relationSnapshot(uint64,uint32)":"eab25c41","relationSota(uint64)":"52393e1a","relationStatus(uint64[])":"3dae8c28","relationTouch(uint64)":"418239fb","relationTransfer(uint64,address)":"a926f041","relationUpdate(uint64,bytes32)":"5634ad14","relationUpdate(uint64,bytes32,(uint16,uint48)[])":"c9e2a1fb","relationUpgrade(uint64,uint32,uint32)":"954fc712","renounceOwnership()":"715018a6","revokeFrom(uint128,uint32)":"ebeecfa3","revokeTo(uint128,uint32)":"876993ca","semver()":"cda493c8","setRegistry()":"ac8b956b","transferOwnership(address)":"f2fde38b","unrelate(uint256,uint64,uint256)":"2aead726","upgradeToAndCall(address,bytes)":"4f1ef286"},"id":3}