{"abi":[{"type":"function","name":"UPGRADE_INTERFACE_VERSION","inputs":[],"outputs":[{"name":"","type":"string","internalType":"string"}],"stateMutability":"view"},{"type":"function","name":"allowFrom","inputs":[{"name":"grantId","type":"uint32","internalType":"uint32"},{"name":"sender","type":"address","internalType":"address"},{"name":"tail","type":"uint128","internalType":"uint128"},{"name":"rel","type":"uint64","internalType":"uint64"},{"name":"headKind","type":"uint64","internalType":"uint64"},{"name":"headSet","type":"uint64","internalType":"uint64"}],"outputs":[{"name":"allow","type":"bool","internalType":"bool"}],"stateMutability":"view"},{"type":"function","name":"allowTo","inputs":[{"name":"grantId","type":"uint32","internalType":"uint32"},{"name":"sender","type":"address","internalType":"address"},{"name":"head","type":"uint128","internalType":"uint128"},{"name":"rel","type":"uint64","internalType":"uint64"},{"name":"tailKind","type":"uint64","internalType":"uint64"},{"name":"tailSet","type":"uint64","internalType":"uint64"}],"outputs":[{"name":"","type":"bool","internalType":"bool"}],"stateMutability":"view"},{"type":"function","name":"elementRegistry","inputs":[],"outputs":[{"name":"","type":"address","internalType":"address"}],"stateMutability":"view"},{"type":"function","name":"grantFrom","inputs":[{"name":"tail","type":"uint128","internalType":"uint128"},{"name":"grant","type":"tuple","internalType":"struct RelationGrant","components":[{"name":"id","type":"uint32","internalType":"uint32"},{"name":"status","type":"uint8","internalType":"uint8"},{"name":"initiator","type":"uint8","internalType":"enum RelationInitiator"},{"name":"reserved","type":"uint16","internalType":"uint16"},{"name":"rel","type":"uint64","internalType":"uint64"},{"name":"kind","type":"uint64","internalType":"uint64"},{"name":"set","type":"uint64","internalType":"uint64"},{"name":"extra","type":"bytes32","internalType":"bytes32"}]}],"outputs":[],"stateMutability":"nonpayable"},{"type":"function","name":"grantTo","inputs":[{"name":"head","type":"uint128","internalType":"uint128"},{"name":"grant","type":"tuple","internalType":"struct RelationGrant","components":[{"name":"id","type":"uint32","internalType":"uint32"},{"name":"status","type":"uint8","internalType":"uint8"},{"name":"initiator","type":"uint8","internalType":"enum RelationInitiator"},{"name":"reserved","type":"uint16","internalType":"uint16"},{"name":"rel","type":"uint64","internalType":"uint64"},{"name":"kind","type":"uint64","internalType":"uint64"},{"name":"set","type":"uint64","internalType":"uint64"},{"name":"extra","type":"bytes32","internalType":"bytes32"}]}],"outputs":[],"stateMutability":"nonpayable"},{"type":"function","name":"initialize","inputs":[{"name":"owner","type":"address","internalType":"address"},{"name":"setr","type":"address","internalType":"address"},{"name":"kindr","type":"address","internalType":"address"},{"name":"elemr","type":"address","internalType":"address"}],"outputs":[],"stateMutability":"nonpayable"},{"type":"function","name":"kindRegistry","inputs":[],"outputs":[{"name":"","type":"address","internalType":"address"}],"stateMutability":"view"},{"type":"function","name":"omniRegistry","inputs":[],"outputs":[{"name":"","type":"address","internalType":"address"}],"stateMutability":"view"},{"type":"function","name":"owner","inputs":[],"outputs":[{"name":"","type":"address","internalType":"address"}],"stateMutability":"view"},{"type":"function","name":"proxiableUUID","inputs":[],"outputs":[{"name":"","type":"bytes32","internalType":"bytes32"}],"stateMutability":"view"},{"type":"function","name":"relate","inputs":[{"name":"tail","type":"uint256","internalType":"uint256"},{"name":"rel","type":"uint64","internalType":"uint64"},{"name":"head","type":"uint256","internalType":"uint256"}],"outputs":[],"stateMutability":"nonpayable"},{"type":"function","name":"relationAdmit","inputs":[{"name":"id","type":"uint64","internalType":"uint64"},{"name":"rev","type":"uint32","internalType":"uint32"},{"name":"kind","type":"uint64","internalType":"uint64"}],"outputs":[{"name":"admit","type":"bool","internalType":"bool"},{"name":"effKind","type":"uint48","internalType":"uint48"},{"name":"effDegs","type":"uint16","internalType":"uint16"},{"name":"totalKind","type":"uint48","internalType":"uint48"},{"name":"totalDegs","type":"uint16","internalType":"uint16"}],"stateMutability":"view"},{"type":"function","name":"relationDescriptor","inputs":[{"name":"id","type":"uint64","internalType":"uint64"},{"name":"rev0","type":"uint32","internalType":"uint32"}],"outputs":[{"name":"desc","type":"tuple","internalType":"struct Descriptor","components":[{"name":"traits","type":"uint32","internalType":"uint32"},{"name":"rev","type":"uint32","internalType":"uint32"},{"name":"kindRev","type":"uint32","internalType":"uint32"},{"name":"setRev","type":"uint32","internalType":"uint32"},{"name":"kindId","type":"uint64","internalType":"uint64"},{"name":"setId","type":"uint64","internalType":"uint64"}]}],"stateMutability":"view"},{"type":"function","name":"relationOwner","inputs":[{"name":"id","type":"uint64","internalType":"uint64"}],"outputs":[{"name":"owner","type":"address","internalType":"address"}],"stateMutability":"view"},{"type":"function","name":"relationRegister","inputs":[{"name":"code","type":"address","internalType":"address"},{"name":"data","type":"bytes32","internalType":"bytes32"},{"name":"rule","type":"tuple","internalType":"struct RelationRule","components":[{"name":"version","type":"uint8","internalType":"uint8"},{"name":"relateShift","type":"uint8","internalType":"enum RelationOwnerShift"},{"name":"terminator","type":"uint8","internalType":"enum RelationTerminator"},{"name":"unrelateShift","type":"uint8","internalType":"enum RelationOwnerShift"},{"name":"unrelateDelay","type":"uint64","internalType":"uint64"},{"name":"extra","type":"bytes20","internalType":"bytes20"}]},{"name":"adjs","type":"tuple[]","internalType":"struct Adjacency[]","components":[{"name":"degs","type":"uint16","internalType":"uint16"},{"name":"kind","type":"uint48","internalType":"uint48"}]}],"outputs":[{"name":"id","type":"uint64","internalType":"uint64"},{"name":"meta","type":"tuple","internalType":"struct Descriptor","components":[{"name":"traits","type":"uint32","internalType":"uint32"},{"name":"rev","type":"uint32","internalType":"uint32"},{"name":"kindRev","type":"uint32","internalType":"uint32"},{"name":"setRev","type":"uint32","internalType":"uint32"},{"name":"kindId","type":"uint64","internalType":"uint64"},{"name":"setId","type":"uint64","internalType":"uint64"}]}],"stateMutability":"nonpayable"},{"type":"function","name":"relationRevision","inputs":[{"name":"id","type":"uint64","internalType":"uint64"},{"name":"rev0","type":"uint32","internalType":"uint32"}],"outputs":[{"name":"rev","type":"uint32","internalType":"uint32"}],"stateMutability":"view"},{"type":"function","name":"relationRule","inputs":[{"name":"id","type":"uint64","internalType":"uint64"}],"outputs":[{"name":"rule","type":"tuple","internalType":"struct RelationRule","components":[{"name":"version","type":"uint8","internalType":"uint8"},{"name":"relateShift","type":"uint8","internalType":"enum RelationOwnerShift"},{"name":"terminator","type":"uint8","internalType":"enum RelationTerminator"},{"name":"unrelateShift","type":"uint8","internalType":"enum RelationOwnerShift"},{"name":"unrelateDelay","type":"uint64","internalType":"uint64"},{"name":"extra","type":"bytes20","internalType":"bytes20"}]}],"stateMutability":"view"},{"type":"function","name":"relationSnapshot","inputs":[{"name":"id","type":"uint64","internalType":"uint64"},{"name":"rev0","type":"uint32","internalType":"uint32"}],"outputs":[{"name":"desc","type":"tuple","internalType":"struct Descriptor","components":[{"name":"traits","type":"uint32","internalType":"uint32"},{"name":"rev","type":"uint32","internalType":"uint32"},{"name":"kindRev","type":"uint32","internalType":"uint32"},{"name":"setRev","type":"uint32","internalType":"uint32"},{"name":"kindId","type":"uint64","internalType":"uint64"},{"name":"setId","type":"uint64","internalType":"uint64"}]},{"name":"elems","type":"bytes32[]","internalType":"bytes32[]"}],"stateMutability":"view"},{"type":"function","name":"relationSota","inputs":[{"name":"id","type":"uint64","internalType":"uint64"}],"outputs":[{"name":"desc","type":"tuple","internalType":"struct Descriptor","components":[{"name":"traits","type":"uint32","internalType":"uint32"},{"name":"rev","type":"uint32","internalType":"uint32"},{"name":"kindRev","type":"uint32","internalType":"uint32"},{"name":"setRev","type":"uint32","internalType":"uint32"},{"name":"kindId","type":"uint64","internalType":"uint64"},{"name":"setId","type":"uint64","internalType":"uint64"}]},{"name":"owner","type":"address","internalType":"address"}],"stateMutability":"view"},{"type":"function","name":"relationStatus","inputs":[{"name":"ids","type":"uint64[]","internalType":"uint64[]"}],"outputs":[{"name":"active","type":"bool","internalType":"bool"}],"stateMutability":"view"},{"type":"function","name":"relationTouch","inputs":[{"name":"id","type":"uint64","internalType":"uint64"}],"outputs":[{"name":"meta","type":"tuple","internalType":"struct Descriptor","components":[{"name":"traits","type":"uint32","internalType":"uint32"},{"name":"rev","type":"uint32","internalType":"uint32"},{"name":"kindRev","type":"uint32","internalType":"uint32"},{"name":"setRev","type":"uint32","internalType":"uint32"},{"name":"kindId","type":"uint64","internalType":"uint64"},{"name":"setId","type":"uint64","internalType":"uint64"}]}],"stateMutability":"nonpayable"},{"type":"function","name":"relationTransfer","inputs":[{"name":"id","type":"uint64","internalType":"uint64"},{"name":"to","type":"address","internalType":"address"}],"outputs":[{"name":"from","type":"address","internalType":"address"}],"stateMutability":"nonpayable"},{"type":"function","name":"relationUpdate","inputs":[{"name":"id","type":"uint64","internalType":"uint64"},{"name":"data","type":"bytes32","internalType":"bytes32"}],"outputs":[{"name":"meta","type":"tuple","internalType":"struct Descriptor","components":[{"name":"traits","type":"uint32","internalType":"uint32"},{"name":"rev","type":"uint32","internalType":"uint32"},{"name":"kindRev","type":"uint32","internalType":"uint32"},{"name":"setRev","type":"uint32","internalType":"uint32"},{"name":"kindId","type":"uint64","internalType":"uint64"},{"name":"setId","type":"uint64","internalType":"uint64"}]}],"stateMutability":"nonpayable"},{"type":"function","name":"relationUpdate","inputs":[{"name":"id","type":"uint64","internalType":"uint64"},{"name":"data","type":"bytes32","internalType":"bytes32"},{"name":"adjs","type":"tuple[]","internalType":"struct Adjacency[]","components":[{"name":"degs","type":"uint16","internalType":"uint16"},{"name":"kind","type":"uint48","internalType":"uint48"}]}],"outputs":[{"name":"meta","type":"tuple","internalType":"struct Descriptor","components":[{"name":"traits","type":"uint32","internalType":"uint32"},{"name":"rev","type":"uint32","internalType":"uint32"},{"name":"kindRev","type":"uint32","internalType":"uint32"},{"name":"setRev","type":"uint32","internalType":"uint32"},{"name":"kindId","type":"uint64","internalType":"uint64"},{"name":"setId","type":"uint64","internalType":"uint64"}]}],"stateMutability":"nonpayable"},{"type":"function","name":"relationUpgrade","inputs":[{"name":"id","type":"uint64","internalType":"uint64"},{"name":"kindRev","type":"uint32","internalType":"uint32"},{"name":"setRev","type":"uint32","internalType":"uint32"}],"outputs":[{"name":"meta","type":"tuple","internalType":"struct Descriptor","components":[{"name":"traits","type":"uint32","internalType":"uint32"},{"name":"rev","type":"uint32","internalType":"uint32"},{"name":"kindRev","type":"uint32","internalType":"uint32"},{"name":"setRev","type":"uint32","internalType":"uint32"},{"name":"kindId","type":"uint64","internalType":"uint64"},{"name":"setId","type":"uint64","internalType":"uint64"}]}],"stateMutability":"nonpayable"},{"type":"function","name":"renounceOwnership","inputs":[],"outputs":[],"stateMutability":"nonpayable"},{"type":"function","name":"revokeFrom","inputs":[{"name":"tail","type":"uint128","internalType":"uint128"},{"name":"grantId","type":"uint32","internalType":"uint32"}],"outputs":[],"stateMutability":"nonpayable"},{"type":"function","name":"revokeTo","inputs":[{"name":"head","type":"uint128","internalType":"uint128"},{"name":"grantId","type":"uint32","internalType":"uint32"}],"outputs":[],"stateMutability":"nonpayable"},{"type":"function","name":"semver","inputs":[],"outputs":[{"name":"version","type":"uint32","internalType":"uint32"}],"stateMutability":"pure"},{"type":"function","name":"setRegistry","inputs":[],"outputs":[{"name":"","type":"address","internalType":"address"}],"stateMutability":"view"},{"type":"function","name":"transferOwnership","inputs":[{"name":"newOwner","type":"address","internalType":"address"}],"outputs":[],"stateMutability":"nonpayable"},{"type":"function","name":"unrelate","inputs":[{"name":"tail","type":"uint256","internalType":"uint256"},{"name":"rel","type":"uint64","internalType":"uint64"},{"name":"head","type":"uint256","internalType":"uint256"}],"outputs":[],"stateMutability":"nonpayable"},{"type":"function","name":"upgradeToAndCall","inputs":[{"name":"newImplementation","type":"address","internalType":"address"},{"name":"data","type":"bytes","internalType":"bytes"}],"outputs":[],"stateMutability":"payable"},{"type":"event","name":"GrantFrom","inputs":[{"name":"tail","type":"uint128","indexed":false,"internalType":"uint128"},{"name":"grant","type":"tuple","indexed":false,"internalType":"struct RelationGrant","components":[{"name":"id","type":"uint32","internalType":"uint32"},{"name":"status","type":"uint8","internalType":"uint8"},{"name":"initiator","type":"uint8","internalType":"enum RelationInitiator"},{"name":"reserved","type":"uint16","internalType":"uint16"},{"name":"rel","type":"uint64","internalType":"uint64"},{"name":"kind","type":"uint64","internalType":"uint64"},{"name":"set","type":"uint64","internalType":"uint64"},{"name":"extra","type":"bytes32","internalType":"bytes32"}]}],"anonymous":false},{"type":"event","name":"GrantTo","inputs":[{"name":"head","type":"uint128","indexed":false,"internalType":"uint128"},{"name":"grant","type":"tuple","indexed":false,"internalType":"struct RelationGrant","components":[{"name":"id","type":"uint32","internalType":"uint32"},{"name":"status","type":"uint8","internalType":"uint8"},{"name":"initiator","type":"uint8","internalType":"enum RelationInitiator"},{"name":"reserved","type":"uint16","internalType":"uint16"},{"name":"rel","type":"uint64","internalType":"uint64"},{"name":"kind","type":"uint64","internalType":"uint64"},{"name":"set","type":"uint64","internalType":"uint64"},{"name":"extra","type":"bytes32","internalType":"bytes32"}]}],"anonymous":false},{"type":"event","name":"Initialized","inputs":[{"name":"version","type":"uint64","indexed":false,"internalType":"uint64"}],"anonymous":false},{"type":"event","name":"OwnershipTransferred","inputs":[{"name":"previousOwner","type":"address","indexed":true,"internalType":"address"},{"name":"newOwner","type":"address","indexed":true,"internalType":"address"}],"anonymous":false},{"type":"event","name":"Related","inputs":[{"name":"head","type":"uint128","indexed":false,"internalType":"uint128"},{"name":"desc","type":"tuple","indexed":false,"internalType":"struct Descriptor","components":[{"name":"traits","type":"uint32","internalType":"uint32"},{"name":"rev","type":"uint32","internalType":"uint32"},{"name":"kindRev","type":"uint32","internalType":"uint32"},{"name":"setRev","type":"uint32","internalType":"uint32"},{"name":"kindId","type":"uint64","internalType":"uint64"},{"name":"setId","type":"uint64","internalType":"uint64"}]},{"name":"arc","type":"uint256","indexed":false,"internalType":"uint256"}],"anonymous":false},{"type":"event","name":"Related","inputs":[{"name":"head","type":"uint128","indexed":false,"internalType":"uint128"},{"name":"desc","type":"tuple","indexed":false,"internalType":"struct Descriptor","components":[{"name":"traits","type":"uint32","internalType":"uint32"},{"name":"rev","type":"uint32","internalType":"uint32"},{"name":"kindRev","type":"uint32","internalType":"uint32"},{"name":"setRev","type":"uint32","internalType":"uint32"},{"name":"kindId","type":"uint64","internalType":"uint64"},{"name":"setId","type":"uint64","internalType":"uint64"}]},{"name":"arcs","type":"uint256[]","indexed":false,"internalType":"uint256[]"}],"anonymous":false},{"type":"event","name":"RelationRegistered","inputs":[{"name":"id","type":"uint64","indexed":false,"internalType":"uint64"},{"name":"desc","type":"tuple","indexed":false,"internalType":"struct Descriptor","components":[{"name":"traits","type":"uint32","internalType":"uint32"},{"name":"rev","type":"uint32","internalType":"uint32"},{"name":"kindRev","type":"uint32","internalType":"uint32"},{"name":"setRev","type":"uint32","internalType":"uint32"},{"name":"kindId","type":"uint64","internalType":"uint64"},{"name":"setId","type":"uint64","internalType":"uint64"}]},{"name":"code","type":"address","indexed":false,"internalType":"address"},{"name":"data","type":"bytes32","indexed":false,"internalType":"bytes32"},{"name":"rule","type":"tuple","indexed":false,"internalType":"struct RelationRule","components":[{"name":"version","type":"uint8","internalType":"uint8"},{"name":"relateShift","type":"uint8","internalType":"enum RelationOwnerShift"},{"name":"terminator","type":"uint8","internalType":"enum RelationTerminator"},{"name":"unrelateShift","type":"uint8","internalType":"enum RelationOwnerShift"},{"name":"unrelateDelay","type":"uint64","internalType":"uint64"},{"name":"extra","type":"bytes20","internalType":"bytes20"}]},{"name":"adjs","type":"tuple[]","indexed":false,"internalType":"struct Adjacency[]","components":[{"name":"degs","type":"uint16","internalType":"uint16"},{"name":"kind","type":"uint48","internalType":"uint48"}]},{"name":"owner","type":"address","indexed":false,"internalType":"address"}],"anonymous":false},{"type":"event","name":"RelationTouched","inputs":[{"name":"id","type":"uint64","indexed":false,"internalType":"uint64"},{"name":"desc","type":"tuple","indexed":false,"internalType":"struct Descriptor","components":[{"name":"traits","type":"uint32","internalType":"uint32"},{"name":"rev","type":"uint32","internalType":"uint32"},{"name":"kindRev","type":"uint32","internalType":"uint32"},{"name":"setRev","type":"uint32","internalType":"uint32"},{"name":"kindId","type":"uint64","internalType":"uint64"},{"name":"setId","type":"uint64","internalType":"uint64"}]}],"anonymous":false},{"type":"event","name":"RelationTransferred","inputs":[{"name":"id","type":"uint64","indexed":false,"internalType":"uint64"},{"name":"from","type":"address","indexed":false,"internalType":"address"},{"name":"to","type":"address","indexed":false,"internalType":"address"}],"anonymous":false},{"type":"event","name":"RelationUpdated","inputs":[{"name":"id","type":"uint64","indexed":false,"internalType":"uint64"},{"name":"desc","type":"tuple","indexed":false,"internalType":"struct Descriptor","components":[{"name":"traits","type":"uint32","internalType":"uint32"},{"name":"rev","type":"uint32","internalType":"uint32"},{"name":"kindRev","type":"uint32","internalType":"uint32"},{"name":"setRev","type":"uint32","internalType":"uint32"},{"name":"kindId","type":"uint64","internalType":"uint64"},{"name":"setId","type":"uint64","internalType":"uint64"}]},{"name":"data","type":"bytes32","indexed":false,"internalType":"bytes32"}],"anonymous":false},{"type":"event","name":"RelationUpgraded","inputs":[{"name":"id","type":"uint64","indexed":false,"internalType":"uint64"},{"name":"desc","type":"tuple","indexed":false,"internalType":"struct Descriptor","components":[{"name":"traits","type":"uint32","internalType":"uint32"},{"name":"rev","type":"uint32","internalType":"uint32"},{"name":"kindRev","type":"uint32","internalType":"uint32"},{"name":"setRev","type":"uint32","internalType":"uint32"},{"name":"kindId","type":"uint64","internalType":"uint64"},{"name":"setId","type":"uint64","internalType":"uint64"}]}],"anonymous":false},{"type":"event","name":"RevokeFrom","inputs":[{"name":"tail","type":"uint128","indexed":false,"internalType":"uint128"},{"name":"grantId","type":"uint32","indexed":false,"internalType":"uint32"}],"anonymous":false},{"type":"event","name":"RevokeTo","inputs":[{"name":"head","type":"uint128","indexed":false,"internalType":"uint128"},{"name":"grantId","type":"uint32","indexed":false,"internalType":"uint32"}],"anonymous":false},{"type":"event","name":"Unrelated","inputs":[{"name":"head","type":"uint128","indexed":false,"internalType":"uint128"},{"name":"desc","type":"tuple","indexed":false,"internalType":"struct Descriptor","components":[{"name":"traits","type":"uint32","internalType":"uint32"},{"name":"rev","type":"uint32","internalType":"uint32"},{"name":"kindRev","type":"uint32","internalType":"uint32"},{"name":"setRev","type":"uint32","internalType":"uint32"},{"name":"kindId","type":"uint64","internalType":"uint64"},{"name":"setId","type":"uint64","internalType":"uint64"}]},{"name":"arc","type":"uint256","indexed":false,"internalType":"uint256"}],"anonymous":false},{"type":"event","name":"Unrelated","inputs":[{"name":"head","type":"uint128","indexed":false,"internalType":"uint128"},{"name":"desc","type":"tuple","indexed":false,"internalType":"struct Descriptor","components":[{"name":"traits","type":"uint32","internalType":"uint32"},{"name":"rev","type":"uint32","internalType":"uint32"},{"name":"kindRev","type":"uint32","internalType":"uint32"},{"name":"setRev","type":"uint32","internalType":"uint32"},{"name":"kindId","type":"uint64","internalType":"uint64"},{"name":"setId","type":"uint64","internalType":"uint64"}]},{"name":"arcs","type":"uint256[]","indexed":false,"internalType":"uint256[]"}],"anonymous":false},{"type":"event","name":"Upgraded","inputs":[{"name":"implementation","type":"address","indexed":true,"internalType":"address"}],"anonymous":false},{"type":"error","name":"AddressEmptyCode","inputs":[{"name":"target","type":"address","internalType":"address"}]},{"type":"error","name":"AdjacencyKindNotExist","inputs":[]},{"type":"error","name":"AdjacencyOverflow","inputs":[]},{"type":"error","name":"AdjacencyUnderflow","inputs":[]},{"type":"error","name":"AdjacencyUnordered","inputs":[]},{"type":"error","name":"ArcExists","inputs":[]},{"type":"error","name":"ArcMismatch","inputs":[]},{"type":"error","name":"ArcNotExist","inputs":[]},{"type":"error","name":"DegreeOverflow","inputs":[{"name":"kind","type":"uint48","internalType":"uint48"}]},{"type":"error","name":"DegreeUnderflow","inputs":[{"name":"kind","type":"uint48","internalType":"uint48"}]},{"type":"error","name":"ERC1967InvalidImplementation","inputs":[{"name":"implementation","type":"address","internalType":"address"}]},{"type":"error","name":"ERC1967NonPayable","inputs":[]},{"type":"error","name":"FailedCall","inputs":[]},{"type":"error","name":"GrantFilterKindInvalid","inputs":[]},{"type":"error","name":"GrantFilterRelationInvalid","inputs":[]},{"type":"error","name":"GrantFilterSetInvalid","inputs":[]},{"type":"error","name":"GrantInitiatorAnyoneExtraNotAllowed","inputs":[]},{"type":"error","name":"GrantInitiatorDelegateAddressInvalid","inputs":[]},{"type":"error","name":"GrantInitiatorEligibleAddressInvalid","inputs":[]},{"type":"error","name":"GrantInitiatorEligibleNotContract","inputs":[]},{"type":"error","name":"GrantInitiatorHolderObjectParamsInvalid","inputs":[]},{"type":"error","name":"GrantInitiatorHolderTokenTypeUnknown","inputs":[]},{"type":"error","name":"GrantInitiatorHolderUniqueParamsInvalid","inputs":[]},{"type":"error","name":"GrantInitiatorHolderValueParamsInvalid","inputs":[]},{"type":"error","name":"GrantInitiatorOwnerExtraNotAllowed","inputs":[]},{"type":"error","name":"GrantInitiatorTypeUnknown","inputs":[]},{"type":"error","name":"GrantNotFound","inputs":[]},{"type":"error","name":"GrantRevoked","inputs":[]},{"type":"error","name":"HeadKindRejectsRelation","inputs":[]},{"type":"error","name":"HeadSetRejectsTailObject","inputs":[]},{"type":"error","name":"InvalidCode","inputs":[]},{"type":"error","name":"InvalidData","inputs":[]},{"type":"error","name":"InvalidInitial","inputs":[]},{"type":"error","name":"InvalidInitialization","inputs":[]},{"type":"error","name":"InvalidKind","inputs":[]},{"type":"error","name":"InvalidRelateShift","inputs":[]},{"type":"error","name":"InvalidRelation","inputs":[]},{"type":"error","name":"InvalidUnrelateShift","inputs":[]},{"type":"error","name":"NotInitializing","inputs":[]},{"type":"error","name":"Overflow","inputs":[]},{"type":"error","name":"OwnableInvalidOwner","inputs":[{"name":"owner","type":"address","internalType":"address"}]},{"type":"error","name":"OwnableUnauthorizedAccount","inputs":[{"name":"account","type":"address","internalType":"address"}]},{"type":"error","name":"RecordNotExist","inputs":[{"name":"id","type":"uint64","internalType":"uint64"}]},{"type":"error","name":"RelationRejectsTailKind","inputs":[]},{"type":"error","name":"UUPSUnauthorizedCallContext","inputs":[]},{"type":"error","name":"UUPSUnsupportedProxiableUUID","inputs":[{"name":"slot","type":"bytes32","internalType":"bytes32"}]},{"type":"error","name":"Unauthorized","inputs":[]},{"type":"error","name":"UnauthorizedAccess","inputs":[{"name":"id","type":"uint64","internalType":"uint64"},{"name":"vistor","type":"address","internalType":"address"}]},{"type":"error","name":"Unimplemented","inputs":[]},{"type":"error","name":"UnrelateLocked","inputs":[]},{"type":"error","name":"UnsupportedHoldingState","inputs":[]}],"bytecode":{"object":"0x60a08060405234602957306080526155b5908161002e8239608051818181611652015261184d0152f35b5f80fdfe60806040526004361015610011575f80fd5b5f5f3560e01c806305be88ac146131a557806306a883a0146130e957806315ae71731461297c5780632392f87d146128935780632629dae8146128745780632aead72614611ee05780632c636a1114611e985780633440994b14611cb35780633dae8c2814611b39578063418239fb14611a1f5780634f1ef286146117d257806352393e1a146116db578063527f3e1f146116a657806352d1902d1461163f5780635634ad141461158b578063715018a614611522578063876993ca146113f55780638da5cb5b146113c0578063954fc712146112785780639e490e901461123e578063a926f041146110fa578063ac8b956b146110c5578063ad3cb1cc1461107c578063b19c379114611034578063b9f17a4714610af7578063bff9b97414610a23578063c9e2a1fb146107f0578063cda493c8146107d3578063df89b3fc1461070e578063eab25c4114610616578063ebeecfa3146104c1578063edd716f014610497578063f2fde38b1461046f5763f8c8765e14610190575f80fd5b3461046c57608036600319011261046c576101a96135ad565b6101b16135c3565b6044356001600160a01b0381169081900361046a576064356001600160a01b0381169290839003610466575f5160206154e05f395f51905f52549360ff8560401c1615946001600160401b0381168015908161045e575b6001149081610454575b15908161044b575b5061043c5767ffffffffffffffff1981166001175f5160206154e05f395f51905f525561025e919086610410575b50610251615205565b610259615205565b613e7e565b610266615205565b61026e615205565b60018060a01b03166001600160601b0360a01b5f5160206154805f395f51905f525416175f5160206154805f395f51905f5255306001600160601b0360a01b7f389a4784c2c3e8284bc1418c5b9cf4b556f52088a652459a6e23aae4f79027015416177f389a4784c2c3e8284bc1418c5b9cf4b556f52088a652459a6e23aae4f7902701556001600160601b0360a01b5f5160206155005f395f51905f525416175f5160206155005f395f51905f52556001600160601b0360a01b7f389a4784c2c3e8284bc1418c5b9cf4b556f52088a652459a6e23aae4f79027035416177f389a4784c2c3e8284bc1418c5b9cf4b556f52088a652459a6e23aae4f790270355610377615205565b601165ffffffffffff195f5160206155605f395f51905f525416175f5160206155605f395f51905f52556103a9615205565b6103b1615205565b6103b85780f35b68ff0000000000000000195f5160206154e05f395f51905f5254165f5160206154e05f395f51905f52557fc7f505b2f371ae2175ee4913f4499e1f2633a7b5936321eed1cdaeb6115181d2602060405160018152a180f35b68ffffffffffffffffff191668010000000000000001175f5160206154e05f395f51905f52555f610248565b63f92ee8a960e01b8752600487fd5b9050155f61021a565b303b159150610212565b879150610208565b8480fd5b835b80fd5b503461046c57602036600319011261046c5761049461048c6135ad565b610259614786565b80f35b503461046c5760206104b76104ab366135d9565b94939093929192613d69565b6040519015158152f35b503461046c57604036600319011261046c576104db613356565b6104e3613429565b602082901b600160201b600160a01b031663ffffffff821617600160a01b17918284525f5160206155405f395f51905f5260205260ff604085205460201c1615610607578284525f5160206155405f395f51905f52602052600260ff604086205460201c16146105f8578284525f5160206155405f395f51905f52602052600160ff604086205460201c1614610577578380f35b7fc9dbe135de02dd78e4f9241c7a751be6da4d2848fc9b92c3ad16116fe884b4dd9284525f5160206155405f395f51905f526020526040842064020000000064ff00000000198254161790556105ee6040519283928390929163ffffffff6020916001600160801b03604085019616845216910152565b0390a15f80808380f35b63af9adea160e01b8452600484fd5b633dc6547760e11b8452600484fd5b503461046c57604036600319011261046c576106618161063461343c565b61063c613429565b90610645613898565b5060405163340100c160e01b8152938492839260048401613bbf565b038173__$bfd2951eaa3e5aabb9283af4830755d90c$__5af490811561070357829083926106de575b50906040519283926106a08460e0810192613529565b60e060c08501528251809152602061010085019301915b8181106106c5575050500390f35b82518452859450602093840193909201916001016106b7565b90506106fc91503d8084833e6106f48183613408565b810190613b36565b905f61068a565b6040513d84823e3d90fd5b503461046c57604036600319011261046c5761075290602061072e61343c565b610736613429565b60405163310ace3360e11b815294859283929060048401613967565b038173__$bfd2951eaa3e5aabb9283af4830755d90c$__5af49081156107c757809161078a575b60208263ffffffff60405191168152f35b90506020823d6020116107bf575b816107a560209383613408565b8101031261046c57506107b96020916138c8565b5f610779565b3d9150610798565b604051903d90823e3d90fd5b503461046c578060031936011261046c5760206040516101008152f35b503461046c57606036600319011261046c5761080a61343c565b602435906044356001600160401b03811161046a5761082d90369060040161372b565b610835613898565b508215610a1457610845816147b9565b60405163340100c160e01b81529173__$bfd2951eaa3e5aabb9283af4830755d90c$__919086848061087a8860048301613bf9565b0381865af4938415610a09579160c093918895936109199899946109eb575b50886108a485613c51565b526108ae81614e50565b906108b881614fbc565b906108cb6108c58261507f565b91615142565b6108d487613c61565b526108de86613c71565b526108e885613c81565b526108f284613c91565b526108fc83613c2c565b5260405180809781946314447f4f60e11b83528860048401613ce8565b03915af49283156109de578193610973575b60c0847f86243bb113d9a8a43a582f97fd5e112834f3266cff2cd53f10c4eea05b8bfb5f81866109618a60405193849384613d1b565b0390a16109716040518092613529565bf35b9091925060c03d60c0116109d7575b61098c8183613408565b81019160c08284031261046c575092610961926109cc7f86243bb113d9a8a43a582f97fd5e112834f3266cff2cd53f10c4eea05b8bfb5f9360c0966138ed565b93509181945061092b565b503d610982565b50604051903d90823e3d90fd5b610a009194503d8088833e6106f48183613408565b9050925f610899565b6040513d89823e3d90fd5b635cb045db60e01b8452600484fd5b503461046c57602036600319011261046c57610a7f906020610a4361343c565b604051639101c02760e01b81525f5160206154c05f395f51905f5260048201526001600160401b03909116602482015292839081906044820190565b038173__$bfd2951eaa3e5aabb9283af4830755d90c$__5af49081156107c7578091610aba575b6040516001600160a01b0383168152602090f35b90506020823d602011610aef575b81610ad560209383613408565b8101031261046c5750610ae9602091613b22565b5f610aa6565b3d9150610ac8565b503461046c5761012036600319011261046c57610b126135ad565b60243560c0366043190112610f2f5760405191610b2e8361339c565b60443560ff81168103610466578352606435600f811015610466576020840152608435600681101561046657604084015260a435600f81101561046657606084015260c4356001600160401b038116810361046657608084015260e4356bffffffffffffffffffffffff19811681036104665760a0840152610104356001600160401b03811161046657610bc690369060040161372b565b90610bcf613898565b506001600160a01b03168061102557821561101657610bed826147b9565b9465ffffffffffff5f5160206155605f395f51905f5254169465fffffffffffe8610156110075765ffffffffffff8614610ff35765ffffffffffff600187011665ffffffffffff195f5160206155605f395f51905f525416175f5160206155605f395f51905f5255610120604051610c658282613408565b6008815260208101601f198301368237815115610fdf5785905286610c8982613c51565b52805160021015610fcb57604498846060830152610ca687614e50565b610caf88614fbc565b610cb88961507f565b610cc18a615142565b610cca86613c61565b52610cd485613c71565b52610cde84613c81565b52610ce883613c91565b52610cf282613c2c565b525f5160206155005f395f51905f5254604051638399ebdd60e01b81526003600482015260248101869052996020918b919082906001600160a01b03165afa988915610f33578499610f8f575b505f5160206154805f395f51905f525460405163386956c760e01b8152600360048201526024810186905290602090829060449082906001600160a01b03165afa908115610f84578591610f3e575b5063ffffffff908160209b60016040519d8e610da98161339c565b8a815201521660408c01521660608a0152600360808a0152600360a08a015273__$bfd2951eaa3e5aabb9283af4830755d90c$__803b1561046657610e2485918b8b610e3860405196879586948594634881a43960e01b86525f5160206154c05f395f51905f52600487015260248601526044850190613529565b610140610104840152610144830190613cb5565b3361012483015203915af48015610f3357908491610f1a575b505090610e889160409493945196610220880194898952610e7560208a018c613529565b60e089015261010088015286019061369b565b6102206101e08501528251809152602061024085019301915b818110610eec5750505090807f090e1a52be5a331e1b485a02a3cd2962e5bd3131483cb39a9afb3894f65cd42892336102008301520390a1610ee8604051928392836137ca565b0390f35b8251805161ffff16855260209081015165ffffffffffff168186015260409094019390920191600101610ea1565b81610f2491613408565b610f2f57825f610e51565b8280fd5b6040513d86823e3d90fd5b90506020813d602011610f7c575b81610f5960209383613408565b810103126104665760209963ffffffff610f7381936138c8565b92505099610d8e565b3d9150610f4c565b6040513d87823e3d90fd5b9098506020813d602011610fc3575b81610fab60209383613408565b8101031261046a57610fbc906138c8565b975f610d3f565b3d9150610f9e565b634e487b7160e01b84526032600452602484fd5b634e487b7160e01b85526032600452602485fd5b634e487b7160e01b82526011600452602482fd5b631a93c68960e11b8252600482fd5b635cb045db60e01b8552600485fd5b636e12839960e01b8552600485fd5b503461046c578060031936011261046c577f389a4784c2c3e8284bc1418c5b9cf4b556f52088a652459a6e23aae4f7902703546040516001600160a01b039091168152602090f35b503461046c578060031936011261046c5750610ee860405161109f604082613408565b60058152640352e302e360dc1b6020820152604051918291602083526020830190613707565b503461046c578060031936011261046c575f5160206154805f395f51905f52546040516001600160a01b039091168152602090f35b503461046c57604036600319011261046c5761111461343c565b9061111d6135c3565b604051635640151160e11b81525f5160206154c05f395f51905f5260048201526001600160401b03841660248201526001600160a01b038216604482015290929060208160648173__$bfd2951eaa3e5aabb9283af4830755d90c$__5af49283156107c75780936111d4575b6020847f0380003014d3eb866ebb3263769d0a1ee8a22d65fb9ee45694fdff8a272296e981866111bf8a60405193849384613d3f565b0390a16040516001600160a01b039091168152f35b909192506020823d602011611236575b816111f160209383613408565b8101031261046c57506020926111bf9261122b7f0380003014d3eb866ebb3263769d0a1ee8a22d65fb9ee45694fdff8a272296e993613b22565b935091819450611189565b3d91506111e4565b503461046c57602036600319011261046c5760c061126b61125d61343c565b611265613898565b50614676565b610971604051809261369b565b503461046c57606036600319011261046c5761129261343c565b61129a613429565b9160443563ffffffff81168091036113bc576112b4613898565b5063ffffffff6040519463d995904360e01b86525f5160206154c05f395f51905f5260048701526001600160401b038516602487015216604485015260648401526008608484015260c08360a48173__$bfd2951eaa3e5aabb9283af4830755d90c$__5af49283156109de57819361135c575b60c0847fad4b280f21eb4bc313771beab60b6535c835235b422fe851f718c6bef2f283938186610961604051928392836137ca565b90925060c03d60c0116113b5575b6113748183613408565b81019260c08285031261046c57506113af60c0937fad4b280f21eb4bc313771beab60b6535c835235b422fe851f718c6bef2f28393926138ed565b92611327565b503d61136a565b5080fd5b503461046c578060031936011261046c575f5160206154205f395f51905f52546040516001600160a01b039091168152602090f35b503461046c57604036600319011261046c5761140f613356565b611417613429565b602082901b600160201b600160a01b031663ffffffff821617600160a11b17918284525f5160206155405f395f51905f5260205260ff604085205460201c1615610607578284525f5160206155405f395f51905f52602052600260ff604086205460201c16146105f8578284525f5160206155405f395f51905f52602052600160ff604086205460201c16146114ab578380f35b7fcec1bd5bf41ed1329467f96f878d44c30902e4c524e42c2568b86de0f97017659284525f5160206155405f395f51905f526020526040842064020000000064ff00000000198254161790556105ee6040519283928390929163ffffffff6020916001600160801b03604085019616845216910152565b503461046c578060031936011261046c5761153b614786565b5f5160206154205f395f51905f5280546001600160a01b0319811690915581906001600160a01b03167f8be0079c531659141344cd1fd0a4f28419497f9722a3daafe3b4186f6b6457e08280a380f35b503461046c57604036600319011261046c576115a561343c565b602435906115b1613898565b5081156116305760405163340100c160e01b815273__$bfd2951eaa3e5aabb9283af4830755d90c$__8482806115ea8660048301613bf9565b0381845af4918215610f84579160c0918693610919969792611612575b50866108fc83613c51565b6116279192503d8086833e6106f48183613408565b9050905f611607565b635cb045db60e01b8352600483fd5b503461046c578060031936011261046c577f00000000000000000000000000000000000000000000000000000000000000006001600160a01b031630036116975760206040515f5160206154605f395f51905f528152f35b63703e46dd60e11b8152600490fd5b503461046c578060031936011261046c575f5160206155005f395f51905f52546040516001600160a01b039091168152602090f35b503461046c57602036600319011261046c5761173e60e06116fa61343c565b611702613898565b5060405163154c1b43831b81525f5160206154c05f395f51905f5260048201526001600160401b03909116602482015291829081906044820190565b038173__$bfd2951eaa3e5aabb9283af4830755d90c$__5af480156107035782918391611787575b60e083836117776040518093613529565b6001600160a01b031660c0820152f35b91505060e03d60e0116117cb575b61179f8183613408565b81019160e08284031261046c57506117c560c06117be60e094846138ed565b9201613b22565b5f611766565b503d611795565b50604036600319011261046c576117e76135ad565b602435906001600160401b038211610f2f5736602383011215610f2f578160040135908361181483613673565b936118226040519586613408565b83855260208501933660248284010111610f2f57806024602093018637850101526001600160a01b037f0000000000000000000000000000000000000000000000000000000000000000163081149081156119fd575b506119ee57611885614786565b6040516352d1902d60e01b81526001600160a01b0382169390602081600481885afa8691816119b6575b506118c857634c9c8ce360e01b86526004859052602486fd5b93845f5160206154605f395f51905f528796036119a45750823b15611992575f5160206154605f395f51905f5280546001600160a01b031916821790558491907fbc7cd75a20ee27fd9adebab32041f755214dbc6bffa90cc0225b39da2e5c2d3b8380a28051156119775761196b9382915190845af43d1561196f573d9161194f83613673565b9261195d6040519485613408565b83523d85602085013e6153c1565b5080f35b6060916153c1565b50505050346119835780f35b63b398979f60e01b8152600490fd5b634c9c8ce360e01b8552600452602484fd5b632a87526960e21b8652600452602485fd5b9091506020813d6020116119e6575b816119d260209383613408565b810103126119e25751905f6118af565b5f80fd5b3d91506119c5565b63703e46dd60e11b8452600484fd5b5f5160206154605f395f51905f52546001600160a01b0316141590505f611878565b503461046c57602036600319011261046c57611a3961343c565b611a41613898565b50604051637ce36e2360e11b81525f5160206154c05f395f51905f5260048201526001600160401b0382166024820152600860448201529160c08360648173__$bfd2951eaa3e5aabb9283af4830755d90c$__5af49283156109de578193611ad9575b60c0847f847be2ee41fb7fd819cd9f0fa2c88487d5a0b19369ae96421d660bd92116f9a48186610961604051928392836137ca565b90925060c03d60c011611b32575b611af18183613408565b81019260c08285031261046c5750611b2c60c0937f847be2ee41fb7fd819cd9f0fa2c88487d5a0b19369ae96421d660bd92116f9a4926138ed565b92611aa4565b503d611ae7565b503461046c57602036600319011261046c57600435906001600160401b03821161046c573660238301121561046c578160040135611b768161365c565b92611b846040519485613408565b81845260208401906024829360051b8201019036821161046657929492602401915b818310611c8d57505050604051928391631cff580560e11b835260448301905f5160206154c05f395f51905f5260048501526040602485015251809152606483019190845b818110611c6b575050509080602092038173__$bfd2951eaa3e5aabb9283af4830755d90c$__5af49081156107c7578091611c2e575b6020826040519015158152f35b90506020823d602011611c63575b81611c4960209383613408565b8101031261046c5750611c5d602091613b15565b5f611c21565b3d9150611c3c565b82516001600160401b0316845286945060209384019390920191600101611beb565b92949282356001600160401b03811681036119e257815292949260209283019201611ba6565b503461046c57611cc236613452565b611ccd829392613eef565b6001600160a01b031633039250611e8a91505057611cea81613f19565b600160201b600160a01b038360201b16600160a11b1782525f5160206154a05f395f51905f5260205263ffffffff60408320611d28828254166137ec565b815483191692169182179055808252600160208084019182526060840185815295929083901b600160201b600160a01b031663ffffffff90911617600160a11b1784525f5160206155405f395f51905f5260209081526040852084518154935164ffffffffff1990941663ffffffff91909116179290911b64ff00000000169190911781556040830151946005861015611e76578154905160808581015160a087015160c08089015164ffffffffff90961660289b909b1b60ff60281b169a909a1760309490941b61ffff60301b169390931760409190911b67ffffffffffffffff60401b161791901b67ffffffffffffffff60801b1617951b6001600160c01b03191694909417845591927f3990c6121ebba199bf4e035554adbe455162e4898a348962cca8d43806076a829290600160e0840151910155611e7060405192839283613803565b0390a180f35b634e487b7160e01b85526021600452602485fd5b6282b42960e81b8252600482fd5b503461046c578060031936011261046c577f389a4784c2c3e8284bc1418c5b9cf4b556f52088a652459a6e23aae4f7902701546040516001600160a01b039091168152602090f35b50346119e257611f3790611f17611ef636613583565b94919290948060c01c916001600160801b0363ffffffff8360801c16921690565b939150508060c01c916001600160801b0363ffffffff8360801c16921690565b92919050611f44826141c7565b611f4d846141c7565b916001600160801b0360208401511691602081016001600160801b03815116935f60e0604051611f7c8161336c565b8281528260208201528260408201528260608201528260808201528260a08201528260c082015201525f525f5160206155205f395f51905f5260205260405f209060405194611fca8661336c565b825465ffffffffffff81168752602087019365ffffffffffff8260301c16855265ffffffffffff8260601c16600160408a019282845260608b019460901c8552015460ff811660808b015260018060a01b038160081c1660a08b015262ffffff8160a81c1660c08b015260c01c60e08a015215612865575165ffffffffffff166001600160401b038d160361285657516001600160701b031603612856576120dc91612074613898565b506040848101516080810151908201515f5160206155005f395f51905f52548351632dc61f7d60e01b81526001600160401b03938416600482015263ffffffff9092166024830152918e1660448201529485916001600160a01b031690829081906064820190565b03915afa92831561284b575f905f94612817575b50156127da57505061211e90612104613ae4565b506001600160401b0360806040880151015116908a614274565b9290929161213261212d61434e565b614c71565b61214665ffffffffffff8551168b89614751565b936121518b89614724565b5f8681525f5160206154405f395f51905f5260205260409020549091905f199061217d90600190613b08565b9161218f8361218a61434e565b614cc3565b61221d602082019361ffff855116946121d160409687516121b08982613408565b600f81526e626f756e64732e6b696e644465677360881b6020820152614cc3565b61220765ffffffffffff85511687516121ea8982613408565b600b81526a189bdd5b991ccb9ada5b9960aa1b6020820152614cc3565b61ffff65ffffffffffff85511691511691614d2b565b61222861212d61434e565b65ffffffffffff8382015116612777575b50505093925b608086015160ff1661274f5760808701516001600160a01b03165b6040820151600681101561273b5761266e576001600160a01b03163303612660575b6001600160401b036080820151168061260f575b50608087810151838201519188015160608401516001600160a01b03928316949093600f85101593169160ff16836125fb57806124ce575050506124ba576124ab5786918b91805b6001600160a01b038216819003612404575b50509261230092916001600160801b03946143c4565b961687525f5160206155205f395f51905f5260205286600160408220828155015586525f5160206154405f395f51905f52602052604086208054905f1982019182116123f0575585525f5160206154405f395f51905f526020526040852080545f198101919082116123dc575560e0015160209091015193947fabb20dc355962c71db26b27f6a9b318b5f54e9cdfb67bd31ba7f7ec6461f882294611e709260c01b6001600160c01b03191660809290921b67ffffffffffffffff60801b16919091176001600160801b0391909116176040519384938461399a565b634e487b7160e01b87526011600452602487fd5b634e487b7160e01b88526011600452602488fd5b6020929450612445935060018060a01b0360608b015116908d6001600160401b038c511660405196879586948593638aed990760e01b855260048501613d3f565b03925af180156124a057928b6123009389936001600160801b0396612471575b509194819394506122ea565b6124929060203d602011612499575b61248a8183613408565b8101906143a4565b505f612465565b503d612480565b6040513d8c823e3d90fd5b630f54c17160e21b8a5260048afd5b634e487b7160e01b8b52602160045260248bfd5b6001811015806125f0575b1561251f575050506124ba57918b91838994155f146124f95750806122d8565b91935091506007036124ab5760a086015187928c9290916001600160a01b0316906122d8565b9193909250906007036125e157918d93918a959380155f1461254457505050806122d8565b939550919350916001810361256257630f54c17160e21b8d5260048dfd5b8c9160018211806125d3575b156125c45760a0015160601c916125b0578994928e94926125a161259c6125976125aa95614370565b614382565b614395565b91339085614d54565b906122d8565b634e487b7160e01b8d52602160045260248dfd5b630f54c17160e21b8e5260048efd5b508d9250600682111561256e565b63220bd06d60e21b8d5260048dfd5b5060068111156124d9565b634e487b7160e01b8f52602160045260248ffd5b65ffffffffffff875116016001600160401b03811161264c576001600160401b0316421061263d575f612290565b6309b89c0160e11b8a5260048afd5b634e487b7160e01b8b52601160045260248bfd5b6282b42960e81b8a5260048afd5b6040820151600681101561273b5760010361269e575060808201516001600160a01b03163303612660575b61227c565b6040820151600681101561273b576002036126e5576001600160a01b0316331415806126ce575b6126605761227c565b5060808201516001600160a01b03163314156126c5565b6040820151600681101561273b57600303612735576001600160a01b03163314801561271f575b15612699576282b42960e81b8a5260048afd5b5060808201516001600160a01b0316331461270c565b5061227c565b634e487b7160e01b8c52602160045260248cfd5b608086015160ff16600703612764578961225a565b60a08601516001600160a01b031661225a565b5f8481525f5160206154405f395f51905f5260205292832054929c5090600160ff1b81146127c65760606127b46127be9461ffff935f0390613b08565b9201511690614d06565b5f8080612239565b634e487b7160e01b5f52601160045260245ffd5b92909391506128118a61280b65ffffffffffff6001600160801b036127fe84614676565b9851169651168287614751565b94614724565b9361223f565b905061283c91935060403d604011612844575b6128348183613408565b810190614253565b92905f6120f0565b503d61282a565b6040513d5f823e3d90fd5b6313236d6b60e01b5f5260045ffd5b635c11956d60e01b5f5260045ffd5b346119e25760206104b7612887366135d9565b949390939291926139c2565b346119e25760603660031901126119e2576128ac61343c565b6128b4613429565b604435916001600160401b03831683036119e25760405163340100c160e01b8152915f91839182916128ea919060048401613bbf565b038173__$bfd2951eaa3e5aabb9283af4830755d90c$__5af490811561284b5761ffff65ffffffffffff61293860a0958261292f819786975f91612960575b50613c2c565b51911690615230565b9592604098919498519815158952166020880152166040860152166060840152166080820152f35b61297491503d805f833e6106f48183613408565b90508a612929565b346119e2576129d16129b161299036613583565b93919290938060c01c916001600160801b0363ffffffff8360801c16921690565b929150928060c01c916001600160801b0363ffffffff8360801c16921690565b6129dd849592956141c7565b6129e6826141c7565b926001600160801b036020850151165f525f5160206155205f395f51905f5260205260405f20604051612a188161336c565b60e0600183549365ffffffffffff8516845265ffffffffffff8560301c16602085015265ffffffffffff8560601c169485604086015260901c6060850152015460ff8116608084015260018060a01b038160081c1660a084015262ffffff8160a81c1660c084015260c01c9101526130da576040828101516080810151908201515f5160206155005f395f51905f52548351632dc61f7d60e01b81526001600160401b03938416600482015263ffffffff9092166024830152918b166044820152929190839060649082906001600160a01b03165afa91821561284b575f905f936130b6575b50156130a757612b2663ffffffff926001600160401b0360806040890151015116908b614274565b92909816155f146130a15760808501516001600160a01b031633145b1561308d5763ffffffff1661309b5760808201516001600160a01b031633145b1561308d57612b7261212d61434e565b612b8665ffffffffffff8851168988614751565b90612b918988614724565b92825f525f5160206154405f395f51905f5260205260405f205495600187018097116127c6578996612c0f90612bc98161218a61434e565b6020890161ffff65ffffffffffff818351169b612bef60409d8e6121b081519182613408565b612c048d83835116906121ea81519182613408565b511691511691614d2b565b612c1a61212d61434e565b65ffffffffffff878b015116613050575b608081810180519184015160208601516001600160a01b0393841696909390929116600f841015612e9d578b938f9360ff821680612f46575050505060018060a01b03905116935f945f965b6001600160a01b038216819003612eb1575b50509165ffffffffffff9391612c9e936143c4565b995116916008821015612e9d57876001600160401b03918760ff60018f8c908f612dec9a65ffffffffffff845194612cd58661336c565b81421686526020860192835281818701951685526001600160701b03606087019416845287608087019d168d5260a0860199878060a01b03168a526001600160801b0360c08701995f8b528d60e089019d168d52165f525f5160206155205f395f51905f526020525f2094511665ffffffffffff19855416178455519165ffffffffffff6bffffffffffff0000000000008554928260601b905160601b169371ffffffffffffffffffffffffffffffffffff19905160901b169460301b169116171717815501955116855492610100600160a81b03905160081b169162ffffff60a81b905160a81b16928560c01b16171717835551168154906001600160401b0360c01b9060c01b169060018060c01b0316179055565b5f525f5160206154405f395f51905f52602052825f20805490600182018092116127c657555f525f5160206154405f395f51905f52602052815f2090815493600185018095116127c657939091557f6176e60cd4ddf52618fa61f79a2b5fa724340395bb91018698deae36496754fa95612e989360c01b6001600160c01b03191660809190911b67ffffffffffffffff60801b16176001600160801b039091161790519384938461399a565b0390a1005b634e487b7160e01b5f52602160045260245ffd5b6020929450612ef2935060018060a01b03606087015116905f8d6001600160401b03895116905196879586948593638aed990760e01b855260048501613d3f565b03925af18015612f3c578d612c9e9365ffffffffffff95938d93612f1d575b50919381939550612c89565b612f359060203d6020116124995761248a8183613408565b505f612f11565b89513d5f823e3d90fd5b92955092509250600181101580613045575b15612fa1575060a0612f6f91015160601c91614370565b60ff5f1991160160ff81116127c6578a928e92612f8e612f9793614395565b91339089614d54565b935f945f96612c77565b9094909160078303612fbc57634fcf118160e11b5f5260045ffd5b8b938f9360088110158061303a575b1561300c5750613006903092612ffd61259c61259760a0612ff161259c61259787614370565b9c015160601c93614370565b9133908b614d54565b96612c77565b935050509350600e9150145f1461302b57878b30936007945f96612c77565b634fcf118160e11b5f5260045ffd5b50600d811115612fcb565b506006811115612f58565b845f525f5160206154405f395f51905f52602052865f2054600181018091116127c65780613088915061ffff60608d01511690614d06565b612c2b565b6282b42960e81b5f5260045ffd5b5f612b62565b5f612b42565b6331c9038360e01b5f5260045ffd5b90506130d291925060403d604011612844576128348183613408565b91908a612afe565b63203de7bb60e21b5f5260045ffd5b346119e25760403660031901126119e25761313460c061310761343c565b61310f613429565b90613118613898565b50604051632866ef3160e21b8152938492839260048401613967565b038173__$bfd2951eaa3e5aabb9283af4830755d90c$__5af4801561284b575f9061316a575b60c0906109716040518092613529565b5060c03d60c01161319e575b6131808183613408565b81019060c0818303126119e25760c091613199916138ed565b61315a565b503d613176565b346119e2576131b336613452565b6131bc82613eef565b6001600160a01b03163303925061308d915050576131d981613f19565b600160201b600160a01b038260201b16600160a01b175f525f5160206154a05f395f51905f5260205263ffffffff60405f20613217828254166137ec565b815483191692169182179055808252600160208084019182525f6060850181815286831b600160201b600160a01b031663ffffffff95861617600160a01b1782525f5160206155405f395f51905f52835260409182902086518154955164ffffffffff199096169616959095179390921b64ff0000000016929092178355908301519391906005851015612e9d578154905160808581015160a087015160c08089015164ffffffffff90961660289a909a1b60ff60281b169990991760309490941b61ffff60301b169390931760409190911b67ffffffffffffffff60401b161791901b67ffffffffffffffff60801b1617941b6001600160c01b0319169390931783557fae0947f631aae9cc9c660079e614352bf9d18405079a646e69a6ea4129411ee092600160e0840151910155612e9860405192839283613803565b600435906001600160801b03821682036119e257565b61010081019081106001600160401b0382111761338857604052565b634e487b7160e01b5f52604160045260245ffd5b60c081019081106001600160401b0382111761338857604052565b604081019081106001600160401b0382111761338857604052565b608081019081106001600160401b0382111761338857604052565b60a081019081106001600160401b0382111761338857604052565b90601f801991011681019081106001600160401b0382111761338857604052565b6024359063ffffffff821682036119e257565b600435906001600160401b03821682036119e257565b906101206003198301126119e2576004356001600160801b03811681036119e257610100909260231901126119e25760405161348d8161336c565b60243563ffffffff811681036119e257815260443560ff811681036119e257602082015260643560058110156119e257604082015260843561ffff811681036119e257606082015260a4356001600160401b03811681036119e257608082015260c4356001600160401b03811681036119e25760a082015260e4356001600160401b03811681036119e25760c08201526101043560e082015290565b6001600160401b0360a0809263ffffffff815116855263ffffffff602082015116602086015263ffffffff604082015116604086015263ffffffff6060820151166060860152826080820151166080860152015116910152565b60609060031901126119e257600435906024356001600160401b03811681036119e2579060443590565b600435906001600160a01b03821682036119e257565b602435906001600160a01b03821682036119e257565b60c09060031901126119e25760043563ffffffff811681036119e257906024356001600160a01b03811681036119e257906044356001600160801b03811681036119e257906064356001600160401b03811681036119e257906084356001600160401b03811681036119e2579060a4356001600160401b03811681036119e25790565b6001600160401b0381116133885760051b60200190565b6001600160401b03811161338857601f01601f191660200190565b90600f821015612e9d5752565b60ff81511682526136b46020820151602084019061368e565b6040810151906006821015612e9d5760a09160408401526136dd6060820151606085019061368e565b6080818101516001600160401b0316908401528101516bffffffffffffffffffffffff1916910152565b805180835260209291819084018484015e5f828201840152601f01601f1916010190565b81601f820112156119e2578035906137428261365c565b926137506040519485613408565b82845260208085019360061b830101918183116119e257602001925b82841061377a575050505090565b6040848303126119e25760405190613791826133b7565b843561ffff811681036119e257825260208501359065ffffffffffff821682036119e2578260209283604095015281520193019261376c565b9160206137ea9294936001600160401b0360e08201961681520190613529565b565b63ffffffff1663ffffffff81146127c65760010190565b9092916001600160801b0361012083019416825263ffffffff815116602083015260ff602082015116604083015260408101516005811015612e9d576101009160e091606085015261ffff60608201511660808501526001600160401b0360808201511660a08501526001600160401b0360a08201511660c08501526001600160401b0360c082015116828501520151910152565b604051906138a58261339c565b5f60a0838281528260208201528260408201528260608201528260808201520152565b519063ffffffff821682036119e257565b51906001600160401b03821682036119e257565b91908260c09103126119e2576040516139058161339c565b60a0613962818395613916816138c8565b8552613924602082016138c8565b6020860152613935604082016138c8565b6040860152613946606082016138c8565b6060860152613957608082016138d9565b6080860152016138d9565b910152565b5f5160206154c05f395f51905f5281526001600160401b03909116602082015263ffffffff909116604082015260600190565b6139be60e0929594936001600160801b036101008401971683526020830190613529565b0152565b909493929190602082901b600160201b600160a01b031663ffffffff90911617600160a01b175f525f5160206155405f395f51905f5260205260405f209460405195613a0d8761336c565b805463ffffffff811688526020880160ff8260201c16815260ff8260281c166005811015612e9d5760019360ff93859260408d015261ffff8160301c1660608d01526001600160401b038160401c1660808d01526001600160401b038160801c1660a08d015260c01c60c08c0152015460e08a0152511603613ada57600160201b600160a01b038260201b16600160a01b1763ffffffff875116905f525f5160206154a05f395f51905f5260205263ffffffff60405f205460201c1611613ada57613ad79561450b565b90565b5050505050505f90565b60405190613af1826133d2565b5f6060838281528260208201528260408201520152565b919082039182116127c657565b519081151582036119e257565b51906001600160a01b03821682036119e257565b919060e0838203126119e257613b4c81846138ed565b9260c0810151906001600160401b0382116119e257019080601f830112156119e2578151613b798161365c565b92613b876040519485613408565b81845260208085019260051b8201019283116119e257602001905b828210613baf5750505090565b8151815260209182019101613ba2565b60609063ffffffff60089395946001600160401b0360808401975f5160206154c05f395f51905f5285521660208401521660408201520152565b5f5160206154c05f395f51905f5281526001600160401b0390911660208201525f60408201526008606082015260800190565b805160071015613c3d576101000190565b634e487b7160e01b5f52603260045260245ffd5b805160011015613c3d5760400190565b805160061015613c3d5760e00190565b805160051015613c3d5760c00190565b805160041015613c3d5760a00190565b805160031015613c3d5760800190565b8051821015613c3d5760209160051b010190565b90602080835192838152019201905f5b818110613cd25750505090565b8251845260209384019390920191600101613cc5565b6060906001600160401b03613ad794935f5160206154c05f395f51905f5283521660208201528160408201520190613cb5565b6139be60e0929594936001600160401b036101008401971683526020830190613529565b6001600160401b0390911681526001600160a01b0391821660208201529116604082015260600190565b909493929190602082901b600160201b600160a01b031663ffffffff90911617600160a11b175f525f5160206155405f395f51905f5260205260405f209460405195613db48761336c565b805463ffffffff811688526020880160ff8260201c16815260ff8260281c166005811015612e9d5760019360ff93859260408d015261ffff8160301c1660608d01526001600160401b038160401c1660808d01526001600160401b038160801c1660a08d015260c01c60c08c0152015460e08a0152511603613ada57600160201b600160a01b038260201b16600160a11b1763ffffffff875116905f525f5160206154a05f395f51905f5260205263ffffffff60405f205460201c1611613ada57613ad79561450b565b6001600160a01b03168015613edc575f5160206154205f395f51905f5280546001600160a01b0319811683179091556001600160a01b03167f8be0079c531659141344cd1fd0a4f28419497f9722a3daafe3b4186f6b6457e05f80a3565b631e4fbdf760e01b5f525f60045260245ffd5b90613f146001600160401b0392613f04613898565b5083811693849160401c16614af2565b909192565b65fffffffffffe6001600160401b03608083015116116141b85765fffffffffffe6001600160401b0360a083015116116141a95765fffffffffffe6001600160401b0360c0830151161161419a57604060e0820151910180516005811015612e9d57600403613f985750613f8957565b630229244160e01b5f5260045ffd5b80516005811015612e9d57613fbd5750613fae57565b63b059088b60e01b5f5260045ffd5b80516005811015612e9d57600203613fef57506001600160a01b031916613fe057565b6324d6550560e01b5f5260045ffd5b80516005811015612e9d5760030361404057506001600160a01b03198116614031576001600160a01b03163b1561402257565b635ec3640d60e11b5f5260045ffd5b6334e3e8c160e21b5f5260045ffd5b516005811015612e9d5760010361418b57805f1a65ffffffffffff8260c01c166001600160801b036001600160401b038460801c16931691600181145f146140c4575065fffffffffffe109182156140ba575b5081156140b1575b506140a257565b6330e0031360e21b5f5260045ffd5b9050155f61409b565b151591505f614093565b9092906002810361412157508215928315614111575b508215614108575b5081156140ff575b50156137ea57630aaa469f60e11b5f5260045ffd5b9050155f6140ea565b1591505f6140e2565b65fffffffffffe1092505f6140da565b60030361417c57821592831561416c575b508215614163575b508115614157575b50156137ea576368bfad0160e11b5f5260045ffd5b6001915014155f614142565b1591505f61413a565b65fffffffffffe1092505f614132565b636c5ca35760e01b5f5260045ffd5b6325226d5f60e11b5f5260045ffd5b630216e46d60e41b5f5260045ffd5b6305ec3cc560e31b5f5260045ffd5b63257d56e560e11b5f5260045ffd5b5f60806040516141d6816133ed565b8281528260208201526141e7613898565b604082015282606082015201526001600160801b036001600160401b0382169161421d836001600160401b038360401c16614af2565b9390926040519561422d876133ed565b865216602085015260408401526001600160a01b03908116606084015216608082015290565b91908260409103126119e257613ad7602061426d84613b15565b93016138c8565b92915f6142a892614283613ae4565b5061428c613898565b506040518094819263340100c160e01b83528860048401613bbf565b038173__$bfd2951eaa3e5aabb9283af4830755d90c$__5af4801561284b5761292f65ffffffffffff916142e2945f916143325750613c2c565b909193156143235765ffffffffffff61ffff9283613ad7968360405197614308896133d2565b16875216602086015216604084015216606082015292614676565b6307d67b9f60e01b5f5260045ffd5b61434691503d805f833e6106f48183613408565b90505f612929565b6040519061435d604083613408565b600482526368656c6f60e01b6020830152565b60ff60019116019060ff82116127c657565b60ff6007199116019060ff82116127c657565b60ff166008811015612e9d5790565b908160209103126119e257516001600160e01b0319811681036119e25790565b6001600160401b03935f60c49260c0956143dc613898565b508760018060a01b036060840151169251169360408101519089806080818060a08701511694511694015116936040519b8c9a8b99632ad678c160e21b8b5260048b01521660248901521660448701526064860152608485015260a48401525af190811561284b575f916144d2575b50602081019063ffffffff825116156144c35763ffffffff808251169251169063ffffffff60408201511663ffffffff606083015116906001600160401b0360a0816080860151169401511693604051956144a58761339c565b8652602086015260408501526060840152608083015260a082015290565b630aa9029760e01b5f5260045ffd5b905060c03d60c011614504575b6144e98183613408565b810160c0828203126119e2576144fe916138ed565b5f61444b565b503d6144df565b93909491926001600160401b036080860151168015159182614662575b5050614659576001600160401b0360a0850151168015159182614645575b505061463d576001600160401b0360c0840151168015159182614629575b5050614622576040820180516005811015612e9d576004036145895750505050600190565b80516005811015612e9d576145bb57506145a39150613eef565b6001600160a01b039485169416939093149392505050565b809150516005811015612e9d576002036145e5575060e001516001600160a01b0391821691161490565b91505080516005811015612e9d5760030361460957636e12839960e01b5f5260045ffd5b516005811015612e9d5760010361461e575f90565b5f90565b5050505f90565b6001600160401b0316141590505f80614564565b505050505f90565b6001600160401b0316141590505f80614546565b50505050505f90565b6001600160401b0316141590505f80614528565b61467e613898565b50614687613898565b506001600160401b036040519163dbe7760960e01b83525f5160206154c05f395f51905f5260048401521660248201525f60448201526002606482015260208160848173__$bfd2951eaa3e5aabb9283af4830755d90c$__5af4801561284b576146f5575b50613ad7613898565b6020813d60201161471c575b8161470e60209383613408565b810103126119e257516146ec565b3d9150614701565b60809190911b67ffffffffffffffff60801b166001600160801b039091161765ffffffffffff60c01b1790565b60c09290921b65ffffffffffff60c01b1660809190911b67ffffffffffffffff60801b16176001600160801b03919091161790565b5f5160206154205f395f51905f52546001600160a01b031633036147a657565b63118cdaa760e01b5f523360045260245ffd5b6147c1613898565b815115614ae3576010825111614ad45760015b8251811015614833575f1981018181116127c65760206147fb65ffffffffffff9286613ca1565b5101511665ffffffffffff60206148128487613ca1565b510151161115614824576001016147d4565b630a6fd7a560e11b5f5260045ffd5b5091906040830191600183525f5b82518110156148c8576148548184613ca1565b51602081015165ffffffffffff168061488057509061ffff600192836080890152511686525b01614841565b65ffffffffffff036148a5579061ffff6001928360608901525116602087015261487a565b5060a085019060ff8251169160ff83146127c65760ff600180940116905261487a565b50919290926148d684614dbb565b93845f527f8f9f6b9dd32d65efadc33d5cec42974db93f3ef45f03c2694c960af8740c1c0160205260ff60405f205460201c16614acf57845f527f8f9f6b9dd32d65efadc33d5cec42974db93f3ef45f03c2694c960af8740c1c0160205260405f2061ffff808551161661ffff19825416178155602084019261497361ffff855116839063ffff000082549160101b169063ffff00001916179055565b51815460608601805165ffff000000001990921692151560201b64ff00000000169290921790151560281b60ff60281b1617825593608081015115159066ff00000000000067ff0000000000000060a0855493015160381b169260301b169061ffff60301b1916171790555f5b8151811015614ac957806149f660019284613ca1565b51602081019065ffffffffffff8251168015159081614ab8575b50614a1e575b5050016149e0565b5f8981527f8f9f6b9dd32d65efadc33d5cec42974db93f3ef45f03c2694c960af8740c1c0060209081526040808320945165ffffffffffff16835293905291909120805491518751875163ffff000060109190911b1665ff00ffff00001964ff0000ffff1990951661ffff90931692909217640100000000179390931692151560281b60ff60281b16929092179190911790555f80614a16565b65ffffffffffff915014155f614a10565b50505050565b505050565b6352609cb360e01b5f5260045ffd5b63206df1c560e11b5f5260045ffd5b9091614afc613898565b505f5160206154805f395f51905f5254604051631246702760e31b81526001600160401b03939093166004840152602090839060249082906001600160a01b03165afa91821561284b575f92614c35575b506040516346fe341560e01b81526001600160401b0393909316600484018190525f6024850152926001600160a01b0383169060c081604481855afa801561284b575f90614bfa575b6020915094602460405180948193634d1f8c3160e01b835260048301525afa90811561284b575f91614bc6575090565b90506020813d602011614bf2575b81614be160209383613408565b810103126119e257613ad790613b22565b3d9150614bd4565b5060c03d60c011614c2e575b614c108183613408565b81019060c0818303126119e257602091614c29916138ed565b614b96565b503d614c06565b9091506020813d602011614c69575b81614c5160209383613408565b810103126119e257614c6290613b22565b905f614b4d565b3d9150614c44565b5f614c9e614cac829360405192839163104c13eb60e21b6020840152602060248401526044830190613707565b03601f198101835282613408565b6020815191016a636f6e736f6c652e6c6f675afa50565b614cf2614cac5f93928493604051938492632d839cb360e21b6020850152604060248501526064840190613707565b90604483015203601f198101835282613408565b90617fff1610614d1257565b630aeeed0f60e01b5f5265ffffffffffff60045260245ffd5b9091617fff1610614d395750565b65ffffffffffff90630aeeed0f60e01b5f521660045260245ffd5b939290926008811015612e9d5760018103614d70575050505090565b929350909160028103614d835750505090565b9192509060038103614d9457505090565b90915060048103614da3575090565b60058103614db15750505f90565b60060361302b5790565b805115614e4b57614dcb81614e50565b90614dd581614fbc565b90614de26108c58261507f565b90831580614e43575b80614e3b575b80614e33575b15614e0457505050505f90565b604051926020840194855260408401526060830152608082015260808152614e2d60a082613408565b51902090565b508115614df7565b508015614df1565b508215614deb565b505f90565b805115614fa157614e615f82613ca1565b51905b5f81516001105f14614f8557505f80614e7e600184613ca1565b51915b614f5457825160021015614f6857505f9182614e9e600283613ca1565b51935b614f545750805160031015614f38576003614ebb91613ca1565b51925b65ffffffffffff602061ffff60301b835160301b16920151161760c01b9065ffffffffffff602061ffff60301b835160301b16920151161760801b179065ffffffffffff602061ffff60301b835160301b16920151161760401b179065ffffffffffff602061ffff60301b835160301b1692015116171790565b50604051614f45816133b7565b5f81525f602082015292614ebe565b634e487b7160e01b81526011600452602490fd5b9182604051614f76816133b7565b5f81525f602082015293614ea1565b80604051614f92816133b7565b5f81525f602082015291614e81565b604051614fad816133b7565b5f81525f602082015290614e64565b80516004101561506457614fd1600482613ca1565b51905b5f81516005105f1461504857505f80614fee600584613ca1565b51915b614f545782516006101561502b57505f918261500e600683613ca1565b51935b614f545750805160071015614f38576007614ebb91613ca1565b9182604051615039816133b7565b5f81525f602082015293615011565b80604051615055816133b7565b5f81525f602082015291614ff1565b604051615070816133b7565b5f81525f602082015290614fd4565b80516008101561512757615094600882613ca1565b51905b5f81516009105f1461510b57505f806150b1600984613ca1565b51915b614f54578251600a10156150ee57505f91826150d1600a83613ca1565b51935b614f5457508051600b1015614f3857600b614ebb91613ca1565b91826040516150fc816133b7565b5f81525f6020820152936150d4565b80604051615118816133b7565b5f81525f6020820152916150b4565b604051615133816133b7565b5f81525f602082015290615097565b8051600c10156151ea57615157600c82613ca1565b51905b5f8151600d105f146151ce57505f80615174600d84613ca1565b51915b614f54578251600e10156151b157505f9182615194600e83613ca1565b51935b614f5457508051600f1015614f3857600f614ebb91613ca1565b91826040516151bf816133b7565b5f81525f602082015293615197565b806040516151db816133b7565b5f81525f602082015291615177565b6040516151f6816133b7565b5f81525f60208201529061515a565b60ff5f5160206154e05f395f51905f525460401c161561522157565b631afcd79f60e31b5f5260045ffd5b90815f527f8f9f6b9dd32d65efadc33d5cec42974db93f3ef45f03c2694c960af8740c1c0060205260405f2065ffffffffffff82165f5260205260405f206040519061527b826133d2565b5490606061ffff83169283835261ffff8160101c169283602082015260ff808360201c1615159283604084015260281c161515928391015261539c57505050505f527f8f9f6b9dd32d65efadc33d5cec42974db93f3ef45f03c2694c960af8740c1c0160205260405f20604051906152f28261339c565b5461ffff81169182815261ffff8260101c169182602083015260ff8160201c16158015604084015260ff8260281c1615159283606082015260a060ff808560301c1615948515608085015260381c1691015261538c5761536b57156153645765ffffffffffff905b6001935f93929190565b5f9061535a565b90929150156153865765ffffffffffff5b5f925f925f929190565b5f61537c565b505050505f905f905f905f905f90565b92949193509091156153ba5765ffffffffffff915b60019493929190565b5f916153b1565b906153e557508051156153d657805190602001fd5b63d6bda27560e01b5f5260045ffd5b81511580615416575b6153f6575090565b639996b31560e01b5f9081526001600160a01b0391909116600452602490fd5b50803b156153ee56fe9016d09d72d40fdae2fd8ceac6b6234c7706214fd39c1cd1e609a0528c1993003df9584b527247f4900a5c6b7a8400cffee00eb89e1f2f5ad0861af4fb4c0501360894a13ba1a3210667c828492db98dca3e2076cc3735a920a3ca505d382bbc389a4784c2c3e8284bc1418c5b9cf4b556f52088a652459a6e23aae4f790270066533e6d1966c5548931afa2a923bcafa00e1e6794f41ca0f03bbc3ab865ab00b889e63ac5a7d4985910c5a264fb181e381a8a3f46d10618004be5e9438ffc01f0c57e16840df040f15088dc2f81fe391c3923bec73e23a9662efc9c229c6a00389a4784c2c3e8284bc1418c5b9cf4b556f52088a652459a6e23aae4f79027023df9584b527247f4900a5c6b7a8400cffee00eb89e1f2f5ad0861af4fb4c050066533e6d1966c5548931afa2a923bcafa00e1e6794f41ca0f03bbc3ab865ab01b889e63ac5a7d4985910c5a264fb181e381a8a3f46d10618004be5e9438ffc00a264697066735822122034385227af2a6b241a5d65515c9f5e46560164b0efddf2376c4fee9dc8dbf19164736f6c634300081c0033","linkReferences":{"contracts/libraries/Snapshots.sol":{"Snapshots":[{"start":1683,"length":20},{"start":1924,"length":20},{"start":2179,"length":20},{"start":2737,"length":20},{"start":3576,"length":20},{"start":4500,"length":20},{"start":4914,"length":20},{"start":5621,"length":20},{"start":6000,"length":20},{"start":6831,"length":20},{"start":7212,"length":20},{"start":10524,"length":20},{"start":12646,"length":20},{"start":17114,"length":20},{"start":18170,"length":20}]}}},"methodIdentifiers":{"UPGRADE_INTERFACE_VERSION()":"ad3cb1cc","allowFrom(uint32,address,uint128,uint64,uint64,uint64)":"2629dae8","allowTo(uint32,address,uint128,uint64,uint64,uint64)":"edd716f0","elementRegistry()":"b19c3791","grantFrom(uint128,(uint32,uint8,uint8,uint16,uint64,uint64,uint64,bytes32))":"05be88ac","grantTo(uint128,(uint32,uint8,uint8,uint16,uint64,uint64,uint64,bytes32))":"3440994b","initialize(address,address,address,address)":"f8c8765e","kindRegistry()":"527f3e1f","omniRegistry()":"2c636a11","owner()":"8da5cb5b","proxiableUUID()":"52d1902d","relate(uint256,uint64,uint256)":"15ae7173","relationAdmit(uint64,uint32,uint64)":"2392f87d","relationDescriptor(uint64,uint32)":"06a883a0","relationOwner(uint64)":"bff9b974","relationRegister(address,bytes32,(uint8,uint8,uint8,uint8,uint64,bytes20),(uint16,uint48)[])":"b9f17a47","relationRevision(uint64,uint32)":"df89b3fc","relationRule(uint64)":"9e490e90","relationSnapshot(uint64,uint32)":"eab25c41","relationSota(uint64)":"52393e1a","relationStatus(uint64[])":"3dae8c28","relationTouch(uint64)":"418239fb","relationTransfer(uint64,address)":"a926f041","relationUpdate(uint64,bytes32)":"5634ad14","relationUpdate(uint64,bytes32,(uint16,uint48)[])":"c9e2a1fb","relationUpgrade(uint64,uint32,uint32)":"954fc712","renounceOwnership()":"715018a6","revokeFrom(uint128,uint32)":"ebeecfa3","revokeTo(uint128,uint32)":"876993ca","semver()":"cda493c8","setRegistry()":"ac8b956b","transferOwnership(address)":"f2fde38b","unrelate(uint256,uint64,uint256)":"2aead726","upgradeToAndCall(address,bytes)":"4f1ef286"},"id":3}