{"abi":[{"type":"function","name":"UPGRADE_INTERFACE_VERSION","inputs":[],"outputs":[{"name":"","type":"string","internalType":"string"}],"stateMutability":"view"},{"type":"function","name":"elementRegistry","inputs":[],"outputs":[{"name":"","type":"address","internalType":"address"}],"stateMutability":"view"},{"type":"function","name":"initialize","inputs":[{"name":"owner","type":"address","internalType":"address"},{"name":"omnir","type":"address","internalType":"address"},{"name":"kindr","type":"address","internalType":"address"},{"name":"elemr","type":"address","internalType":"address"}],"outputs":[],"stateMutability":"nonpayable"},{"type":"function","name":"kindRegistry","inputs":[],"outputs":[{"name":"","type":"address","internalType":"address"}],"stateMutability":"view"},{"type":"function","name":"omniRegistry","inputs":[],"outputs":[{"name":"","type":"address","internalType":"address"}],"stateMutability":"view"},{"type":"function","name":"owner","inputs":[],"outputs":[{"name":"","type":"address","internalType":"address"}],"stateMutability":"view"},{"type":"function","name":"proxiableUUID","inputs":[],"outputs":[{"name":"","type":"bytes32","internalType":"bytes32"}],"stateMutability":"view"},{"type":"function","name":"renounceOwnership","inputs":[],"outputs":[],"stateMutability":"nonpayable"},{"type":"function","name":"semver","inputs":[],"outputs":[{"name":"version","type":"uint32","internalType":"uint32"}],"stateMutability":"pure"},{"type":"function","name":"setContract","inputs":[{"name":"id","type":"uint64","internalType":"uint64"}],"outputs":[{"name":"code","type":"address","internalType":"address"}],"stateMutability":"view"},{"type":"function","name":"setDescriptor","inputs":[{"name":"id","type":"uint64","internalType":"uint64"},{"name":"rev0","type":"uint32","internalType":"uint32"}],"outputs":[{"name":"desc","type":"tuple","internalType":"struct Descriptor","components":[{"name":"traits","type":"uint32","internalType":"uint32"},{"name":"rev","type":"uint32","internalType":"uint32"},{"name":"kindRev","type":"uint32","internalType":"uint32"},{"name":"setRev","type":"uint32","internalType":"uint32"},{"name":"kindId","type":"uint64","internalType":"uint64"},{"name":"setId","type":"uint64","internalType":"uint64"}]}],"stateMutability":"view"},{"type":"function","name":"setOwner","inputs":[{"name":"id","type":"uint64","internalType":"uint64"}],"outputs":[{"name":"owner","type":"address","internalType":"address"}],"stateMutability":"view"},{"type":"function","name":"setRegister","inputs":[{"name":"data","type":"bytes32","internalType":"bytes32"}],"outputs":[{"name":"id","type":"uint64","internalType":"uint64"},{"name":"desc","type":"tuple","internalType":"struct Descriptor","components":[{"name":"traits","type":"uint32","internalType":"uint32"},{"name":"rev","type":"uint32","internalType":"uint32"},{"name":"kindRev","type":"uint32","internalType":"uint32"},{"name":"setRev","type":"uint32","internalType":"uint32"},{"name":"kindId","type":"uint64","internalType":"uint64"},{"name":"setId","type":"uint64","internalType":"uint64"}]}],"stateMutability":"nonpayable"},{"type":"function","name":"setRegistry","inputs":[],"outputs":[{"name":"","type":"address","internalType":"address"}],"stateMutability":"view"},{"type":"function","name":"setRevision","inputs":[{"name":"id","type":"uint64","internalType":"uint64"},{"name":"rev0","type":"uint32","internalType":"uint32"}],"outputs":[{"name":"rev","type":"uint32","internalType":"uint32"}],"stateMutability":"view"},{"type":"function","name":"setSnapshot","inputs":[{"name":"id","type":"uint64","internalType":"uint64"},{"name":"rev","type":"uint32","internalType":"uint32"}],"outputs":[{"name":"desc","type":"tuple","internalType":"struct Descriptor","components":[{"name":"traits","type":"uint32","internalType":"uint32"},{"name":"rev","type":"uint32","internalType":"uint32"},{"name":"kindRev","type":"uint32","internalType":"uint32"},{"name":"setRev","type":"uint32","internalType":"uint32"},{"name":"kindId","type":"uint64","internalType":"uint64"},{"name":"setId","type":"uint64","internalType":"uint64"}]},{"name":"elems","type":"bytes32[]","internalType":"bytes32[]"}],"stateMutability":"view"},{"type":"function","name":"setSota","inputs":[{"name":"id","type":"uint64","internalType":"uint64"}],"outputs":[{"name":"desc","type":"tuple","internalType":"struct Descriptor","components":[{"name":"traits","type":"uint32","internalType":"uint32"},{"name":"rev","type":"uint32","internalType":"uint32"},{"name":"kindRev","type":"uint32","internalType":"uint32"},{"name":"setRev","type":"uint32","internalType":"uint32"},{"name":"kindId","type":"uint64","internalType":"uint64"},{"name":"setId","type":"uint64","internalType":"uint64"}]},{"name":"owner","type":"address","internalType":"address"}],"stateMutability":"view"},{"type":"function","name":"setStatus","inputs":[{"name":"ids","type":"uint64[]","internalType":"uint64[]"}],"outputs":[{"name":"active","type":"bool","internalType":"bool"}],"stateMutability":"view"},{"type":"function","name":"setTouch","inputs":[],"outputs":[{"name":"id","type":"uint64","internalType":"uint64"},{"name":"desc","type":"tuple","internalType":"struct Descriptor","components":[{"name":"traits","type":"uint32","internalType":"uint32"},{"name":"rev","type":"uint32","internalType":"uint32"},{"name":"kindRev","type":"uint32","internalType":"uint32"},{"name":"setRev","type":"uint32","internalType":"uint32"},{"name":"kindId","type":"uint64","internalType":"uint64"},{"name":"setId","type":"uint64","internalType":"uint64"}]}],"stateMutability":"nonpayable"},{"type":"function","name":"setUpdate","inputs":[{"name":"data","type":"bytes32","internalType":"bytes32"}],"outputs":[{"name":"id","type":"uint64","internalType":"uint64"},{"name":"desc","type":"tuple","internalType":"struct Descriptor","components":[{"name":"traits","type":"uint32","internalType":"uint32"},{"name":"rev","type":"uint32","internalType":"uint32"},{"name":"kindRev","type":"uint32","internalType":"uint32"},{"name":"setRev","type":"uint32","internalType":"uint32"},{"name":"kindId","type":"uint64","internalType":"uint64"},{"name":"setId","type":"uint64","internalType":"uint64"}]}],"stateMutability":"nonpayable"},{"type":"function","name":"setUpgrade","inputs":[{"name":"kindRev","type":"uint32","internalType":"uint32"},{"name":"setRev","type":"uint32","internalType":"uint32"}],"outputs":[{"name":"id","type":"uint64","internalType":"uint64"},{"name":"desc","type":"tuple","internalType":"struct Descriptor","components":[{"name":"traits","type":"uint32","internalType":"uint32"},{"name":"rev","type":"uint32","internalType":"uint32"},{"name":"kindRev","type":"uint32","internalType":"uint32"},{"name":"setRev","type":"uint32","internalType":"uint32"},{"name":"kindId","type":"uint64","internalType":"uint64"},{"name":"setId","type":"uint64","internalType":"uint64"}]}],"stateMutability":"nonpayable"},{"type":"function","name":"transferOwnership","inputs":[{"name":"newOwner","type":"address","internalType":"address"}],"outputs":[],"stateMutability":"nonpayable"},{"type":"function","name":"upgradeToAndCall","inputs":[{"name":"newImplementation","type":"address","internalType":"address"},{"name":"data","type":"bytes","internalType":"bytes"}],"outputs":[],"stateMutability":"payable"},{"type":"event","name":"Initialized","inputs":[{"name":"version","type":"uint64","indexed":false,"internalType":"uint64"}],"anonymous":false},{"type":"event","name":"OwnershipTransferred","inputs":[{"name":"previousOwner","type":"address","indexed":true,"internalType":"address"},{"name":"newOwner","type":"address","indexed":true,"internalType":"address"}],"anonymous":false},{"type":"event","name":"SetRegistered","inputs":[{"name":"id","type":"uint64","indexed":false,"internalType":"uint64"},{"name":"desc","type":"tuple","indexed":false,"internalType":"struct Descriptor","components":[{"name":"traits","type":"uint32","internalType":"uint32"},{"name":"rev","type":"uint32","internalType":"uint32"},{"name":"kindRev","type":"uint32","internalType":"uint32"},{"name":"setRev","type":"uint32","internalType":"uint32"},{"name":"kindId","type":"uint64","internalType":"uint64"},{"name":"setId","type":"uint64","internalType":"uint64"}]},{"name":"code","type":"address","indexed":false,"internalType":"address"},{"name":"data","type":"bytes32","indexed":false,"internalType":"bytes32"},{"name":"owner","type":"address","indexed":false,"internalType":"address"}],"anonymous":false},{"type":"event","name":"SetTouched","inputs":[{"name":"id","type":"uint64","indexed":false,"internalType":"uint64"},{"name":"desc","type":"tuple","indexed":false,"internalType":"struct Descriptor","components":[{"name":"traits","type":"uint32","internalType":"uint32"},{"name":"rev","type":"uint32","internalType":"uint32"},{"name":"kindRev","type":"uint32","internalType":"uint32"},{"name":"setRev","type":"uint32","internalType":"uint32"},{"name":"kindId","type":"uint64","internalType":"uint64"},{"name":"setId","type":"uint64","internalType":"uint64"}]}],"anonymous":false},{"type":"event","name":"SetUpdated","inputs":[{"name":"id","type":"uint64","indexed":false,"internalType":"uint64"},{"name":"desc","type":"tuple","indexed":false,"internalType":"struct Descriptor","components":[{"name":"traits","type":"uint32","internalType":"uint32"},{"name":"rev","type":"uint32","internalType":"uint32"},{"name":"kindRev","type":"uint32","internalType":"uint32"},{"name":"setRev","type":"uint32","internalType":"uint32"},{"name":"kindId","type":"uint64","internalType":"uint64"},{"name":"setId","type":"uint64","internalType":"uint64"}]},{"name":"data","type":"bytes32","indexed":false,"internalType":"bytes32"}],"anonymous":false},{"type":"event","name":"SetUpgraded","inputs":[{"name":"id","type":"uint64","indexed":false,"internalType":"uint64"},{"name":"desc","type":"tuple","indexed":false,"internalType":"struct Descriptor","components":[{"name":"traits","type":"uint32","internalType":"uint32"},{"name":"rev","type":"uint32","internalType":"uint32"},{"name":"kindRev","type":"uint32","internalType":"uint32"},{"name":"setRev","type":"uint32","internalType":"uint32"},{"name":"kindId","type":"uint64","internalType":"uint64"},{"name":"setId","type":"uint64","internalType":"uint64"}]}],"anonymous":false},{"type":"event","name":"Upgraded","inputs":[{"name":"implementation","type":"address","indexed":true,"internalType":"address"}],"anonymous":false},{"type":"error","name":"AddressEmptyCode","inputs":[{"name":"target","type":"address","internalType":"address"}]},{"type":"error","name":"ERC1967InvalidImplementation","inputs":[{"name":"implementation","type":"address","internalType":"address"}]},{"type":"error","name":"ERC1967NonPayable","inputs":[]},{"type":"error","name":"FailedCall","inputs":[]},{"type":"error","name":"InvalidCode","inputs":[]},{"type":"error","name":"InvalidData","inputs":[]},{"type":"error","name":"InvalidInitial","inputs":[]},{"type":"error","name":"InvalidInitialization","inputs":[]},{"type":"error","name":"NoRevisionSpecified","inputs":[]},{"type":"error","name":"NotInitializing","inputs":[]},{"type":"error","name":"OnSetRegisterRejected","inputs":[]},{"type":"error","name":"OnSetRegisterReverted","inputs":[]},{"type":"error","name":"OnSetTouchRejected","inputs":[]},{"type":"error","name":"OnSetTouchReverted","inputs":[]},{"type":"error","name":"OnSetUpdateRejected","inputs":[]},{"type":"error","name":"OnSetUpdateReverted","inputs":[]},{"type":"error","name":"OnSetUpgradeRejected","inputs":[]},{"type":"error","name":"OnSetUpgradeReverted","inputs":[]},{"type":"error","name":"Overflow","inputs":[]},{"type":"error","name":"OwnableInvalidOwner","inputs":[{"name":"owner","type":"address","internalType":"address"}]},{"type":"error","name":"OwnableUnauthorizedAccount","inputs":[{"name":"account","type":"address","internalType":"address"}]},{"type":"error","name":"SetContractAlreadyRegistered","inputs":[]},{"type":"error","name":"SetContractNoCode","inputs":[]},{"type":"error","name":"SetContractNotIInteroperable","inputs":[]},{"type":"error","name":"SetContractNotISet","inputs":[]},{"type":"error","name":"SetContractNotRegistered","inputs":[]},{"type":"error","name":"UUPSUnauthorizedCallContext","inputs":[]},{"type":"error","name":"UUPSUnsupportedProxiableUUID","inputs":[{"name":"slot","type":"bytes32","internalType":"bytes32"}]},{"type":"error","name":"UnauthorizedAccess","inputs":[{"name":"id","type":"uint64","internalType":"uint64"},{"name":"vistor","type":"address","internalType":"address"}]}],"bytecode":{"object":"0x60a0806040523460295730608052612666908161002e823960805181818161161001526117130152f35b5f80fdfe60806040526004361015610011575f80fd5b5f5f3560e01c8062cc3a8614611ef357806316f469b414611cc85780632aa81fde14611ad35780632c636a1114611a8c57806335b2419e1461197d578063386956c7146118ca5780634f1ef28614611698578063527f3e1f1461166457806352d1902d146115fe578063715018a6146115975780638b587840146110ab5780638da5cb5b146110765780639233813814610faa578063ac8b956b14610f62578063ad3cb1cc14610f06578063b19c379114610ebe578063bb9c740414610dc7578063cda493c814610daa578063cfbc0b2a14610c45578063d9a0bd3214610b65578063f2fde38b14610b3d578063f8c8765e146101e65763fd644f0314610116575f80fd5b346101d15760403660031901126101d15761016160c0610134612102565b61013c6120ef565b906101456121b0565b50604051632866ef3160e21b81529384928392600484016123c4565b038173__$bfd2951eaa3e5aabb9283af4830755d90c$__5af49081156101db57829161019a575b60c0826101986040518092612073565bf35b905060c03d60c0116101d4575b6101b1818361215d565b81019160c0828403126101d1575060c0916101cb9161223d565b5f610188565b80fd5b503d6101a7565b6040513d84823e3d90fd5b50346101d15760803660031901126101d157610200612118565b6024356001600160a01b03811690819003610a59576044356001600160a01b03811690819003610a55576064356001600160a01b0381169190829003610a7d575f5160206125d15f395f51905f5254936001600160401b0360ff8660401c1615951680159081610b35575b6001149081610b2b575b159081610b22575b50610b1357906102ce86928660016001600160401b03195f5160206125d15f395f51905f525416175f5160206125d15f395f51905f5255610ade575b6102c16124c7565b6102c96124c7565b612423565b6102d66124c7565b6102de6124c7565b306001600160601b0360a01b7f389a4784c2c3e8284bc1418c5b9cf4b556f52088a652459a6e23aae4f79027005416177f389a4784c2c3e8284bc1418c5b9cf4b556f52088a652459a6e23aae4f790270055836001600160601b0360a01b7f389a4784c2c3e8284bc1418c5b9cf4b556f52088a652459a6e23aae4f79027015416177f389a4784c2c3e8284bc1418c5b9cf4b556f52088a652459a6e23aae4f790270155806001600160601b0360a01b5f5160206126115f395f51905f525416175f5160206126115f395f51905f5255826001600160601b0360a01b7f389a4784c2c3e8284bc1418c5b9cf4b556f52088a652459a6e23aae4f79027035416177f389a4784c2c3e8284bc1418c5b9cf4b556f52088a652459a6e23aae4f7902703556104086121b0565b506104116121b0565b50604051606094610422868361215d565b60028252601f19860192833660208501373061043d84612384565b52636461746160e01b61044f84612360565b5260405161045c8161212e565b858152600160208201526001604082015260018882015260016080820152600160a082015273__$bfd2951eaa3e5aabb9283af4830755d90c$__93843b15610ac557866104ef9160405180938192634881a43960e01b83525f5160206125f15f395f51905f526004840152600160248401526104db6044840188612073565b610140610104840152610144830190612391565b336101248301520381885af4908115610aba578791610ac9575b50506101405f5160206125715f395f51905f529161053260405191600183526020830190612073565b3060e0820152636461746160e01b61010082015233610120820152a16105566121b0565b5061055f6121b0565b506040519061056e888361215d565b60028252843660208401378061058383612384565b52636461746160e01b61059583612360565b52604051916105a38361212e565b868352600160208401526001604084015260018984015260016080840152600160a0840152843b15610ac5578661060c9160405180938192634881a43960e01b83525f5160206125f15f395f51905f526004840152600260248401526104db6044840189612073565b336101248301520381885af4908115610aba578791610aa5575b50505f5160206125715f395f51905f52916101409161065060405192600284526020840190612073565b60e0820152636461746160e01b61010082015233610120820152a16106736121b0565b5061067c6121b0565b506040519061068b878361215d565b6002825283366020840137806106a083612384565b52636461746160e01b6106b283612360565b52604051916106c08361212e565b858352600160208401526001604084015260018884015260016080840152600160a0840152833b15610aa157856107299160405180938192634881a43960e01b83525f5160206125f15f395f51905f526004840152600360248401526104db6044840189612073565b336101248301520381875af4908115610a96578691610a81575b50505f5160206125715f395f51905f52916101409161076d60405192600384526020840190612073565b60e0820152636461746160e01b61010082015233610120820152a16107906121b0565b506107996121b0565b506040516107a7868261215d565b6002815282366020830137846107bc82612384565b52636461746160e01b6107ce82612360565b52604051906107dc8261212e565b848252600160208301526001604083015260018783015260016080830152600160a0830152823b15610a7d57846108459160405180938192634881a43960e01b83525f5160206125f15f395f51905f526004840152600460248401526104db6044840188612073565b336101248301520381865af4908115610a72578591610a5d575b50506101405f5160206125715f395f51905f529161088860405191600483526020830190612073565b60e08101879052636461746160e01b61010082015233610120820152a16108ad6121b0565b506108b66121b0565b50604051916108c5868461215d565b60028352366020840137836108d983612384565b52636461746160e01b6108eb83612360565b526001604051956108fb8761212e565b84875281602088015281604088015286015260016080860152600160a0860152803b15610a59576109619183916040518080958194634881a43960e01b83525f5160206125f15f395f51905f526004840152600560248401526104db604484018c612073565b3361012483015203915af480156101db57610a40575b50505f5160206125715f395f51905f5291610140916109a160405192600584526020840190612073565b60e0820152636461746160e01b61010082015233610120820152a1601165ffffffffffff195f5160206125515f395f51905f525416175f5160206125515f395f51905f52556109ed5780f35b60ff60401b195f5160206125d15f395f51905f5254165f5160206125d15f395f51905f52557fc7f505b2f371ae2175ee4913f4499e1f2633a7b5936321eed1cdaeb6115181d2602060405160018152a180f35b81610a4a9161215d565b610a5557835f610977565b8380fd5b8280fd5b81610a679161215d565b610a5557835f61085f565b6040513d87823e3d90fd5b8480fd5b81610a8b9161215d565b610a7d57845f610743565b6040513d88823e3d90fd5b8580fd5b81610aaf9161215d565b610aa157855f610626565b6040513d89823e3d90fd5b8680fd5b81610ad39161215d565b610aa157855f610509565b6801000000000000000060ff60401b195f5160206125d15f395f51905f525416175f5160206125d15f395f51905f52556102b9565b63f92ee8a960e01b8652600486fd5b9050155f61027d565b303b159150610275565b86915061026b565b50346101d15760203660031901126101d157610b62610b5a612118565b6102c9612494565b80f35b50346101d15760203660031901126101d157610bc1906020610b85612102565b604051639101c02760e01b81525f5160206125f15f395f51905f5260048201526001600160401b03909116602482015292839081906044820190565b038173__$bfd2951eaa3e5aabb9283af4830755d90c$__5af4908115610c39578091610bfc575b6040516001600160a01b0383168152602090f35b90506020823d602011610c31575b81610c176020938361215d565b810103126101d15750610c2b6020916123f7565b5f610be8565b3d9150610c0a565b604051903d90823e3d90fd5b50346101d15760203660031901126101d1576004356001600160401b038111610da65736602382011215610da6578060040135610c8181612199565b91610c8f604051938461215d565b81835260208301906024829360051b82010190368211610aa157602401915b818310610d8657505060408051631cff580560e11b81525f5160206125f15f395f51905f5260048201526024810191909152925160448401819052839260648401925090855b818110610d64575050509080602092038173__$bfd2951eaa3e5aabb9283af4830755d90c$__5af49081156101db5760209291610d37575b506040519015158152f35b610d579150823d8411610d5d575b610d4f818361215d565b81019061240b565b5f610d2c565b503d610d45565b82516001600160401b0316845285945060209384019390920191600101610cf4565b82356001600160401b0381168103610ac557815260209283019201610cae565b5080fd5b50346101d157806003193601126101d15760206040516101008152f35b50346101d15760203660031901126101d157610e2a60e0610de6612102565b610dee6121b0565b5060405163154c1b43831b81525f5160206125f15f395f51905f5260048201526001600160401b03909116602482015291829081906044820190565b038173__$bfd2951eaa3e5aabb9283af4830755d90c$__5af480156101db5782918391610e73575b60e08383610e636040518093612073565b6001600160a01b031660c0820152f35b91505060e03d60e011610eb7575b610e8b818361215d565b81019160e0828403126101d15750610eb160c0610eaa60e0948461223d565b92016123f7565b5f610e52565b503d610e81565b50346101d157806003193601126101d1577f389a4784c2c3e8284bc1418c5b9cf4b556f52088a652459a6e23aae4f7902703546040516001600160a01b039091168152602090f35b50346101d157806003193601126101d15760408051610f25828261215d565b6005815260208101640352e302e360dc1b81528251938492602084525180928160208601528585015e828201840152601f01601f19168101030190f35b50346101d157806003193601126101d1577f389a4784c2c3e8284bc1418c5b9cf4b556f52088a652459a6e23aae4f7902700546040516001600160a01b039091168152602090f35b50346101d15760203660031901126101d157610fc4612102565b906001600160401b036040519263dbe7760960e01b84525f5160206125f15f395f51905f52600485015216602483015280604483015280606483015260208260848173__$bfd2951eaa3e5aabb9283af4830755d90c$__5af4908115610c39579061103f575b6040516001600160a01b039091168152602090f35b506020813d60201161106e575b816110596020938361215d565b8101031261106a576020905161102a565b5f80fd5b3d915061104c565b50346101d157806003193601126101d1575f5160206125915f395f51905f52546040516001600160a01b039091168152602090f35b503461106a57602036600319011261106a57600435906110c96121b0565b50811561158857333b15611579576040516301ffc9a760e01b8152637034068560e11b6004820152602081602481335afa5f9181611558575b5061111657631d5dc97560e01b5f5260045ffd5b15611549576040516301ffc9a760e01b81526308d788d360e01b6004820152602081602481335afa5f9181611528575b5061115a576349e39deb60e11b5f5260045ffd5b15611519576001600160401b03611170336121e0565b541661150a5765ffffffffffff5f5160206125515f395f51905f52541665fffffffffffe8110156114fb5765ffffffffffff81146114e75760449265ffffffffffff600183011665ffffffffffff195f5160206125515f395f51905f525416175f5160206125515f395f51905f52556111e8336121e0565b805467ffffffffffffffff1916831790555f5160206126115f395f51905f5254604051638399ebdd60e01b8152600160048201525f60248201529460209186919082906001600160a01b03165afa938415611464575f946114ab575b5060405163298a39dd60e11b81525f5160206125f15f395f51905f5260048201526001602482015273__$bfd2951eaa3e5aabb9283af4830755d90c$__602082604481845af4918215611464575f9261146f575b506112a16121b0565b5063ffffffff604051926112b660608561215d565b600284526040366020860137336112cc85612384565b52846112d785612360565b5281604051986112e68a61212e565b5f8a52600160208b015216604089015216606087015260016080870152600160a0870152803b1561106a5761134f915f916040518080958194634881a43960e01b83525f5160206125f15f395f51905f5260048401528960248401526104db604484018d612073565b3361012483015203915af480156114645761144f575b506040516358ab099960e11b8152602081806113858887600484016120cd565b038187335af184918161141e575b506113a75763b4e1311d60e01b8452600484fd5b9192916001600160e01b031916632754f66760e11b0161140f576040518381525f5160206125715f395f51905f529250610140916113e86020830187612073565b3360e083015261010082015233610120820152a161140b604051928392836120cd565b0390f35b63939719f960e01b8252600482fd5b61144191925060203d602011611448575b611439818361215d565b8101906122b7565b905f611393565b503d61142f565b61145c9193505f9061215d565b5f915f611365565b6040513d5f823e3d90fd5b9091506020813d6020116114a3575b8161148b6020938361215d565b8101031261106a5761149c90612218565b905f611298565b3d915061147e565b9093506020813d6020116114df575b816114c76020938361215d565b8101031261106a576114d890612218565b925f611244565b3d91506114ba565b634e487b7160e01b5f52601160045260245ffd5b631a93c68960e11b5f5260045ffd5b63b952ea8960e01b5f5260045ffd5b6349e39deb60e11b5f5260045ffd5b61154291925060203d602011610d5d57610d4f818361215d565b905f611146565b631d5dc97560e01b5f5260045ffd5b61157291925060203d602011610d5d57610d4f818361215d565b905f611102565b63b383ddd360e01b5f5260045ffd5b635cb045db60e01b5f5260045ffd5b3461106a575f36600319011261106a576115af612494565b5f5160206125915f395f51905f5280546001600160a01b031981169091555f906001600160a01b03167f8be0079c531659141344cd1fd0a4f28419497f9722a3daafe3b4186f6b6457e08280a3005b3461106a575f36600319011261106a577f00000000000000000000000000000000000000000000000000000000000000006001600160a01b031630036116555760206040515f5160206125b15f395f51905f528152f35b63703e46dd60e11b5f5260045ffd5b3461106a575f36600319011261106a575f5160206126115f395f51905f52546040516001600160a01b039091168152602090f35b604036600319011261106a576116ac612118565b602435906001600160401b03821161106a573660238301121561106a578160040135906116d88261217e565b916116e6604051938461215d565b8083526020830193366024838301011161106a57815f926024602093018737840101526001600160a01b037f0000000000000000000000000000000000000000000000000000000000000000163081149081156118a8575b506116555761174b612494565b6040516352d1902d60e01b81526001600160a01b0382169390602081600481885afa5f9181611874575b5061178d5784634c9c8ce360e01b5f5260045260245ffd5b805f5160206125b15f395f51905f528692036118625750823b15611850575f5160206125b15f395f51905f5280546001600160a01b031916821790557fbc7cd75a20ee27fd9adebab32041f755214dbc6bffa90cc0225b39da2e5c2d3b5f80a2825115611837575f809161182d945190845af43d1561182f573d916118118361217e565b9261181f604051948561215d565b83523d5f602085013e6124f2565b005b6060916124f2565b5050503461184157005b63b398979f60e01b5f5260045ffd5b634c9c8ce360e01b5f5260045260245ffd5b632a87526960e21b5f5260045260245ffd5b9091506020813d6020116118a0575b816118906020938361215d565b8101031261106a57519086611775565b3d9150611883565b5f5160206125b15f395f51905f52546001600160a01b0316141590508461173e565b3461106a57604036600319011261106a5761190c60206118e8612102565b6118f06120ef565b60405163310ace3360e11b8152938492839290600484016123c4565b038173__$bfd2951eaa3e5aabb9283af4830755d90c$__5af48015611464575f90611943575b60209063ffffffff60405191168152f35b506020813d602011611975575b8161195d6020938361215d565b8101031261106a57611970602091612218565b611932565b3d9150611950565b3461106a57604036600319011261106a57611996612102565b63ffffffff6119a36120ef565b6119ab6121b0565b506001600160401b036040519363340100c160e01b85525f5160206125f15f395f51905f526004860152166024840152166044820152600260648201525f8160848173__$bfd2951eaa3e5aabb9283af4830755d90c$__5af48015611464575f915f91611a68575b5090604051918291611a298360e0810192612073565b60e060c08401528151809152602061010084019201905f5b818110611a4f575050500390f35b8251845285945060209384019390920191600101611a41565b9050611a8691503d805f833e611a7e818361215d565b8101906122d7565b82611a13565b3461106a575f36600319011261106a577f389a4784c2c3e8284bc1418c5b9cf4b556f52088a652459a6e23aae4f7902701546040516001600160a01b039091168152602090f35b3461106a57604036600319011261106a5760043563ffffffff811680910361106a57611afd6120ef565b611b056121b0565b50811580611cba575b611cab576001600160401b03611b23336121e0565b5416908115611c9c5763ffffffff906040519363d995904360e01b85525f5160206125f15f395f51905f52600486015283602486015260448501521660648301526002608483015260c08260a48173__$bfd2951eaa3e5aabb9283af4830755d90c$__5af4918215611464575f92611c61575b506040516387ec174f60e01b815260208180611bb68686600484016120cd565b03815f335af15f9181611c40575b50611bd857631475dedb60e11b5f5260045ffd5b6001600160e01b031916637813e8b160e01b01611c31577fab03f002da1fd9276cfa0dc1c27d3f88b25e7521f652ec04b125c6bdd369889760405180611c1f8585836120cd565b0390a161140b604051928392836120cd565b63278961a160e01b5f5260045ffd5b611c5a91925060203d60201161144857611439818361215d565b9084611bc4565b90915060c03d60c011611c95575b611c79818361215d565b810160c08282031261106a57611c8e9161223d565b9082611b96565b503d611c6f565b6396b70a2160e01b5f5260045ffd5b6325d63fc960e01b5f5260045ffd5b5063ffffffff811615611b0e565b3461106a57602036600319011261106a57600435611ce46121b0565b508015611588576001600160401b03611cfc336121e0565b54168015611c9c5773__$bfd2951eaa3e5aabb9283af4830755d90c$__9160405163340100c160e01b81525f5160206125f15f395f51905f5260048201528260248201525f6044820152600260648201525f81608481875af4801561146457611db19460c0925f92611ed5575b5083611d7483612360565b5260405180809781946314447f4f60e11b83525f5160206125f15f395f51905f526004840152886024840152606060448401526064830190612391565b03915af4928315611464575f93611e9a575b50604051631b43871760e31b815260208180611de38787600484016120cd565b03815f335af15f9181611e79575b50611e05576331dc164b60e11b5f5260045ffd5b6001600160e01b0319166304bc78e960e31b01611e6a576101007f2193694925ddfa339499ba40e6fc16b93ab9b965a7efad21af85dc78d7aef9619160405190848252611e556020830187612073565b60e0820152a161140b604051928392836120cd565b634261c3f160e01b5f5260045ffd5b611e9391925060203d60201161144857611439818361215d565b9085611df1565b90925060c03d60c011611ece575b611eb2818361215d565b810160c08282031261106a57611ec79161223d565b9183611dc3565b503d611ea8565b611eea9192503d805f833e611a7e818361215d565b90509086611d69565b3461106a575f36600319011261106a57611f0b6121b0565b506001600160401b03611f1d336121e0565b54168015611c9c57604051637ce36e2360e11b81525f5160206125f15f395f51905f52600482015260248101829052600260448201529060c08260648173__$bfd2951eaa3e5aabb9283af4830755d90c$__5af4918215611464575f92612038575b50604051631881cd3d60e01b815260208180611f9f8686600484016120cd565b03815f335af15f9181612017575b50611fc1576304b08f5560e21b5f5260045ffd5b6001600160e01b03191663e77e32c360e01b01612008577f6b2bf436a57b924f423cc0ccd1cc0dd9bcd4862b76ef8127cedc60329acf68fa60405180611c1f8585836120cd565b63254dda9560e11b5f5260045ffd5b61203191925060203d60201161144857611439818361215d565b9084611fad565b90915060c03d60c01161206c575b612050818361215d565b810160c08282031261106a576120659161223d565b9082611f7f565b503d612046565b6001600160401b0360a0809263ffffffff815116855263ffffffff602082015116602086015263ffffffff604082015116604086015263ffffffff6060820151166060860152826080820151166080860152015116910152565b9160206120ed9294936001600160401b0360e08201961681520190612073565b565b6024359063ffffffff8216820361106a57565b600435906001600160401b038216820361106a57565b600435906001600160a01b038216820361106a57565b60c081019081106001600160401b0382111761214957604052565b634e487b7160e01b5f52604160045260245ffd5b90601f801991011681019081106001600160401b0382111761214957604052565b6001600160401b03811161214957601f01601f191660200190565b6001600160401b0381116121495760051b60200190565b604051906121bd8261212e565b5f60a0838281528260208201528260408201528260608201528260808201520152565b6001600160a01b03165f9081527fb8684b9e6721af0d1bdda1cb8f0f025a168f1333cb4134fd73b30bed068761036020526040902090565b519063ffffffff8216820361106a57565b51906001600160401b038216820361106a57565b91908260c091031261106a576040516122558161212e565b60a06122b281839561226681612218565b855261227460208201612218565b602086015261228560408201612218565b604086015261229660608201612218565b60608601526122a760808201612229565b608086015201612229565b910152565b9081602091031261106a57516001600160e01b03198116810361106a5790565b919060e08382031261106a576122ed818461223d565b9260c0810151906001600160401b03821161106a57019080601f8301121561106a57815161231a81612199565b92612328604051948561215d565b81845260208085019260051b82010192831161106a57602001905b8282106123505750505090565b8151815260209182019101612343565b8051600110156123705760400190565b634e487b7160e01b5f52603260045260245ffd5b8051156123705760200190565b90602080835192838152019201905f5b8181106123ae5750505090565b82518452602093840193909201916001016123a1565b5f5160206125f15f395f51905f5281526001600160401b03909116602082015263ffffffff909116604082015260600190565b51906001600160a01b038216820361106a57565b9081602091031261106a5751801515810361106a5790565b6001600160a01b03168015612481575f5160206125915f395f51905f5280546001600160a01b0319811683179091556001600160a01b03167f8be0079c531659141344cd1fd0a4f28419497f9722a3daafe3b4186f6b6457e05f80a3565b631e4fbdf760e01b5f525f60045260245ffd5b5f5160206125915f395f51905f52546001600160a01b031633036124b457565b63118cdaa760e01b5f523360045260245ffd5b60ff5f5160206125d15f395f51905f525460401c16156124e357565b631afcd79f60e31b5f5260045ffd5b90612516575080511561250757805190602001fd5b63d6bda27560e01b5f5260045ffd5b81511580612547575b612527575090565b639996b31560e01b5f9081526001600160a01b0391909116600452602490fd5b50803b1561251f56feb8684b9e6721af0d1bdda1cb8f0f025a168f1333cb4134fd73b30bed068761009f63205a174bfa07baf181f5959b4786f7b8d7e0f947464049294c5e419323eb9016d09d72d40fdae2fd8ceac6b6234c7706214fd39c1cd1e609a0528c199300360894a13ba1a3210667c828492db98dca3e2076cc3735a920a3ca505d382bbcf0c57e16840df040f15088dc2f81fe391c3923bec73e23a9662efc9c229c6a00b8684b9e6721af0d1bdda1cb8f0f025a168f1333cb4134fd73b30bed06876101389a4784c2c3e8284bc1418c5b9cf4b556f52088a652459a6e23aae4f7902702a26469706673582212201c429ced220020161e7e142b4a872de3f089628e0395c0eda69b24f2bb6525fa64736f6c634300081c0033","linkReferences":{"contracts/libraries/Snapshots.sol":{"Snapshots":[{"start":403,"length":20},{"start":1201,"length":20},{"start":3059,"length":20},{"start":3381,"length":20},{"start":3676,"length":20},{"start":4150,"length":20},{"start":4764,"length":20},{"start":6462,"length":20},{"start":6685,"length":20},{"start":7073,"length":20},{"start":7476,"length":20},{"start":8074,"length":20}]}}},"methodIdentifiers":{"UPGRADE_INTERFACE_VERSION()":"ad3cb1cc","elementRegistry()":"b19c3791","initialize(address,address,address,address)":"f8c8765e","kindRegistry()":"527f3e1f","omniRegistry()":"2c636a11","owner()":"8da5cb5b","proxiableUUID()":"52d1902d","renounceOwnership()":"715018a6","semver()":"cda493c8","setContract(uint64)":"92338138","setDescriptor(uint64,uint32)":"fd644f03","setOwner(uint64)":"d9a0bd32","setRegister(bytes32)":"8b587840","setRegistry()":"ac8b956b","setRevision(uint64,uint32)":"386956c7","setSnapshot(uint64,uint32)":"35b2419e","setSota(uint64)":"bb9c7404","setStatus(uint64[])":"cfbc0b2a","setTouch()":"00cc3a86","setUpdate(bytes32)":"16f469b4","setUpgrade(uint32,uint32)":"2aa81fde","transferOwnership(address)":"f2fde38b","upgradeToAndCall(address,bytes)":"4f1ef286"},"id":4}