{"abi":[{"type":"function","name":"UPGRADE_INTERFACE_VERSION","inputs":[],"outputs":[{"name":"","type":"string","internalType":"string"}],"stateMutability":"view"},{"type":"function","name":"elementRegistry","inputs":[],"outputs":[{"name":"","type":"address","internalType":"address"}],"stateMutability":"view"},{"type":"function","name":"initialize","inputs":[{"name":"owner","type":"address","internalType":"address"},{"name":"omnir","type":"address","internalType":"address"},{"name":"kindr","type":"address","internalType":"address"},{"name":"elemr","type":"address","internalType":"address"},{"name":"baseURI","type":"string","internalType":"string"}],"outputs":[],"stateMutability":"nonpayable"},{"type":"function","name":"kindRegistry","inputs":[],"outputs":[{"name":"","type":"address","internalType":"address"}],"stateMutability":"view"},{"type":"function","name":"omniRegistry","inputs":[],"outputs":[{"name":"","type":"address","internalType":"address"}],"stateMutability":"view"},{"type":"function","name":"owner","inputs":[],"outputs":[{"name":"","type":"address","internalType":"address"}],"stateMutability":"view"},{"type":"function","name":"proxiableUUID","inputs":[],"outputs":[{"name":"","type":"bytes32","internalType":"bytes32"}],"stateMutability":"view"},{"type":"function","name":"renounceOwnership","inputs":[],"outputs":[],"stateMutability":"nonpayable"},{"type":"function","name":"semver","inputs":[],"outputs":[{"name":"version","type":"uint32","internalType":"uint32"}],"stateMutability":"pure"},{"type":"function","name":"setContract","inputs":[{"name":"id","type":"uint64","internalType":"uint64"}],"outputs":[{"name":"code","type":"address","internalType":"address"}],"stateMutability":"view"},{"type":"function","name":"setDescriptor","inputs":[{"name":"id","type":"uint64","internalType":"uint64"},{"name":"rev0","type":"uint32","internalType":"uint32"}],"outputs":[{"name":"desc","type":"tuple","internalType":"struct Descriptor","components":[{"name":"traits","type":"uint32","internalType":"uint32"},{"name":"rev","type":"uint32","internalType":"uint32"},{"name":"kindRev","type":"uint32","internalType":"uint32"},{"name":"setRev","type":"uint32","internalType":"uint32"},{"name":"kindId","type":"uint64","internalType":"uint64"},{"name":"setId","type":"uint64","internalType":"uint64"}]}],"stateMutability":"view"},{"type":"function","name":"setOwner","inputs":[{"name":"id","type":"uint64","internalType":"uint64"}],"outputs":[{"name":"owner","type":"address","internalType":"address"}],"stateMutability":"view"},{"type":"function","name":"setRegister","inputs":[{"name":"data","type":"bytes32","internalType":"bytes32"}],"outputs":[{"name":"id","type":"uint64","internalType":"uint64"},{"name":"desc","type":"tuple","internalType":"struct Descriptor","components":[{"name":"traits","type":"uint32","internalType":"uint32"},{"name":"rev","type":"uint32","internalType":"uint32"},{"name":"kindRev","type":"uint32","internalType":"uint32"},{"name":"setRev","type":"uint32","internalType":"uint32"},{"name":"kindId","type":"uint64","internalType":"uint64"},{"name":"setId","type":"uint64","internalType":"uint64"}]}],"stateMutability":"nonpayable"},{"type":"function","name":"setRegistry","inputs":[],"outputs":[{"name":"","type":"address","internalType":"address"}],"stateMutability":"view"},{"type":"function","name":"setRevision","inputs":[{"name":"id","type":"uint64","internalType":"uint64"},{"name":"rev0","type":"uint32","internalType":"uint32"}],"outputs":[{"name":"rev","type":"uint32","internalType":"uint32"}],"stateMutability":"view"},{"type":"function","name":"setSnapshot","inputs":[{"name":"id","type":"uint64","internalType":"uint64"},{"name":"rev","type":"uint32","internalType":"uint32"}],"outputs":[{"name":"desc","type":"tuple","internalType":"struct Descriptor","components":[{"name":"traits","type":"uint32","internalType":"uint32"},{"name":"rev","type":"uint32","internalType":"uint32"},{"name":"kindRev","type":"uint32","internalType":"uint32"},{"name":"setRev","type":"uint32","internalType":"uint32"},{"name":"kindId","type":"uint64","internalType":"uint64"},{"name":"setId","type":"uint64","internalType":"uint64"}]},{"name":"elems","type":"bytes32[]","internalType":"bytes32[]"}],"stateMutability":"view"},{"type":"function","name":"setSota","inputs":[{"name":"id","type":"uint64","internalType":"uint64"}],"outputs":[{"name":"desc","type":"tuple","internalType":"struct Descriptor","components":[{"name":"traits","type":"uint32","internalType":"uint32"},{"name":"rev","type":"uint32","internalType":"uint32"},{"name":"kindRev","type":"uint32","internalType":"uint32"},{"name":"setRev","type":"uint32","internalType":"uint32"},{"name":"kindId","type":"uint64","internalType":"uint64"},{"name":"setId","type":"uint64","internalType":"uint64"}]},{"name":"owner","type":"address","internalType":"address"}],"stateMutability":"view"},{"type":"function","name":"setStatus","inputs":[{"name":"ids","type":"uint64[]","internalType":"uint64[]"}],"outputs":[{"name":"active","type":"bool","internalType":"bool"}],"stateMutability":"view"},{"type":"function","name":"setTouch","inputs":[],"outputs":[{"name":"id","type":"uint64","internalType":"uint64"},{"name":"desc","type":"tuple","internalType":"struct Descriptor","components":[{"name":"traits","type":"uint32","internalType":"uint32"},{"name":"rev","type":"uint32","internalType":"uint32"},{"name":"kindRev","type":"uint32","internalType":"uint32"},{"name":"setRev","type":"uint32","internalType":"uint32"},{"name":"kindId","type":"uint64","internalType":"uint64"},{"name":"setId","type":"uint64","internalType":"uint64"}]}],"stateMutability":"nonpayable"},{"type":"function","name":"setURI","inputs":[{"name":"id","type":"uint64","internalType":"uint64"},{"name":"objId","type":"uint64","internalType":"uint64"},{"name":"objRev","type":"uint32","internalType":"uint32"}],"outputs":[{"name":"uri","type":"string","internalType":"string"}],"stateMutability":"view"},{"type":"function","name":"setURI","inputs":[{"name":"id","type":"uint64","internalType":"uint64"}],"outputs":[{"name":"uri","type":"string","internalType":"string"}],"stateMutability":"view"},{"type":"function","name":"setUpdate","inputs":[{"name":"data","type":"bytes32","internalType":"bytes32"}],"outputs":[{"name":"id","type":"uint64","internalType":"uint64"},{"name":"desc","type":"tuple","internalType":"struct Descriptor","components":[{"name":"traits","type":"uint32","internalType":"uint32"},{"name":"rev","type":"uint32","internalType":"uint32"},{"name":"kindRev","type":"uint32","internalType":"uint32"},{"name":"setRev","type":"uint32","internalType":"uint32"},{"name":"kindId","type":"uint64","internalType":"uint64"},{"name":"setId","type":"uint64","internalType":"uint64"}]}],"stateMutability":"nonpayable"},{"type":"function","name":"setUpgrade","inputs":[{"name":"kindRev","type":"uint32","internalType":"uint32"},{"name":"setRev","type":"uint32","internalType":"uint32"}],"outputs":[{"name":"id","type":"uint64","internalType":"uint64"},{"name":"desc","type":"tuple","internalType":"struct Descriptor","components":[{"name":"traits","type":"uint32","internalType":"uint32"},{"name":"rev","type":"uint32","internalType":"uint32"},{"name":"kindRev","type":"uint32","internalType":"uint32"},{"name":"setRev","type":"uint32","internalType":"uint32"},{"name":"kindId","type":"uint64","internalType":"uint64"},{"name":"setId","type":"uint64","internalType":"uint64"}]}],"stateMutability":"nonpayable"},{"type":"function","name":"transferOwnership","inputs":[{"name":"newOwner","type":"address","internalType":"address"}],"outputs":[],"stateMutability":"nonpayable"},{"type":"function","name":"upgradeToAndCall","inputs":[{"name":"newImplementation","type":"address","internalType":"address"},{"name":"data","type":"bytes","internalType":"bytes"}],"outputs":[],"stateMutability":"payable"},{"type":"event","name":"Initialized","inputs":[{"name":"version","type":"uint64","indexed":false,"internalType":"uint64"}],"anonymous":false},{"type":"event","name":"OwnershipTransferred","inputs":[{"name":"previousOwner","type":"address","indexed":true,"internalType":"address"},{"name":"newOwner","type":"address","indexed":true,"internalType":"address"}],"anonymous":false},{"type":"event","name":"SetRegistered","inputs":[{"name":"id","type":"uint64","indexed":false,"internalType":"uint64"},{"name":"desc","type":"tuple","indexed":false,"internalType":"struct Descriptor","components":[{"name":"traits","type":"uint32","internalType":"uint32"},{"name":"rev","type":"uint32","internalType":"uint32"},{"name":"kindRev","type":"uint32","internalType":"uint32"},{"name":"setRev","type":"uint32","internalType":"uint32"},{"name":"kindId","type":"uint64","internalType":"uint64"},{"name":"setId","type":"uint64","internalType":"uint64"}]},{"name":"code","type":"address","indexed":false,"internalType":"address"},{"name":"data","type":"bytes32","indexed":false,"internalType":"bytes32"},{"name":"owner","type":"address","indexed":false,"internalType":"address"}],"anonymous":false},{"type":"event","name":"SetTouched","inputs":[{"name":"id","type":"uint64","indexed":false,"internalType":"uint64"},{"name":"desc","type":"tuple","indexed":false,"internalType":"struct Descriptor","components":[{"name":"traits","type":"uint32","internalType":"uint32"},{"name":"rev","type":"uint32","internalType":"uint32"},{"name":"kindRev","type":"uint32","internalType":"uint32"},{"name":"setRev","type":"uint32","internalType":"uint32"},{"name":"kindId","type":"uint64","internalType":"uint64"},{"name":"setId","type":"uint64","internalType":"uint64"}]}],"anonymous":false},{"type":"event","name":"SetUpdated","inputs":[{"name":"id","type":"uint64","indexed":false,"internalType":"uint64"},{"name":"desc","type":"tuple","indexed":false,"internalType":"struct Descriptor","components":[{"name":"traits","type":"uint32","internalType":"uint32"},{"name":"rev","type":"uint32","internalType":"uint32"},{"name":"kindRev","type":"uint32","internalType":"uint32"},{"name":"setRev","type":"uint32","internalType":"uint32"},{"name":"kindId","type":"uint64","internalType":"uint64"},{"name":"setId","type":"uint64","internalType":"uint64"}]},{"name":"data","type":"bytes32","indexed":false,"internalType":"bytes32"}],"anonymous":false},{"type":"event","name":"SetUpgraded","inputs":[{"name":"id","type":"uint64","indexed":false,"internalType":"uint64"},{"name":"desc","type":"tuple","indexed":false,"internalType":"struct Descriptor","components":[{"name":"traits","type":"uint32","internalType":"uint32"},{"name":"rev","type":"uint32","internalType":"uint32"},{"name":"kindRev","type":"uint32","internalType":"uint32"},{"name":"setRev","type":"uint32","internalType":"uint32"},{"name":"kindId","type":"uint64","internalType":"uint64"},{"name":"setId","type":"uint64","internalType":"uint64"}]}],"anonymous":false},{"type":"event","name":"Upgraded","inputs":[{"name":"implementation","type":"address","indexed":true,"internalType":"address"}],"anonymous":false},{"type":"error","name":"AddressEmptyCode","inputs":[{"name":"target","type":"address","internalType":"address"}]},{"type":"error","name":"ERC1967InvalidImplementation","inputs":[{"name":"implementation","type":"address","internalType":"address"}]},{"type":"error","name":"ERC1967NonPayable","inputs":[]},{"type":"error","name":"FailedCall","inputs":[]},{"type":"error","name":"InvalidCode","inputs":[]},{"type":"error","name":"InvalidData","inputs":[]},{"type":"error","name":"InvalidInitial","inputs":[]},{"type":"error","name":"InvalidInitialization","inputs":[]},{"type":"error","name":"NoRevisionSpecified","inputs":[]},{"type":"error","name":"NotInitializing","inputs":[]},{"type":"error","name":"OnSetRegisterRejected","inputs":[]},{"type":"error","name":"OnSetRegisterReverted","inputs":[]},{"type":"error","name":"OnSetTouchRejected","inputs":[]},{"type":"error","name":"OnSetTouchReverted","inputs":[]},{"type":"error","name":"OnSetUpdateRejected","inputs":[]},{"type":"error","name":"OnSetUpdateReverted","inputs":[]},{"type":"error","name":"OnSetUpgradeRejected","inputs":[]},{"type":"error","name":"OnSetUpgradeReverted","inputs":[]},{"type":"error","name":"Overflow","inputs":[]},{"type":"error","name":"OwnableInvalidOwner","inputs":[{"name":"owner","type":"address","internalType":"address"}]},{"type":"error","name":"OwnableUnauthorizedAccount","inputs":[{"name":"account","type":"address","internalType":"address"}]},{"type":"error","name":"SetContractAlreadyRegistered","inputs":[]},{"type":"error","name":"SetContractNoCode","inputs":[]},{"type":"error","name":"SetContractNotIInteroperable","inputs":[]},{"type":"error","name":"SetContractNotISet","inputs":[]},{"type":"error","name":"SetContractNotRegistered","inputs":[]},{"type":"error","name":"UUPSUnauthorizedCallContext","inputs":[]},{"type":"error","name":"UUPSUnsupportedProxiableUUID","inputs":[{"name":"slot","type":"bytes32","internalType":"bytes32"}]},{"type":"error","name":"UnauthorizedAccess","inputs":[{"name":"id","type":"uint64","internalType":"uint64"},{"name":"vistor","type":"address","internalType":"address"}]}],"bytecode":{"object":"0x60a0806040523460295730608052612cc8908161002e8239608051818181610d9a0152610e730152f35b5f80fdfe60806040526004361015610011575f80fd5b5f5f3560e01c8062cc3a861461226357806316f469b4146120295780632aa81fde14611e345780632c636a1114611ded5780632f123e3314611cf75780632fb3b3611461120e57806335b2419e146110fd578063386956c7146110445780634f1ef28614610e23578063527f3e1f14610dee57806352d1902d14610d87578063715018a614610d1e5780638b587840146107ff5780638da5cb5b146107ca57806392338138146106fe57806398b7e8fa1461065f578063ac8b956b14610617578063ad3cb1cc146105d2578063b19c37911461058a578063bb9c740414610493578063cda493c814610476578063cfbc0b2a14610309578063d9a0bd3214610229578063f2fde38b146101fc5763fd644f031461012c575f80fd5b346101e75760403660031901126101e75761017760c061014a612472565b61015261245f565b9061015b612580565b50604051632866ef3160e21b8152938492839260048401612899565b038173__$bfd2951eaa3e5aabb9283af4830755d90c$__5af49081156101f15782916101b0575b60c0826101ae60405180926123e3565bf35b905060c03d60c0116101ea575b6101c781836124f7565b81019160c0828403126101e7575060c0916101e19161260d565b5f61019e565b80fd5b503d6101bd565b6040513d84823e3d90fd5b50346101e75760203660031901126101e7576102266102196124b2565b610221612ad6565b6128f8565b80f35b50346101e75760203660031901126101e757610285906020610249612472565b604051639101c02760e01b81525f516020612c535f395f51905f5260048201526001600160401b03909116602482015292839081906044820190565b038173__$bfd2951eaa3e5aabb9283af4830755d90c$__5af49081156102fd5780916102c0575b6040516001600160a01b0383168152602090f35b90506020823d6020116102f5575b816102db602093836124f7565b810103126101e757506102ef6020916128cc565b5f6102ac565b3d91506102ce565b604051903d90823e3d90fd5b50346101e75760203660031901126101e7576004356001600160401b038111610472573660238201121561047257806004013561034581612569565b9161035360405193846124f7565b81835260208301906024829360051b8201019036821161046e57602401915b81831061044a57505060408051631cff580560e11b81525f516020612c535f395f51905f5260048201526024810191909152925160448401819052839260648401925090855b818110610428575050509080602092038173__$bfd2951eaa3e5aabb9283af4830755d90c$__5af49081156101f157602092916103fb575b506040519015158152f35b61041b9150823d8411610421575b61041381836124f7565b8101906128e0565b5f6103f0565b503d610409565b82516001600160401b03168452859450602093840193909201916001016103b8565b82356001600160401b038116810361046a57815260209283019201610372565b8680fd5b8580fd5b5080fd5b50346101e757806003193601126101e75760206040516101008152f35b50346101e75760203660031901126101e7576104f660e06104b2612472565b6104ba612580565b5060405163154c1b43831b81525f516020612c535f395f51905f5260048201526001600160401b03909116602482015291829081906044820190565b038173__$bfd2951eaa3e5aabb9283af4830755d90c$__5af480156101f1578291839161053f575b60e0838361052f60405180936123e3565b6001600160a01b031660c0820152f35b91505060e03d60e011610583575b61055781836124f7565b81019160e0828403126101e7575061057d60c061057660e0948461260d565b92016128cc565b5f61051e565b503d61054d565b50346101e757806003193601126101e7577f389a4784c2c3e8284bc1418c5b9cf4b556f52088a652459a6e23aae4f7902703546040516001600160a01b039091168152602090f35b50346101e757806003193601126101e757506106136040516105f56040826124f7565b60058152640352e302e360dc1b602082015260405191829182612488565b0390f35b50346101e757806003193601126101e7577f389a4784c2c3e8284bc1418c5b9cf4b556f52088a652459a6e23aae4f7902700546040516001600160a01b039091168152602090f35b50346101e75760203660031901126101e75761061360206106f260106001610685612472565b84806106a16001600160401b0361069a6127cc565b9416612969565b6040519784899551918291018487015e840190601760f91b83830152805192839101602183015e01016f2e7b69647d2f7b7265767d2f6d65746160801b838201520301600f198101845201826124f7565b60405191829182612488565b50346101e75760203660031901126101e757610718612472565b906001600160401b036040519263dbe7760960e01b84525f516020612c535f395f51905f52600485015216602483015280604483015280606483015260208260848173__$bfd2951eaa3e5aabb9283af4830755d90c$__5af49081156102fd5790610793575b6040516001600160a01b039091168152602090f35b506020813d6020116107c2575b816107ad602093836124f7565b810103126107be576020905161077e565b5f80fd5b3d91506107a0565b50346101e757806003193601126101e7575f516020612bd35f395f51905f52546040516001600160a01b039091168152602090f35b50346101e75760203660031901126101e7576004359061081d612580565b508115610d0f57333b15610d00576040516301ffc9a760e01b8152631e84fe3f60e31b6004820152602081602481335afa829181610cdf575b5061086a57631d5dc97560e01b8252600482fd5b15610cd0576040516301ffc9a760e01b815263018516bb60e71b6004820152602081602481335afa829181610caf575b506108ae576349e39deb60e11b8252600482fd5b15610ca0576001600160401b036108c4336125b0565b5416610c915765ffffffffffff5f516020612b935f395f51905f52541665fffffffffffe811015610c825765ffffffffffff8114610c6e5760449265ffffffffffff600183011665ffffffffffff195f516020612b935f395f51905f525416175f516020612b935f395f51905f525561093c336125b0565b805467ffffffffffffffff1916831790555f516020612c735f395f51905f5254604051638399ebdd60e01b815260016004820152602481018590529460209186919082906001600160a01b03165afa938415610c63578394610c27575b5060405163298a39dd60e11b81525f516020612c535f395f51905f5260048201526001602482015273__$bfd2951eaa3e5aabb9283af4830755d90c$__602082604481845af4918215610c1c578592610be0575b506109f6612580565b5063ffffffff60405192610a0b6060856124f7565b60028452604036602086013733610a2185612754565b5284610a2c85612730565b528160405198610a3b8a6124c8565b888a52600160208b015216604089015216606087015260016080870152600160a0870152803b15610bdc57610ab89185916040518080958194634881a43960e01b83525f516020612c535f395f51905f526004840152896024840152610aa4604484018d6123e3565b610140610104840152610144830190612761565b3361012483015203915af48015610bd157908491610bb8575b50506040516358ab099960e11b815260208180610af288876004840161243d565b038187335af1849181610b87575b50610b145763b4e1311d60e01b8452600484fd5b9192916001600160e01b031916632754f66760e11b01610b78576040518381525f516020612bb35f395f51905f52925061014091610b5560208301876123e3565b3360e083015261010082015233610120820152a16106136040519283928361243d565b63939719f960e01b8252600482fd5b610baa91925060203d602011610bb1575b610ba281836124f7565b810190612687565b905f610b00565b503d610b98565b81610bc2916124f7565b610bcd57825f610ad1565b8280fd5b6040513d86823e3d90fd5b8480fd5b9091506020813d602011610c14575b81610bfc602093836124f7565b81010312610bdc57610c0d906125e8565b905f6109ed565b3d9150610bef565b6040513d87823e3d90fd5b9093506020813d602011610c5b575b81610c43602093836124f7565b81010312610bcd57610c54906125e8565b925f610999565b3d9150610c36565b6040513d85823e3d90fd5b634e487b7160e01b82526011600452602482fd5b631a93c68960e11b8252600482fd5b63b952ea8960e01b8152600490fd5b6349e39deb60e11b8152600490fd5b610cc991925060203d6020116104215761041381836124f7565b905f61089a565b631d5dc97560e01b8152600490fd5b610cf991925060203d6020116104215761041381836124f7565b905f610856565b63b383ddd360e01b8152600490fd5b635cb045db60e01b8152600490fd5b50346101e757806003193601126101e757610d37612ad6565b5f516020612bd35f395f51905f5280546001600160a01b0319811690915581906001600160a01b03167f8be0079c531659141344cd1fd0a4f28419497f9722a3daafe3b4186f6b6457e08280a380f35b50346101e757806003193601126101e7577f00000000000000000000000000000000000000000000000000000000000000006001600160a01b03163003610ddf5760206040515f516020612c135f395f51905f528152f35b63703e46dd60e11b8152600490fd5b50346101e757806003193601126101e7575f516020612c735f395f51905f52546040516001600160a01b039091168152602090f35b5060403660031901126101e757610e386124b2565b906024356001600160401b038111610472573660238201121561047257610e69903690602481600401359101612533565b6001600160a01b037f000000000000000000000000000000000000000000000000000000000000000016308114908115611022575b5061101357610eab612ad6565b6040516352d1902d60e01b8152926001600160a01b0381169190602085600481865afa80958596610fdf575b50610ef057634c9c8ce360e01b84526004839052602484fd5b9091845f516020612c135f395f51905f528103610fcd5750813b15610fbb575f516020612c135f395f51905f5280546001600160a01b031916821790557fbc7cd75a20ee27fd9adebab32041f755214dbc6bffa90cc0225b39da2e5c2d3b8480a28151839015610fa15780836020610f9595519101845af43d15610f99573d91610f7983612518565b92610f8760405194856124f7565b83523d85602085013e612b34565b5080f35b606091612b34565b50505034610fac5780f35b63b398979f60e01b8152600490fd5b634c9c8ce360e01b8452600452602483fd5b632a87526960e21b8552600452602484fd5b9095506020813d60201161100b575b81610ffb602093836124f7565b810103126107be5751945f610ed7565b3d9150610fee565b63703e46dd60e11b8252600482fd5b5f516020612c135f395f51905f52546001600160a01b0316141590505f610e9e565b50346101e75760403660031901126101e757611088906020611064612472565b61106c61245f565b60405163310ace3360e11b815294859283929060048401612899565b038173__$bfd2951eaa3e5aabb9283af4830755d90c$__5af49081156102fd5780916110c0575b60208263ffffffff60405191168152f35b90506020823d6020116110f5575b816110db602093836124f7565b810103126101e757506110ef6020916125e8565b5f6110af565b3d91506110ce565b50346101e75760403660031901126101e757611117612472565b63ffffffff61112461245f565b61112c612580565b506001600160401b036040519363340100c160e01b85525f516020612c535f395f51905f52600486015216602484015216604482015260026064820152818160848173__$bfd2951eaa3e5aabb9283af4830755d90c$__5af49081156101f157829083926111e9575b50906040519283926111ab8460e08101926123e3565b60e060c08501528251809152602061010085019301915b8181106111d0575050500390f35b82518452859450602093840193909201916001016111c2565b905061120791503d8084833e6111ff81836124f7565b8101906126a7565b905f611195565b50346107be5760a03660031901126107be576112286124b2565b6024356001600160a01b0381169291908390036107be576044356001600160a01b03811693908490036107be576064356001600160a01b038116908190036107be576084356001600160401b0381116107be57366023820112156107be5761129a903690602481600401359101612533565b945f516020612c335f395f51905f5254936001600160401b0360ff8660401c1615951680159081611cef575b6001149081611ce5575b159081611cdc575b50611ccd57611322908560016001600160401b03195f516020612c335f395f51905f525416175f516020612c335f395f51905f5255611c98575b61131a612b09565b610221612b09565b61132a612b09565b611332612b09565b306001600160601b0360a01b7f389a4784c2c3e8284bc1418c5b9cf4b556f52088a652459a6e23aae4f79027005416177f389a4784c2c3e8284bc1418c5b9cf4b556f52088a652459a6e23aae4f790270055826001600160601b0360a01b7f389a4784c2c3e8284bc1418c5b9cf4b556f52088a652459a6e23aae4f79027015416177f389a4784c2c3e8284bc1418c5b9cf4b556f52088a652459a6e23aae4f790270155806001600160601b0360a01b5f516020612c735f395f51905f525416175f516020612c735f395f51905f5255816001600160601b0360a01b7f389a4784c2c3e8284bc1418c5b9cf4b556f52088a652459a6e23aae4f79027035416177f389a4784c2c3e8284bc1418c5b9cf4b556f52088a652459a6e23aae4f79027035561145c612580565b50611465612580565b5060405160609361147685836124f7565b60028252601f19850192833660208501373061149184612754565b52636461746160e01b6114a384612730565b526040516114b0816124c8565b5f8152600160208201526001604082015260018782015260016080820152600160a082015273__$bfd2951eaa3e5aabb9283af4830755d90c$__93843b156107be575f61152f9160405180938192634881a43960e01b83525f516020612c535f395f51905f52600484015260016024840152610aa460448401886123e3565b336101248301520381885af48015611c8d57611c76575b506101405f516020612bb35f395f51905f529161156e604051916001835260208301906123e3565b3060e0820152636461746160e01b61010082015233610120820152a1611592612580565b5061159b612580565b50604051906115aa87836124f7565b6002825284366020840137806115bf83612754565b52636461746160e01b6115d183612730565b52604051916115df836124c8565b898352600160208401526001604084015260018884015260016080840152600160a0840152843b15611c7257896116489160405180938192634881a43960e01b83525f516020612c535f395f51905f52600484015260026024840152610aa460448401896123e3565b336101248301520381885af48015611c6757908a91611c52575b50505f516020612bb35f395f51905f52916101409161168c604051926002845260208401906123e3565b60e0820152636461746160e01b61010082015233610120820152a16116af612580565b506116b8612580565b50604051906116c786836124f7565b6002825283366020840137806116dc83612754565b52636461746160e01b6116ee83612730565b52604051916116fc836124c8565b888352600160208401526001604084015260018784015260016080840152600160a0840152833b15611c4e57886117659160405180938192634881a43960e01b83525f516020612c535f395f51905f52600484015260036024840152610aa460448401896123e3565b336101248301520381875af48015611c4357908991611c2e575b50505f516020612bb35f395f51905f5291610140916117a9604051926003845260208401906123e3565b60e0820152636461746160e01b61010082015233610120820152a16117cc612580565b506117d5612580565b506040516117e385826124f7565b6002815282366020830137836117f882612754565b52636461746160e01b61180a82612730565b5260405190611818826124c8565b878252600160208301526001604083015260018683015260016080830152600160a0830152823b15611c2a57876118819160405180938192634881a43960e01b83525f516020612c535f395f51905f52600484015260046024840152610aa460448401886123e3565b336101248301520381865af48015611c1f57908891611c0a575b50506101405f516020612bb35f395f51905f52916118c4604051916004835260208301906123e3565b60e08101869052636461746160e01b61010082015233610120820152a16118e9612580565b506118f2612580565b506040519161190185846124f7565b600283523660208401378261191583612754565b52636461746160e01b61192783612730565b52600160405194611937866124c8565b87865281602087015281604087015285015260016080850152600160a0850152803b1561046e5761199d9186916040518080958194634881a43960e01b83525f516020612c535f395f51905f52600484015260056024840152610aa4604484018b6123e3565b3361012483015203915af48015610c1c57908591611bf1575b50505f516020612bb35f395f51905f5291610140916119e0604051926005845260208401906123e3565b60e0820152636461746160e01b61010082015233610120820152a1601165ffffffffffff195f516020612b935f395f51905f525416175f516020612b935f395f51905f525582516001600160401b038111611bdd57611a4c5f516020612bf35f395f51905f5254612794565b601f8111611b6e575b506020601f8211600114611af457839482939492611ae9575b50508160011b915f199060031b1c1916175f516020612bf35f395f51905f52555b611a965780f35b60ff60401b195f516020612c335f395f51905f5254165f516020612c335f395f51905f52557fc7f505b2f371ae2175ee4913f4499e1f2633a7b5936321eed1cdaeb6115181d2602060405160018152a180f35b015190505f80611a6e565b5f516020612bf35f395f51905f52845280842090601f198316855b818110611b5657509583600195969710611b3e575b505050811b015f516020612bf35f395f51905f5255611a8f565b01515f1960f88460031b161c191690555f8080611b24565b9192602060018192868b015181550194019201611b0f565b5f516020612bf35f395f51905f5284527f703f4d1dc7b9a9c5a5a17618547667a9e192f00ed6d8400a8747caa6f5fe2afe601f830160051c81019160208410611bd3575b601f0160051c01905b818110611bc85750611a55565b848155600101611bbb565b9091508190611bb2565b634e487b7160e01b83526041600452602483fd5b81611bfb916124f7565b611c0657835f6119b6565b8380fd5b81611c14916124f7565b61046a57865f61189b565b6040513d8a823e3d90fd5b8780fd5b81611c38916124f7565b611c2a57875f61177f565b6040513d8b823e3d90fd5b8880fd5b81611c5c916124f7565b611c4e57885f611662565b6040513d8c823e3d90fd5b8980fd5b611c839199505f906124f7565b5f97610140611546565b6040513d5f823e3d90fd5b6801000000000000000060ff60401b195f516020612c335f395f51905f525416175f516020612c335f395f51905f5255611312565b63f92ee8a960e01b5f5260045ffd5b9050155f6112d8565b303b1591506112d0565b8691506112c6565b346107be5760603660031901126107be57611d10612472565b602435906001600160401b0382168092036107be576044359063ffffffff82168092036107be57600560016106f29281602061061397828280998180611d78611d72611d6c6001600160401b03611d656127cc565b9c16612969565b97612969565b93612969565b956040519d8a8f9b5191829101848d015e8a0190601760f91b83830152805192839101602183015e010190601760f91b84830152805192839101600283015e010190602f60f81b84830152805192839101600283015e0101642f6d65746160d81b838201520301601a198101845201826124f7565b346107be575f3660031901126107be577f389a4784c2c3e8284bc1418c5b9cf4b556f52088a652459a6e23aae4f7902701546040516001600160a01b039091168152602090f35b346107be5760403660031901126107be5760043563ffffffff81168091036107be57611e5e61245f565b611e66612580565b5081158061201b575b61200c576001600160401b03611e84336125b0565b5416908115611ffd5763ffffffff906040519363d995904360e01b85525f516020612c535f395f51905f52600486015283602486015260448501521660648301526002608483015260c08260a48173__$bfd2951eaa3e5aabb9283af4830755d90c$__5af4918215611c8d575f92611fc2575b506040516387ec174f60e01b815260208180611f1786866004840161243d565b03815f335af15f9181611fa1575b50611f3957631475dedb60e11b5f5260045ffd5b6001600160e01b031916637813e8b160e01b01611f92577fab03f002da1fd9276cfa0dc1c27d3f88b25e7521f652ec04b125c6bdd369889760405180611f8085858361243d565b0390a16106136040519283928361243d565b63278961a160e01b5f5260045ffd5b611fbb91925060203d602011610bb157610ba281836124f7565b9084611f25565b90915060c03d60c011611ff6575b611fda81836124f7565b810160c0828203126107be57611fef9161260d565b9082611ef7565b503d611fd0565b6396b70a2160e01b5f5260045ffd5b6325d63fc960e01b5f5260045ffd5b5063ffffffff811615611e6f565b346107be5760203660031901126107be57600435612045612580565b508015612254576001600160401b0361205d336125b0565b54168015611ffd5773__$bfd2951eaa3e5aabb9283af4830755d90c$__9160405163340100c160e01b81525f516020612c535f395f51905f5260048201528260248201525f6044820152600260648201525f81608481875af48015611c8d576121129460c0925f92612236575b50836120d583612730565b5260405180809781946314447f4f60e11b83525f516020612c535f395f51905f526004840152886024840152606060448401526064830190612761565b03915af4928315611c8d575f936121fb575b50604051631b43871760e31b81526020818061214487876004840161243d565b03815f335af15f91816121da575b50612166576331dc164b60e11b5f5260045ffd5b6001600160e01b0319166304bc78e960e31b016121cb576101007f2193694925ddfa339499ba40e6fc16b93ab9b965a7efad21af85dc78d7aef96191604051908482526121b660208301876123e3565b60e0820152a16106136040519283928361243d565b634261c3f160e01b5f5260045ffd5b6121f491925060203d602011610bb157610ba281836124f7565b9085612152565b90925060c03d60c01161222f575b61221381836124f7565b810160c0828203126107be576122289161260d565b9183612124565b503d612209565b61224b9192503d805f833e6111ff81836124f7565b905090866120ca565b635cb045db60e01b5f5260045ffd5b346107be575f3660031901126107be5761227b612580565b506001600160401b0361228d336125b0565b54168015611ffd57604051637ce36e2360e11b81525f516020612c535f395f51905f52600482015260248101829052600260448201529060c08260648173__$bfd2951eaa3e5aabb9283af4830755d90c$__5af4918215611c8d575f926123a8575b50604051631881cd3d60e01b81526020818061230f86866004840161243d565b03815f335af15f9181612387575b50612331576304b08f5560e21b5f5260045ffd5b6001600160e01b03191663e77e32c360e01b01612378577f6b2bf436a57b924f423cc0ccd1cc0dd9bcd4862b76ef8127cedc60329acf68fa60405180611f8085858361243d565b63254dda9560e11b5f5260045ffd5b6123a191925060203d602011610bb157610ba281836124f7565b908461231d565b90915060c03d60c0116123dc575b6123c081836124f7565b810160c0828203126107be576123d59161260d565b90826122ef565b503d6123b6565b6001600160401b0360a0809263ffffffff815116855263ffffffff602082015116602086015263ffffffff604082015116604086015263ffffffff6060820151166060860152826080820151166080860152015116910152565b91602061245d9294936001600160401b0360e082019616815201906123e3565b565b6024359063ffffffff821682036107be57565b600435906001600160401b03821682036107be57565b602060409281835280519182918282860152018484015e5f828201840152601f01601f1916010190565b600435906001600160a01b03821682036107be57565b60c081019081106001600160401b038211176124e357604052565b634e487b7160e01b5f52604160045260245ffd5b90601f801991011681019081106001600160401b038211176124e357604052565b6001600160401b0381116124e357601f01601f191660200190565b92919261253f82612518565b9161254d60405193846124f7565b8294818452818301116107be578281602093845f960137010152565b6001600160401b0381116124e35760051b60200190565b6040519061258d826124c8565b5f60a0838281528260208201528260408201528260608201528260808201520152565b6001600160a01b03165f9081527fb8684b9e6721af0d1bdda1cb8f0f025a168f1333cb4134fd73b30bed068761036020526040902090565b519063ffffffff821682036107be57565b51906001600160401b03821682036107be57565b91908260c09103126107be57604051612625816124c8565b60a0612682818395612636816125e8565b8552612644602082016125e8565b6020860152612655604082016125e8565b6040860152612666606082016125e8565b6060860152612677608082016125f9565b6080860152016125f9565b910152565b908160209103126107be57516001600160e01b0319811681036107be5790565b919060e0838203126107be576126bd818461260d565b9260c0810151906001600160401b0382116107be57019080601f830112156107be5781516126ea81612569565b926126f860405194856124f7565b81845260208085019260051b8201019283116107be57602001905b8282106127205750505090565b8151815260209182019101612713565b8051600110156127405760400190565b634e487b7160e01b5f52603260045260245ffd5b8051156127405760200190565b90602080835192838152019201905f5b81811061277e5750505090565b8251845260209384019390920191600101612771565b90600182811c921680156127c2575b60208310146127ae57565b634e487b7160e01b5f52602260045260245ffd5b91607f16916127a3565b604051905f825f516020612bf35f395f51905f5254916127eb83612794565b808352926001811690811561287a575060011461280f575b61245d925003836124f7565b505f516020612bf35f395f51905f525f90815290917f703f4d1dc7b9a9c5a5a17618547667a9e192f00ed6d8400a8747caa6f5fe2afe5b81831061285e57505090602061245d92820101612803565b6020919350806001915483858901015201910190918492612846565b6020925061245d94915060ff191682840152151560051b820101612803565b5f516020612c535f395f51905f5281526001600160401b03909116602082015263ffffffff909116604082015260600190565b51906001600160a01b03821682036107be57565b908160209103126107be575180151581036107be5790565b6001600160a01b03168015612956575f516020612bd35f395f51905f5280546001600160a01b0319811683179091556001600160a01b03167f8be0079c531659141344cd1fd0a4f28419497f9722a3daafe3b4186f6b6457e05f80a3565b631e4fbdf760e01b5f525f60045260245ffd5b805f9172184f03e93ff9f4daa797ed6e38ed64bf6a1f0160401b821015612ab3575b806d04ee2d6d415b85acef8100000000600a921015612a98575b662386f26fc10000811015612a84575b6305f5e100811015612a73575b612710811015612a64575b6064811015612a56575b1015612a4b575b600a602160018401936129f085612518565b946129fe60405196876124f7565b808652612a0d601f1991612518565b013660208701378401015b5f1901916f181899199a1a9b1b9c1cb0b131b232b360811b8282061a8353048015612a4657600a9091612a18565b505090565b6001909101906129de565b6064600291049301926129d7565b612710600491049301926129cd565b6305f5e100600891049301926129c2565b662386f26fc10000601091049301926129b5565b6d04ee2d6d415b85acef8100000000602091049301926129a5565b506040915072184f03e93ff9f4daa797ed6e38ed64bf6a1f0160401b810461298b565b5f516020612bd35f395f51905f52546001600160a01b03163303612af657565b63118cdaa760e01b5f523360045260245ffd5b60ff5f516020612c335f395f51905f525460401c1615612b2557565b631afcd79f60e31b5f5260045ffd5b90612b585750805115612b4957805190602001fd5b63d6bda27560e01b5f5260045ffd5b81511580612b89575b612b69575090565b639996b31560e01b5f9081526001600160a01b0391909116600452602490fd5b50803b15612b6156feb8684b9e6721af0d1bdda1cb8f0f025a168f1333cb4134fd73b30bed068761009f63205a174bfa07baf181f5959b4786f7b8d7e0f947464049294c5e419323eb9016d09d72d40fdae2fd8ceac6b6234c7706214fd39c1cd1e609a0528c199300b8684b9e6721af0d1bdda1cb8f0f025a168f1333cb4134fd73b30bed06876104360894a13ba1a3210667c828492db98dca3e2076cc3735a920a3ca505d382bbcf0c57e16840df040f15088dc2f81fe391c3923bec73e23a9662efc9c229c6a00b8684b9e6721af0d1bdda1cb8f0f025a168f1333cb4134fd73b30bed06876101389a4784c2c3e8284bc1418c5b9cf4b556f52088a652459a6e23aae4f7902702a2646970667358221220de39a62d0f1229e106da17c82dcc4e214064f581c81502b0d8c98aff83f45e8e64736f6c634300081c0033","linkReferences":{"contracts/libraries/Snapshots.sol":{"Snapshots":[{"start":425,"length":20},{"start":695,"length":20},{"start":1017,"length":20},{"start":1320,"length":20},{"start":1930,"length":20},{"start":2545,"length":20},{"start":4282,"length":20},{"start":4510,"length":20},{"start":5381,"length":20},{"start":7938,"length":20},{"start":8341,"length":20},{"start":8954,"length":20}]}}},"methodIdentifiers":{"UPGRADE_INTERFACE_VERSION()":"ad3cb1cc","elementRegistry()":"b19c3791","initialize(address,address,address,address,string)":"2fb3b361","kindRegistry()":"527f3e1f","omniRegistry()":"2c636a11","owner()":"8da5cb5b","proxiableUUID()":"52d1902d","renounceOwnership()":"715018a6","semver()":"cda493c8","setContract(uint64)":"92338138","setDescriptor(uint64,uint32)":"fd644f03","setOwner(uint64)":"d9a0bd32","setRegister(bytes32)":"8b587840","setRegistry()":"ac8b956b","setRevision(uint64,uint32)":"386956c7","setSnapshot(uint64,uint32)":"35b2419e","setSota(uint64)":"bb9c7404","setStatus(uint64[])":"cfbc0b2a","setTouch()":"00cc3a86","setURI(uint64)":"98b7e8fa","setURI(uint64,uint64,uint32)":"2f123e33","setUpdate(bytes32)":"16f469b4","setUpgrade(uint32,uint32)":"2aa81fde","transferOwnership(address)":"f2fde38b","upgradeToAndCall(address,bytes)":"4f1ef286"},"id":4}